:100000000C9472000C949A000C949A000C949A0030
:100010000C949A000C949A000C949A000C949A00F8
:100020000C949A000C949A000C949A000C949A00E8
:100030000C949A000C949A000C949A000C949A00D8
:100040000C94630A0C949A000C94D30A0C94AD0A95
:100050000C949A000C949A000C949A000C949A00B8
:100060000C94050B0C949A0005A84CCDB2D44EB953
:100070003836A9020C50B9918688083CA6AAAA2A4B
:10008000BE000000803F00000000240027002A007E
:1000900000000000230026002900000000080002E4
:1000A000010000030407000000000000000001023E
:1000B00004081020408001020408102001020408F6
:1000C000102000000000250028002B000404040478
:1000D00004040404020202020202030303030303F2
:1000E000240CCB1211241FBECFEFD8E0DEBFCDBF52
:1000F00011E0A0E0B1E0E8EDFEE202C005900D9253
:10010000AA3BB107D9F723E0AAEBB1E001C01D92E9
:10011000A337B207E1F710E0C1E7D0E004C02197B0
:10012000FE010E945A13C037D107C9F70E94290D5A
:100130000C945F170C9400008F929F92AF92BF9225
:10014000CF92DF92EF92FF92CF9320913F033091B5
:10015000400382179307E8F54B01AA24BB24C82D5E
:10016000C52ED62EE72EFF24BC2DA42F20914503AB
:10017000222361F0829E40011124C92D2C9D600133
:100180001124BD2D249FF0011124AF2FE0914B03CA
:10019000E0904603F090470330914803E31323C0F7
:1001A0009C01220F331F820F931F8E0D9F1DE09124
:1001B0004803E80FF92FF11DC083E0914903E80FD0
:1001C000F92FF11DB08320914A03820F911DFC018C
:1001D000A083CF91FF90EF90DF90CF90BF90AF9032
:1001E0009F908F900895880F991F880F991F8E0DEB
:1001F0009F1D472F552766277727222349F030E098
:10020000249F7001259FF00C349FF00C11244F2D7A
:10021000E80FF92FF11D4083CACFCF92DF92EF9202
:10022000FF920F931F93CF93DF936B017C01EA0141
:1002300000913F03109140034017510798F4211596
:10024000310531F0240F351F2017310708F48901DB
:10025000C017D10738F4B701A601CE010E949C0057
:100260002196F6CFDF91CF911F910F91FF90EF90E4
:10027000DF90CF900895833081F028F4813099F099
:100280008230A9F008958730A9F08830C9F0843011
:10029000B1F4809180008F7D03C0809180008F77C2
:1002A00080938000089584B58F7784BD089584B5C8
:1002B0008F7DFBCF8091B0008F778093B000089541
:1002C0008091B0008F7DF9CFCF93DF93ECE9F0E020
:1002D0008491E0EBF0E0D491EEECF0E0C491CC231B
:1002E000A1F081110E943B01EC2FF0E0EE0FFF1F07
:1002F000E057FF4FA591B491EC91ED2381E090E0A0
:1003000009F480E0DF91CF91089580E090E0FACF8A
:100310001F93CF93DF93282F30E0F901E656FF4F6C
:100320008491F901E255FF4FD491F901E453FF4F55
:10033000C491CC23A9F0162F81110E943B01EC2F10
:10034000F0E0EE0FFF1FEE53FF4FA591B4918FB772
:10035000F894EC91111108C0D095DE23DC938FBF87
:10036000DF91CF911F910895DE2BF8CFCF93DF93CC
:10037000EC0180915B0390915C03029749F4C130DA
:10038000D10509F43BC06CF560E0209709F437C053
:1003900080915B0390915C03049749F4C130D105CF
:1003A00009F45CC00CF037C0209709F442C080917A
:1003B0005B0390915C03059709F0E5C0CA30D10555
:1003C00008F0E1C0FE01E951FE4F0C945A134602B9
:1003D000520263027902940296029D02A902BA02B5
:1003E000C102C230D105A9F060E0C330D10581F669
:1003F00080915F030E94880160E006C061E0809107
:100400005F030E94880161E0809161030E9488017E
:10041000BFCF61E0EDCFC230D10539F1C330D10596
:1004200009F0C5CF61E080915F030E94880160E020
:1004300022C061E080915F030E94880160E08091AA
:1004400061030E94880161E0809163030E9488013A
:1004500060E0809165030E948801A9CF60E08091EF
:100460005F030E94880161E0EACF60E080915F0352
:100470000E94880161E0809161030E94880160E030
:10048000809163030E94880161E0E3CF60E0809186
:100490005F030E94880161E0809161030E948801EE
:1004A00061E00BC060E080915F030E94880161E021
:1004B000809161030E94880160E0809163030E9443
:1004C000880160E010C060E080915F030E948801B5
:1004D00061E0809161030E94880160E08091630384
:1004E0000E94880161E0809165030E94880161E0BB
:1004F00015C060E080915F030E94880161E08091F7
:1005000061030E94880160E0809163030E9488017A
:1005100061E0809165030E94880160E0809167033B
:10052000DF91CF910C94880161E0E4CF61E080918C
:100530005F030E94880160E0E2CF61E080915F0389
:100540000E94880160E0809161030E94880161E05F
:10055000DBCF61E080915F030E94880160E08091C1
:1005600061030E94880161E0809163030E94880119
:1005700060E0CFCF61E080915F030E94880160E07E
:100580008BCF60E0F8CFDF91CF910895CF93DF93C9
:1005900090E0FC01E255FF4F249184539F4FFC01F2
:1005A00084918823C9F090E0880F991FFC01EA57D5
:1005B000FF4FA591B491FC01EE53FF4FC591D4912B
:1005C00061110DC09FB7F8948C91209582238C9374
:1005D0008881282328839FBFDF91CF9108956230BF
:1005E00051F49FB7F8943C91822F809583238C938C
:1005F000E8812E2BEFCF8FB7F894EC912E2B2C9314
:100600008FBFEACF3FB7F89480911E0290911F02EE
:10061000A0912002B091210226B5A89B05C02F3FD2
:1006200019F00196A11DB11D3FBFBA2FA92F982F18
:100630008827BC01CD01620F711D811D911D42E013
:10064000660F771F881F991F4A95D1F708954F921B
:100650005F926F927F928F929F92AF92BF92EF9232
:10066000FF920F931F93CF93DF93EC0197FF04C08A
:10067000CC27DD27C81BD90B181619060CF061C052
:1006800081E090E0909354038093530304E010E0E2
:100690008AE0E82EF12C209709F46FC00E94020333
:1006A0008090690390906A03A0906B03B0906C03F4
:1006B0002B013C01481859086A087B0880905503B3
:1006C00090905603A0905703B090580348145904D3
:1006D0006A047B0400F36093690370936A03809358
:1006E0006B0390936C0380915D0390915E03209166
:1006F0005303309154032130310559F501969093FD
:100700005E0380935D032091590330915A03821751
:10071000930721F410925E0310925D03219780915C
:100720005D0390915E0320915B0330915C03B70100
:100730002530310509F0B8010E94EF120E94B60180
:10074000AACF892B09F4A2CF10925403109253031D
:100750009DCF892B41F48091590390915A03909336
:100760005E0380935D0380915D0390915E0301972A
:1007700090935E0380935D03D1CFDF91CF911F9162
:100780000F91FF90EF90BF90AF909F908F907F90D0
:100790006F905F904F9008950F931F93CF93DF93C7
:1007A000CDB7DEB729970FB6F894DEBF0FBECDBF29
:1007B0008091460390914703892B09F47CC00E94E5
:1007C000020300914C0310914D0320914E03309190
:1007D0004F03601771078207930740F460934C033F
:1007E00070934D0380934E0390934F0300914C03FD
:1007F00010914D0320914E0330914F03601B710BFC
:10080000820B930B6C32714081059105C0F2F89414
:1008100080914103909142039A838983E09146033A
:10082000F0914703DF0111968081898790913D0304
:10083000E0915003F091510380915203992309F400
:1008400045C09081982B98879081809589238F83CC
:100850008F818C8388E08B8358856F8149853B81AC
:100860002C8189819A81508347FD252F3A952083D9
:10087000262F39F0441F00C000006083000000C034
:10088000F2CF38E04D9160830000019761F7F0935B
:100890005103E093500349873B832C839A838983D8
:1008A00078940E94020360934C0370934D038093ED
:1008B0004E0390934F0329960FB6F894DEBF0FBEF8
:1008C000CDBFDF91CF911F910F9108959081982B0B
:1008D00098879081809589238F838F818E8388E08C
:1008E0008D8358856F8149853D812E8189819A81CB
:1008F000508347FD252F00C000C0208300C000C0EA
:1009000000C000C000C060830000262F3A9541F06F
:10091000441F000000C000C000C000C000C0E8CFFD
:1009200038E04D9100C0608300C0019709F7F09353
:100930005103E093500349873D832E83AFCF8F92BD
:100940009F92AF92BF92CF92DF92EF92FF926B0194
:100950007C010E9402034B015C01C114D104E1043B
:10096000F104B9F00E940203681979098A099B0908
:10097000683E73408105910580F321E0C21AD108D9
:10098000E108F10888EE880E83E0981EA11CB11CD6
:10099000E4CFFF90EF90DF90CF90BF90AF909F900B
:1009A0008F90089508950895AF92BF92CF92DF92ED
:1009B000EF92FF920F931F93CF93DF936C017B0114
:1009C0008B01040F151FEB015E01AE18BF08C017A5
:1009D000D10759F06991D601ED91FC910190F08118
:1009E000E02DC6010995892B79F7C501DF91CF91DB
:1009F0001F910F91FF90EF90DF90CF90BF90AF903D
:100A00000895FC01538D448D252F30E0842F90E014
:100A1000821B930B541710F0CF96089501970895F9
:100A2000FC01918D828D981761F0A28DAE0FBF2FC2
:100A3000B11D5D968C91928D9F5F9F73928F90E018
:100A400008958FEF9FEF0895FC01918D828D981787
:100A500031F0828DE80FF11D858D90E008958FEFC4
:100A60009FEF0895FC01918D228D892F90E0805C8D
:100A70009F4F821B91098F739927089584E992E013
:100A80000E94320521E0892B09F420E0822F08958D
:100A900080E090E0892B29F00E943E0581110C94A2
:100AA00000000895FC01A48DA80FB92FB11DA35A11
:100AB000BF4F2C91848D90E001968F739927848F7E
:100AC000A689B7892C93A089B1898C9183708064A1
:100AD0008C93938D848D981306C00288F389E02D42
:100AE00080818F7D80830895EF92FF920F931F93F3
:100AF000CF93DF93EC0181E0888F9B8D8C8D9813D1
:100B00001AC0E889F989808185FF15C09FB7F894DC
:100B1000EE89FF896083E889F98980818370806428
:100B200080839FBF81E090E0DF91CF911F910F9173
:100B3000FF90EF900895F62E0B8D10E00F5F1F4F82
:100B40000F731127E02E8C8D8E110CC00FB607FC91
:100B5000FACFE889F989808185FFF5CFCE010E941F
:100B60005205F1CFEB8DEC0FFD2FF11DE35AFF4F36
:100B7000F0829FB7F8940B8FEA89FB8980818062AD
:100B8000CFCFCF93DF93EC01888D8823B9F0AA896A
:100B9000BB89E889F9898C9185FD03C0808186FD38
:100BA0000DC00FB607FCF7CF8C9185FFF2CF808187
:100BB00085FFEDCFCE010E945205E9CFDF91CF91A5
:100BC00008958F929F92AF92BF92EF92FF920F93F0
:100BD0001F93CF93DF93C62F9C01AAEFB5E00E942D
:100BE0004B13DC01CB019058AF4FBF4FCD01BB275A
:100BF00097FDB095AB2F8E3F21E0920708F059C0CA
:100C0000382F8F3F910508F473C05EEF581BE0E06A
:100C10003FEF042F10E00F5F1F4FEC2EF12C8FEFF2
:100C2000E81AF80AC095D0E03E9DC0013F9D900DA6
:100C30001124292F33272C0F3D1FD8010E94441364
:100C40004B015C018824AA24BB24EE9D9001EF9DFA
:100C5000300D1124232F33272C0F3D1F0E944413E6
:100C6000672F782F892F9927862A972AA82AB92AA9
:100C70005E9D90015F9D300D1124232F33272C0F93
:100C80003D1F0E944413982F872F762F66276627D3
:100C900077279927682979298A299B29DF91CF917C
:100CA0001F910F91FF90EF90BF90AF909F908F900A
:100CB00008958C3F23E0920760F4E2E0E80F3FEFF5
:100CC0008D3F22E0920718F03CEF381BEFEF50E029
:100CD000A0CF8A3F25E0920771F0EAEFE81B8B3F37
:100CE00024E0920748F454E0580FEFEF30E091CF42
:100CF000E0E05FEF8ECFE0E030E0FBCFDC01ED9194
:100D0000FC910190F081E02D09942091DB01260FE8
:100D10003327331F21323105ECF420918E02FC0180
:100D200090E080E0243069F082E00895A091DB013A
:100D30002191AC0145545E4FA40FB52FB11D2C93EA
:100D40000196861798F38091DB01680F6093DB01B1
:100D500080E0089581E0089510928E0281E08093F2
:100D60006D021092680261E082E10E94880161E0F8
:100D700083E10E948801E9EBF0E080818E7F80832F
:100D800080818D7F808388E48093B80085E48093A0
:100D9000BC000895CF93DF9391E09093BA0188232C
:100DA000B9F0C091B800D091BA008091BC008A7BA4
:100DB0008093BC0060E082E10E94880160E083E1F2
:100DC0000E9488010E94AC06D093BA00C093B8007C
:100DD000DF91CF910895CF92DF92EF92FF920F9320
:100DE0001F93CF93DF93D82FC62F613208F098C09E
:100DF0000E9402036B017C0180918E0281116BC005
:100E000081E080938E0280936D029FEF90936C023D
:100E100010926B029C0F90936A02809369028091FA
:100E20006902DD0FD82BD09369028091680281306E
:100E300009F078C0109268020E9402036B017C01E5
:100E4000809169028093BB00809190029091910201
:100E5000A0919202B0919302892B8A2B8B2BA1F047
:100E60000E9402030091900210919102209192023F
:100E7000309193026C197D098E099F090617170797
:100E80002807390708F448C08091BC0083FDD8CFFB
:100E900085EC8093BC000E9402036B017C01809171
:100EA0008E02813009F440C080916B028C1710F4DF
:100EB000C0916B02E8E4F2E0AEE6B2E080E08C13B1
:100EC00055C08C2FDF91CF911F910F91FF90EF9024
:100ED000DF90CF9008958091900290919102A0911F
:100EE0009202B0919302892B8A2B8B2B09F484CF29
:100EF0000E940203009190021091910220919202AF
:100F0000309193026C197D098E099F090617170706
:100F10002807390708F070CF80918F020E94CA0617
:100F2000C0E0CFCF85EEB5CF809190029091910235
:100F3000A0919202B0919302892B8A2B8B2B09F4FA
:100F4000AECF0E9402030091900210919102209175
:100F50009202309193026C197D098E099F09061740
:100F600017072807390708F09ACFD6CF91919D939C
:100F70008F5FA5CF8F929F92AF92BF92CF92DF9259
:100F8000EF92FF920F931F93CF93DF93D09147027D
:100F9000D13208F0D7C0182FC09146020E94020338
:100FA0006B017C0180918E0281116BC082E0809385
:100FB0008E0210936D028FEF80936C0210926B0281
:100FC000D0936A02A6E2B2E0E8E4F2E080E0D8134F
:100FD00091C01092690280916902CC0FC82BC09316
:100FE000690280916802813009F088C0109268021D
:100FF0000E9402036B017C01809169028093BB0017
:101000008091900290919102A0919202B0919302EE
:10101000892B8A2B8B2BA1F00E9402030091900256
:101020001091910220919202309193026C197D09E6
:101030008E099F09061717072807390708F442C0C9
:101040008091BC0083FDD8CF85EC8093BC000E94CA
:1010500002036B017C0180918E02823009F450C042
:1010600080916C028F3F09F46FC080916C028032D6
:1010700009F46CC080916C02803309F469C084E08B
:1010800026C08091900290919102A0919202B0911D
:101090009302892B8A2B8B2B09F484CF0E940203A5
:1010A0008090900290909102A0909202B090930252
:1010B0006C197D098E099F0986169706A806B90640
:1010C00008F070CF80918F020E94CA0685E01092CE
:1010D00025021092470210922402DF91CF911F91B6
:1010E0000F91FF90EF90DF90CF90BF90AF909F90C7
:1010F0008F9008959D9191938F5F69CF85EEA5CFD5
:101100008091900290919102A0919202B0919302ED
:10111000892B8A2B8B2B09F49ECF0E94020300910E
:1011200090021091910220919202309193026C19D9
:101130007D098E099F09061717072807390708F048
:101140008ACFC0CF81E0C3CF80E0C1CF82E0BFCFE4
:1011500083E0BDCF0895E091230280912202E81739
:1011600030F4F0E0E259FD4F808190E008958FEF78
:101170009FEF089590912302809122022FEF3FEF7D
:10118000981748F4E92FF0E0E259FD4F208130E054
:101190009F5F90932302C90108958091220290914C
:1011A0002302891B990B0895CF92DF92EF92FF9251
:1011B0000F931F93CF93DF937C01CB018A01209182
:1011C0002402222389F0EB016B01C40ED51ECC153D
:1011D000DD0569F06991D701ED91FC910190F081F5
:1011E000E02DC7010995F3CF642F0E948506C80141
:1011F000DF91CF911F910F91FF90EF90DF90CF90F3
:101200000895CF93DF931F92CDB7DEB76983209106
:1012100024022223F9F020914702203258F021E0E5
:1012200030E0FC013383228390E080E00F90DF9177
:10123000CF91089580912502E82FF0E0EA5DFD4FFF
:10124000998190838F5F809325028093470281E08C
:1012500090E0ECCF61E0CE0101960E948506F7CFC9
:1012600090E080E008950F931F93CF93DF938C015C
:10127000EB0180916D0390916E0321E02093240295
:1012800028E620934602109225021092470262E05F
:1012900070E00E947E0681E00E94BA0761E088E665
:1012A0000E94EB06109223028093220280916D032C
:1012B00090916E03DC01ED91FC910284F385E02DA9
:1012C000099521E0AC014074552786FF20E0F80124
:1012D0002083282F22952F70382F3F70452B79F0CF
:1012E00085FB992790F998832170832FFAE02F9F2F
:1012F000800D1124DF91CF911F910F9108952370DC
:10130000832F9AE0299F800D1124F4CF61E088E6B5
:101310000E94EB06109223028093220280916D03BB
:1013200090916E03DC01ED91FC910284F385E02D38
:101330000995982F92959F708F70BAE09B9F800DB2
:101340001124089580916D0390916E0321E0209304
:10135000240228E6209346021092250210924702AA
:1013600061E070E00E947E0681E00E94BA070C9462
:101370008609FC0101900020E9F73197AF01481B75
:10138000590BBC0184E992E00C94D4048F929F9293
:10139000AF92BF920F931F93CF93DF93CDB7DEB77A
:1013A000A1970FB6F894DEBF0FBECDBF19A2423091
:1013B00008F44AE08E010F5D1F4F842E912CB12C52
:1013C000A12CA50194010E940313E62FB901CA01C3
:1013D000EA30F4F4E05DD801EE938D01232B242B49
:1013E000252B79F790E080E0109719F0CD010E944D
:1013F000B909A1960FB6F894DEBF0FBECDBFDF913D
:10140000CF911F910F91BF90AF909F908F900895B3
:10141000E95CE1CFCF93DF93BC01990F880B990B67
:101420004AE00E94C609EC0180E391E00E94B909FC
:101430008C0F9D1FDF91CF910895CF93DF930E9472
:10144000B909EC0180E391E00E94B9098C0F9D1F5E
:10145000DF91CF91089585ED8093BC00809190023B
:1014600090919102A0919202B09193020796A11DD2
:10147000B11D23E0B695A795979587952A95D1F745
:101480002091BC0024FD03C010928E02089540916B
:101490009002509191026091920270919302452BBB
:1014A000462B472B69F30097A105B10541F02AE2CD
:1014B0002A95F1F700C00197A109B109E1CF809108
:1014C0008F020C94CA061F920F920FB60F9211242E
:1014D0002F933F938F939F93AF93BF9380911A0263
:1014E00090911B02A0911C02B0911D023091190233
:1014F00023E0230F2D3758F50196A11DB11D209330
:10150000190280931A0290931B02A0931C02B093BD
:101510001D0280911E0290911F02A0912002B091A5
:1015200021020196A11DB11D80931E0290931F02FE
:10153000A0932002B0932102BF91AF919F918F9110
:101540003F912F910F900FBE0F901F90189526E896
:10155000230F0296A11DB11DD2CF1F920F920FB67D
:101560000F9211242F933F934F935F936F937F9329
:101570008F939F93AF93BF93EF93FF9384E992E090
:101580000E945205FF91EF91BF91AF919F918F9172
:101590007F916F915F914F913F912F910F900FBE6F
:1015A0000F901F9018951F920F920FB60F92112453
:1015B0002F938F939F93EF93FF93E091A402F09169
:1015C000A5028081E091AA02F091AB0282FD1BC0CE
:1015D00090818091AD028F5F8F732091AE02821750
:1015E00041F0E091AD02F0E0EC56FD4F958F809315
:1015F000AD02FF91EF919F918F912F910F900FBEB0
:101600000F901F9018958081F4CF1F920F920FB604
:101610000F9211242F933F934F935F936F937F9378
:101620008F939F93AF93BF93EF93FF938091B900F4
:10163000887F803609F44AC0F0F5883209F4A7C0E3
:1016400018F5803109F49BC0B8F4882309F4F9C077
:10165000883009F494C0FF91EF91BF91AF919F91B1
:101660008F917F916F915F914F913F912F910F904B
:101670000FBE0F901F901895883109F488C08032F2
:1016800051F780936C0214C0803409F49DC040F47B
:101690008033B9F38833F9F680936C0285ECB0C0DF
:1016A000803509F485C0883509F496C0883499F6E8
:1016B0000E942B0AD0CF883909F48CC038F58837BE
:1016C00029F050F4883611F0803729F683E08093B2
:1016D0008E021092FD0157C0883809F47BC0803912
:1016E00019F0803809F0B7CF8091FD01803208F001
:1016F00071C0E091FD0181E08E0F8093FD0180912A
:10170000BB00F0E0E352FE4F80833DC0803B39F0E8
:10171000E0F4803A09F479C0883A09F09CCF84E07B
:1017200080938E021092DC011092DB01E0910002A6
:10173000F091010209958091DB0181110FC081E0D8
:101740008093DB011092BB0109C0803C09F4A6CF55
:10175000883C09F4A3CF883B09F07DCFE091DC0100
:1017600081E08E0F8093DC01F0E0E554FE4F808134
:101770008093BB009091DC018091DB0129C08091B6
:1017800069028093BB0085EC8093BC0064CF90918C
:101790006B0280916A02981758F5E0916B0281E024
:1017A0008E0F80936B02F0E0E85BFD4F8081E9CF04
:1017B000E0916B0281E08E0F80936B028091BB0001
:1017C000F0E0E85BFD4F808390916B0280916A02AC
:1017D0009817C8F285E8D8CFE0916B0281E08E0FB0
:1017E00080936B028091BB00F0E0E85BFD4F80834B
:1017F00080916D0281115CCF81E08093680284EA60
:101800008093BC0010928E0226CF85EC8093BC00A2
:1018100010928E028091FD01803230F4E091FD0142
:10182000F0E0E352FE4F10826091FD0170E0E09124
:10183000FE01F091FF018DED91E009951092FD01FF
:101840000ACF10926C0234CF109297021092960237
:1018500088EE93E0A0E0B0E0809398029093990224
:10186000A0939A02B0939B0220E131E0309395025D
:101870002093940225EC30E03093A1022093A00243
:1018800024EC30E03093A3022093A20220EC30E05D
:101890003093A5022093A40221EC30E03093A702FC
:1018A0002093A60222EC30E03093A9022093A802F4
:1018B00026EC30E03093AB022093AA021092AD02E6
:1018C0001092AE021092AF021092B0021092340346
:1018D000109233038093350390933603A09337031C
:1018E000B093380382E291E0909332038093310306
:1018F00081E393E090936E0380936D0310925E03F7
:1019000010925D03109254031092530310926903D6
:1019100010926A0310926B0310926C0380E098E0BF
:1019200090935A03809359038EE090E09093600364
:1019300080935F038FE090E0909362038093610354
:1019400080E190E0909364038093630381E190E0F1
:10195000909366038093650361E08EE00E94C60267
:1019600061E0809161030E94C60261E0809163039F
:101970000E94C60261E0809165030E94C602109237
:1019800068031092670384E090E090935C03809377
:101990005B0310923E031092450310924C03109289
:1019A0004D0310924E0310924F0381E080934B033E
:1019B000809348031092490392E090934A038093E6
:1019C0003D038CE690E090934203809341030E9494
:1019D00033169093470380934603009789F12CE6D2
:1019E000FC0111922A95E9F784E290E0909340037C
:1019F00080933F0386E090E09093440380934303F9
:101A000080913E03882341F061E086E00E94C60297
:101A100060E086E00E948801E2EDF0E0E491F0E011
:101A2000EE0FFF1FEE53FF4F85919491909351035A
:101A300080935003E4EBF0E0E491E09352030895C7
:101A400010924203109241031092400310923F0300
:101A5000D1CFCF93DF9300D000D0CDB7DEB778944D
:101A600084B5826084BD84B5816084BD85B58260A3
:101A700085BD85B5816085BD80916E008160809354
:101A80006E001092810080918100826080938100BD
:101A900080918100816080938100809180008160CD
:101AA000809380008091B10084608093B100809128
:101AB000B00081608093B00080917A008460809350
:101AC0007A0080917A00826080937A0080917A0017
:101AD000816080937A0080917A00806880937A0098
:101AE0001092C100E091A402F091A50282E08083EF
:101AF000E091A002F091A1021082E091A202F09187
:101B0000A30280E180831092AC02E091A802F091E0
:101B1000A90286E08083E091A602F091A70280816D
:101B200080618083E091A602F091A70280818860A5
:101B30008083E091A602F091A70280818068808373
:101B4000E091A602F091A70280818F7D808383E3DC
:101B500091E00E941D0A109223021092220210921C
:101B60002502109247020E94AC0682ED94E0909309
:101B700001028093000283ED94E09093FF01809333
:101B8000FE01809143039091440397FD2EC061E0D4
:101B90000E94C60260E0809143030E94880181E0B8
:101BA00080933E03609145032091460330914703A3
:101BB000603421F16150E1F070E08FEF9FE30E940B
:101BC000DB12F9014091410350914203CF01821B86
:101BD000930B8417950778F44081469FC001479F77
:101BE000900D112490833196EDCF10923E03DACF01
:101BF00070E060E0E6CF80E48093450340914103CC
:101C00005091420370E060E0809146039091470359
:101C10000E9458170E94CC032091590330915A0317
:101C2000032E000C440B550B60E077E883E993E04A
:101C30000E942513CA01B9012BE030E040E050E0DA
:101C40000E94251320935503309356034093570366
:101C50005093580362E082E00E94C60281E591E061
:101C60000E941D0A30E020E050E040E06AE07AE0A7
:101C70008AE090E00E940D010E94CC0310921502B0
:101C80001092160210921702109218020E9464011C
:101C9000892B69F400E018E00E946401019739F093
:101CA00081E090E00E94270301501109A9F700E0AC
:101CB00018E00E946401892B39F081E090E00E94D5
:101CC000270301501109A9F710E000E00E94640108
:101CD000019779F081E090E00E9427030F5F1F4F8A
:101CE00060E070E0CB010E949F04011520E1120723
:101CF00069F780E691E00E94B909C8010E940A0ACA
:101D0000E12CB8E0FB2E0E946401892B69F08FEF73
:101D10009FEF0E94270360E070E0CB010E949F04C8
:101D200081E0E81AF10879F7F12CE12C0E946401B6
:101D3000019781F08FEF9FEF0E9427039FEFE91A31
:101D4000F90A60E070E0CB010E949F04E11420E1F9
:101D5000F20661F78CE691E00E94B909C7010E9482
:101D60000A0A0E0D1F1D6801D594C79488E791E0FB
:101D70000E94B909C6010E940A0AF12CE12CCE1476
:101D8000DF0409F0FAC015950795159507950B5FC7
:101D90001F4FF12CE12C8FEF9FEF0E94270360E093
:101DA00070E0CB010E949F049FEFE91AF90A0E151B
:101DB0001F058CF71092150210921602109217024E
:101DC0001092180240E05FEF60E070E090E080E089
:101DD0000E949C000E94CC0360ED77E080E090E0E0
:101DE0000E949F041A8219820E94A209E82EF12CF7
:101DF000BE016F5F7F4FCE0102960E943309082F0C
:101E000010E0F0920301E0920201109301010093AF
:101E10000001409141035091420370E060E08091E5
:101E20004603909147030E945817C0900202D09039
:101E3000030248E06FEFC6010E94E10528E130E0AF
:101E400050E040E00E940D014FE76FEFC60190584F
:101E50000E94E1052CE030E048E150E00E940D01D5
:101E6000C8016CE070E00E94EF126C012FEFC21A03
:101E7000D20A01E010E00C151D054CF44FEF5FEFA6
:101E80006FEF70E0C801880F991F0E949C000F5FE0
:101E90001F4F0C30110579F7CA94CD2841F44FEF4C
:101EA0005FEF6FEF70E090E080E00E949C000E9486
:101EB000CC03B701FF0C880B990B0E947C1429E816
:101EC00038E848E052E40E9431154B015C01209152
:101ED00015023091160240911702509118020E948B
:101EE00060136B017C0120E030E0A9010E942C15F9
:101EF00018160CF04FC020E030E040E05FE3C7016F
:101F0000B6010E942C1518160CF44EC087E891E01B
:101F10000E941D0A40E0242E40E0342E80916D0383
:101F200090916E0321E02093240228E6209346023C
:101F3000109225021092470270E060E00E947E0637
:101F400081E00E94BA070E94860990E02091040176
:101F50003091050182179307B9F562E370E080E0E4
:101F600090E00E949F0421143104C1F20E943E05BA
:101F70008823A1F20E940000D1CF81E090E00E946E
:101F8000270360E070E0CB010E949F048FEFE81A06
:101F9000F80AF5CE20E030E040E05FEBC701B60183
:101FA0000E94CD1387FFB2CFC701B6010E9444142F
:101FB000CB010E9427038092150290921602A092F4
:101FC0001702B0921802A2CF9093050180930401EA
:101FD0001A821982BE016F5F7F4FCE0102960E9466
:101FE0003309A82EB12C0E94A209882E912C809131
:101FF0000201909103018816990609F447C0B401C3
:10200000092C000C880B990B0E947C1429E838E8F5
:1020100048E052E40E9431152B013C012091150249
:102020003091160240911702509118020E946013DD
:102030006B017C0120E030E040E854E40E942C1564
:1020400018160CF0CBC020E030E040E055E4C701AA
:10205000B6010E9460136B017C0120E030E0A90111
:10206000C701B6010E942C1518160CF0CAC020E05A
:1020700030E040E05FE3C701B6010E942C1518165E
:102080000CF4C9C0909203018092020120910001DA
:1020900030910101C5016CE070E00E94EF129C8359
:1020A0008B83A216B30669F12F3F3F4F51F1CB80CE
:1020B000DC80CC0CDD1C03E010E04FEF5FEF6FEF36
:1020C00070E0C6010E949C000E94CC0368EC70E0A6
:1020D00080E090E00E949F0440E050E0BA01C60119
:1020E0000E949C000E94CC0368EC70E080E090E0CD
:1020F0000E949F040150110901F7B0920101A092C2
:102100000001409141035091420370E060E08091F2
:102110004603909147030E9458178FB7F894409157
:102120001A0250911B0260911C0270911D028FBF18
:1021300080911002882309F48CC12FB7F894609124
:102140001A0270911B0280911C0290911D022FBFF8
:102150000091110210911202209113023091140289
:10216000601B710B820B930B0E947A1420E030E409
:102170004CE955E40E94D2134B015C0120E030E0B1
:1021800040E85FE30E942C1587FD91C01092100279
:10219000EB80FC809FEFE91AF90A01E010E00E15D0
:1021A0001F054CF44FEF5FEF6FEF70E0C801880F31
:1021B000991F0E949C000F5F1F4F0C30110579F78B
:1021C000EA94EF2841F44FEF5FEF6FEF70E090E09B
:1021D00080E00E949C000E94CC03C5CE20E030E04D
:1021E00040E854ECC701B6010E94CD1387FF35CFFC
:1021F00020E030E040E055E4C701B6010E946113E1
:102200002ACF20E030E040E05FEBC701B6010E943A
:10221000CD1387FF37CFC701B6010E944414CB010D
:102220000E94270320E030E040E055E4C301B20102
:102230000E942C1587FF2AC0409215025092160268
:102240006092170270921802C0901502D090160288
:10225000E0901702F090180220E030E0A901C701D9
:10226000B6010E94CD1387FF0DCF20E030E040E0A3
:1022700055E4C701B6010E94611360931502709383
:1022800016028093170290931802FCCE20E030E0F3
:1022900040E055E4C301B2010E946013609315024F
:1022A000709316028093170290931802CDCF2BEDF6
:1022B0003FE049E450E4C501B4010E9431150E9499
:1022C0009E1520E030E048E453E40E9431152B01D4
:1022D0003C01D12CC12C20E030E040EA51E4C301A4
:1022E000B2010E9461130E944B14462F6D3D88F18C
:1022F0004CED64EB80910202909103020E94E10593
:10230000AB01BC01C6010E949C009FEFC91AD90A0B
:1023100024E2C216D104F9F685E991E00E94B909D8
:1023200020E030E048EC52E4C501B4010E943115D0
:102330004B015C01AC019B010E94A615882369F04A
:102340008BEA91E00E94B90987EB91E00E941D0A97
:102350001FCF643170F644E1CCCF2FEF3FEF4FE752
:102360005FE7C501B4010E94A61581110DC02FEFD2
:102370003FEF4FE75FE7C501B4010E94CD13181688
:102380001CF48FEA91E0DECF2FEF3FEF4FE75FE4E1
:10239000C501B4010E942C1518161CF483EB91E0C2
:1023A000D1CF2FEF3FEF4FE75FECC501B4010E94A3
:1023B000CD1387FDF3CF2AE037ED43EA5BE3C50198
:1023C000B4010E9461132B013C010E944B144B018C
:1023D0005C010E947A149B01AC01C301B2010E940E
:1023E00060132B013C014AE0C501B4010E94C609FB
:1023F0006EE284E992E00E94740520E030E040E261
:1024000051E4C301B2010E9431152B013C010E942D
:102410004B144B01B12CA12C4AE0C501B4010E9420
:10242000C609C501B4010E947A149B01AC01C30125
:10243000B2010E94601320E030E040E251E40E94CB
:1024400031150E944B1490E080E04AE00E94C609DA
:102450007BCF81E090E090930702809306022FB734
:10246000F89460911A0270911B0280911C02909165
:102470001D022FBF0E947A1420E030E04AE754E4A6
:102480000E94D2134B015C0120E030E040E05FE3AA
:102490000E9431150E949E156B017C012AE939E9E1
:1024A00049E95EE3C501B4010E94311520E030E046
:1024B00040EC5FE30E9461130E949E152B013C01DA
:1024C0008090020290900302A0900402B090050256
:1024D00020E030E040E05FE3C701B6010E94311523
:1024E00020E030E040E05FE30E94611320E030E054
:1024F00040E752E40E94311520E030E040EA51E428
:102500000E9461130E944B14462F6FEFC4010E947A
:10251000E10528E130E050E040E00E940D0120E0BC
:1025200030E040E05FE3C301B2010E94311520E0DA
:1025300030E040E05FE30E94611320E030E048ECCF
:1025400052E40E94311520E030E040E252E40E9463
:1025500061130E944B14462FC40190586FEF0E94E4
:10256000E1052CE030E048E150E00E940D01C5019A
:10257000B4017E5F8F4F9F4F20E030E045E050E098
:102580000E9403136093020270930302809304027B
:1025900090930502FDCD80914603909147030E94E0
:1025A000CF16809143039091440397FD03C060E0F0
:1025B0000C94C6020895AA1BBB1B51E107C0AA1FB9
:1025C000BB1FA617B70710F0A61BB70B881F991FD4
:1025D0005A95A9F780959095BC01CD01089597FB78
:1025E000072E16F4009407D077FD09D00E94DB1265
:1025F00007FC05D03EF4909581959F4F0895709506
:1026000061957F4F0895A1E21A2EAA1BBB1BFD0105
:102610000DC0AA1FBB1FEE1FFF1FA217B307E407C1
:10262000F50720F0A21BB30BE40BF50B661F771F19
:10263000881F991F1A9469F76095709580959095F9
:102640009B01AC01BD01CF010895052E97FB1EF43F
:1026500000940E943C1357FD07D00E94031307FC0F
:1026600003D04EF40C943C13509540953095219531
:102670003F4F4F4F5F4F08959095809570956195AE
:102680007F4F8F4F9F4F08950E944B13B7FF0895C0
:10269000821B930B0895A29FB001B39FC001A39F1B
:1026A000700D811D1124911DB29F700D811D11248B
:1026B000911D0895EE0FFF1F0590F491E02D0994F0
:1026C0005058BB27AA270E9478130C94F2140E943A
:1026D000E41438F00E94EB1420F039F49F3F19F411
:1026E00026F40C94E1140EF4E095E7FB0C94DB1453
:1026F000E92F0E94031558F3BA176207730784077E
:10270000950720F079F4A6F50C9425150EF4E095C4
:102710000B2EBA2FA02D0B01B90190010C01CA019B
:10272000A0011124FF27591B99F0593F50F4503E46
:1027300068F11A16F040A22F232F342F4427585F38
:10274000F3CF469537952795A795F0405395C9F750
:102750007EF41F16BA0B620B730B840BBAF0915008
:10276000A1F0FF0FBB1F661F771F881FC2F70EC0A7
:10277000BA0F621F731F841F48F48795779567957A
:10278000B795F7959E3F08F0B0CF9395880F08F066
:102790009927EE0F9795879508950E94B71408F42E
:1027A00081E008950E94E6130C94F2140E94EB1449
:1027B00058F00E94E41440F029F45F3F29F00C9493
:1027C000DB1451110C9426150C94E1140E9403158E
:1027D00068F39923B1F3552391F3951B550BBB2750
:1027E000AA2762177307840738F09F5F5F4F220F95
:1027F000331F441FAA1FA9F335D00E2E3AF0E0E88C
:1028000032D091505040E695001CCAF72BD0FE2FD5
:1028100029D0660F771F881FBB1F26173707480769
:10282000AB07B0E809F0BB0B802DBF01FF27935821
:102830005F4F3AF09E3F510578F00C94DB140C94F6
:1028400026155F3FE4F3983ED4F386957795679518
:10285000B795F7959F5FC9F7880F911D9695879556
:1028600097F90895E1E0660F771F881FBB1F621775
:1028700073078407BA0720F0621B730B840BBA0B33
:10288000EE1F88F7E09508950E944B146894B111EB
:102890000C94261508950E940B1588F09F5798F008
:1028A000B92F9927B751B0F0E1F0660F771F881F55
:1028B000991F1AF0BA95C9F714C0B13091F00E946F
:1028C0002515B1E008950C942515672F782F8827DA
:1028D000B85F39F0B93FCCF3869577956795B39596
:1028E000D9F73EF490958095709561957F4F8F4F05
:1028F0009F4F0895E89409C097FB3EF4909580950A
:10290000709561957F4F8F4F9F4F9923A9F0F92FB5
:1029100096E9BB279395F695879577956795B79533
:10292000F111F8CFFAF4BB0F11F460FF1BC06F5F19
:102930007F4F8F4F9F4F16C0882311F096E911C02B
:10294000772321F09EE8872F762F05C0662371F04C
:1029500096E8862F70E060E02AF09A95660F771F60
:10296000881FDAF7880F9695879597F90895990F3C
:102970000008550FAA0BE0E8FEEF16161706E80749
:10298000F907C0F012161306E407F50798F0621B6A
:10299000730B840B950B39F40A2661F0232B242B3F
:1029A000252B21F408950A2609F4A140A6958FEF5E
:1029B000811D811D089597F99F6780E870E060E0B0
:1029C00008959FEF80EC089500240A9416161706C8
:1029D00018060906089500240A9412161306140610
:1029E00005060895092E0394000C11F4882352F073
:1029F000BB0F40F4BF2B11F460FF04C06F5F7F4F2B
:102A00008F4F9F4F089557FD9058440F551F59F011
:102A10005F3F71F04795880F97FB991F61F09F3FCB
:102A200079F087950895121613061406551FF2CFF4
:102A30004695F1DF08C0161617061806991FF1CF44
:102A400086957105610508940895E894BB2766276B
:102A50007727CB0197F908950E94B71408F48FEFF8
:102A600008950E9444150C94F2140E94E41438F066
:102A70000E94EB1420F0952311F00C94DB140C94BD
:102A8000E11411240C9426150E94031570F3959FF0
:102A9000C1F3950F50E0551F629FF001729FBB2755
:102AA000F00DB11D639FAA27F00DB11DAA1F649FF1
:102AB0006627B00DA11D661F829F2227B00DA11DA4
:102AC000621F739FB00DA11D621F839FA00D611D2A
:102AD000221F749F3327A00D611D231F849F600D4B
:102AE000211D822F762F6A2F11249F5750409AF074
:102AF000F1F088234AF0EE0FFF1FBB1F661F771F00
:102B0000881F91505040A9F79E3F510580F00C94CA
:102B1000DB140C9426155F3FE4F3983ED4F38695BE
:102B200077956795B795F795E7959F5FC1F7FE2B6A
:102B3000880F911D9695879597F908959F930E9408
:102B4000AD150F9007FCEE5F0C94D6150E94B714DC
:102B5000880B990B08950C94E1140E940B15D8F37F
:102B6000E894E0E0BB279F57F0F02AED3FE049EC06
:102B700006C0EE0FBB0F661F771F881F28F0B23A02
:102B800062077307840728F0B25A620B730B840B39
:102B9000E3959A9572F7803830F49A95BB0F661FCB
:102BA000771F881FD2F790480C94EC15EF93E0FF45
:102BB00007C0A2EA2AED3FE049EC5FEB0E947813E0
:102BC0000E94F2140F90039401FC9058E8E6F0E0A4
:102BD0000C94F8159F3F31F0915020F4879577952C
:102BE0006795B795880F911D9695879597F90895E4
:102BF0009F938F937F936F93FF93EF939B01AC0110
:102C00000E943115EF91FF910E940C162F913F9178
:102C10004F915F910C943115DF93CF931F930F93D6
:102C2000FF92EF92DF927B018C01689406C0DA2E4E
:102C3000EF010E944415FE01E894A591259135917C
:102C400045915591A6F3EF010E947813FE0197017B
:102C5000A801DA9469F7DF90EF90FF900F911F9130
:102C6000CF91DF9108950F931F93CF93DF9382301D
:102C7000910510F482E090E0E0917103F09172030D
:102C800030E020E0B0E0A0E0309799F42115310564
:102C900009F44AC0281B390B24303105D8F58A8144
:102CA0009B816115710589F1FB0193838283FE018C
:102CB00011C0408151810281138148175907E0F00A
:102CC0004817590799F4109761F012960C931297D0
:102CD00013961C933296CF01DF91CF911F910F91E4
:102CE00008950093710310937203F4CF21153105F9
:102CF00051F04217530738F0A901DB019A01BD01D9
:102D0000DF01F801C1CFEF01F9CF909372038093F7
:102D10007103CDCFFE01E20FF31F819391932250F7
:102D2000310939832883D7CF20916F033091700305
:102D3000232B41F420910801309109013093700355
:102D400020936F0320910601309107012115310571
:102D500041F42DB73EB740910A0150910B01241B5D
:102D6000350BE0916F03F0917003E217F307A0F4C5
:102D70002E1B3F0B2817390778F0AC014E5F5F4FD1
:102D80002417350748F04E0F5F1F50937003409390
:102D90006F03819391939FCFF0E0E0E09CCFCF93BE
:102DA000DF930097E9F0FC01329713821282A09121
:102DB0007103B0917203ED0130E020E01097A1F4AF
:102DC00020813181820F931F20916F033091700316
:102DD0002817390709F061C0F0937003E0936F037F
:102DE000DF91CF910895EA01CE17DF07E8F54A8118
:102DF0005B819E0141155105B1F7E901FB83EA832F
:102E000049915991C40FD51FEC17FD0761F48081DA
:102E100091810296840F951FE901998388838281AD
:102E200093819B838A83F0E0E0E012968D919C91E0
:102E300013970097B9F52D913C911197CD0102960A
:102E4000820F931F20916F03309170032817390769
:102E500039F6309751F51092720310927103B093C6
:102E60007003A0936F03BCCFD383C2834081518191
:102E7000840F951FC817D90761F44E5F5F4F888193
:102E80009981480F591F518340838A819B81938385
:102E900082832115310509F0B0CFF0937203E093DE
:102EA00071039ECFFD01DC01C0CF13821282D7CF08
:102EB000DC0101C06D9341505040E0F7089510E0EF
:102EC000C1E7D0E004C0FE010E945A132196C23728
:082ED000D107C9F7F894FFCF08
:102ED800FFFFFFFFFFFF00007303800000000000FA
:102EE8007405D4040105C105320510052405000048
:102EF80000000109D4083009AA08CD08BA08AB08AF
:102F08000D0A003D3D3D2048796272696420436C9A
:102F18006F636B205374617274696E67203D3D3D29
:102F28000043616C6962726174696E672E2E2E00AF
:102F38004677642053746570733A200042616B20B1
:102F480053746570733A200043656E74657220533C
:102F5800746570733A20003D3D3D20526561647987
:102F6800203D3D3D005175617274657220686F7532
:102F780072206566666563743A20006E616E00694A
:0A2F88006E66006F766600250000FB
:00000001FF
