:100000000C9463000C948B000C948B000C948B006C
:100010000C948B000C948B000C948B000C948B0034
:100020000C948B000C948B000C948B000C948B0024
:100030000C948B000C948B000C948B000C948B0014
:100040000C947F090C948B000C94EF090C94C90953
:100050000C948B000C948B000C948B000C948B00F4
:100060000C94210A0C948B00000000002300260051
:10007000290000000000240027002A0000000008DA
:10008000000201000003040700000000000000005F
:10009000010204081020408001020408102001021F
:1000A0000408102000000000250028002B00040494
:1000B0000404040404040202020202020303030310
:1000C0000303400BAC0F11241FBECFEFD8E0DEBFFF
:1000D000CDBF11E0A0E0B1E0ECE8F6E202C005908F
:1000E0000D92AC36B107D9F723E0ACE6B1E001C020
:1000F0001D92A631B207E1F710E0C2E6D0E004C0DD
:100100002197FE010E943B10C136D107C9F70E941A
:10011000450C0C9439130C9400008F929F92AF926F
:10012000BF92CF92DF92EF92FF92CF932091E202A3
:100130003091E30282179307E8F54B01AA24BB2410
:10014000C82DC52ED62EE72EFF24BC2DA42F20911E
:10015000E802222361F0829E40011124C92D2C9DCA
:1001600060011124BD2D249FF0011124AF2FE091D7
:10017000EE02E090E902F090EA023091EB02E31324
:1001800023C09C01220F331F820F931F8E0D9F1DD2
:10019000E091EB02E80FF92FF11DC083E091EC0232
:1001A000E80FF92FF11DB0832091ED02820F911D10
:1001B000FC01A083CF91FF90EF90DF90CF90BF9094
:1001C000AF909F908F900895880F991F880F991F67
:1001D0008E0D9F1D472F552766277727222349F02D
:1001E00030E0249F7001259FF00C349FF00C112407
:1001F0004F2DE80FF92FF11D4083CACFCF92DF9228
:10020000EF92FF92E62F9C01AAEFB5E00E942C101E
:10021000DC01CB019058AF4FBF4FCD01BB2797FDFD
:10022000B095AB2F8E3F41E0940798F5782F8F3F24
:10023000910508F44DC04EEF481B50E07FEFF0E011
:10024000319630E0272FDF010E9425106B017C01E1
:10025000CC24EE24FF24252F0E942510672F782F11
:10026000892F9927C62AD72AE82AF92A242F0E94FB
:100270002510982F872F762F6627662777279927AF
:100280006C297D298E299F29FF90EF90DF90CF90D8
:1002900008958C3F43E0940760F452E0580F7FEFDD
:1002A0008D3F42E0940718F07CEF781B5FEF40E051
:1002B000C6CF8A3F45E0940771F05AEF581B8B3F39
:1002C00044E0940748F444E0480F5FEF70E0B7CF94
:1002D00050E04FEFB4CF50E070E0FBCF833081F0BF
:1002E00028F4813099F08230A9F008958730A9F080
:1002F0008830C9F08430B1F4809180008F7D03C0D4
:10030000809180008F7780938000089584B58F77E7
:1003100084BD089584B58F7DFBCF8091B0008F7729
:100320008093B00008958091B0008F7DF9CF1F9326
:10033000CF93DF93282F30E0F901E458FF4F8491E9
:10034000F901E057FF4FD491F901E255FF4FC491F5
:10035000CC23A9F0162F81110E946E01EC2FF0E042
:10036000EE0FFF1FEC55FF4FA591B4918FB7F89496
:10037000EC91111108C0D095DE23DC938FBFDF9183
:10038000CF911F910895DE2BF8CFCF93DF93EC012F
:100390008091FE029091FF02029749F4C130D1058D
:1003A00009F43BC06CF560E0209709F437C08091F8
:1003B000FE029091FF02049749F4C130D10509F47F
:1003C0005CC00CF037C0209709F442C08091FE0257
:1003D0009091FF02059709F0E5C0CA30D10508F0F9
:1003E000E1C0FE01EA50FE4F0C943B105502610241
:1003F00072028802A302A502AC02B802C902D002AE
:10040000C230D105A9F060E0C330D10581F68091FA
:1004100002030E94970160E006C061E08091020340
:100420000E94970161E0809104030E949701BFCF71
:1004300061E0EDCFC230D10539F1C330D10509F00B
:10044000C5CF61E0809102030E94970160E022C065
:1004500061E0809102030E94970160E080910403B3
:100460000E94970161E0809106030E94970160E07D
:10047000809108030E949701A9CF60E08091020358
:100480000E94970161E0EACF60E0809102030E9440
:10049000970161E0809104030E94970160E08091E0
:1004A00006030E94970161E0E3CF60E080910203C0
:1004B0000E94970161E0809104030E94970161E02E
:1004C0000BC060E0809102030E94970161E080917F
:1004D00004030E94970160E0809106030E94970147
:1004E00060E010C060E0809102030E94970161E02B
:1004F000809104030E94970160E0809106030E94AE
:10050000970161E0809108030E94970161E015C0A6
:1005100060E0809102030E94970161E080910403F2
:100520000E94970160E0809106030E94970161E0BC
:10053000809108030E94970160E080910A03DF9197
:10054000CF910C94970161E0E4CF61E080910203C8
:100550000E94970160E0E2CF61E0809102030E9477
:10056000970160E0809104030E94970161E0DBCF76
:1005700061E0809102030E94970160E08091040392
:100580000E94970161E0809106030E94970160E05C
:10059000CFCF61E0809102030E94970160E08BCF92
:1005A00060E0F8CFDF91CF910895CF93DF9390E093
:1005B000FC01E057FF4F249182559F4FFC0184912D
:1005C0008823C9F090E0880F991FFC01EE58FF4F77
:1005D000A591B491FC01EC55FF4FC591D4916111E7
:1005E0000DC09FB7F8948C91209582238C938881BD
:1005F000282328839FBFDF91CF910895623051F463
:100600009FB7F8943C91822F809583238C93E88147
:100610002E2BEFCF8FB7F894EC912E2B2C938FBF0E
:10062000EACF3FB7F8948091C1019091C201A091A7
:10063000C301B091C40126B5A89B05C02F3F19F096
:100640000196A11DB11D3FBFBA2FA92F982F882752
:10065000BC01CD01620F711D811D911D42E0660F2D
:10066000771F881F991F4A95D1F708954F925F927F
:100670006F927F928F929F92AF92BF92EF92FF9272
:100680000F931F93CF93DF93EC0197FF04C0CC2708
:10069000DD27C81BD90B181619060CF061C081E0C4
:1006A00090E09093F7028093F60204E010E08AE075
:1006B000E82EF12C209709F46FC00E94110380905E
:1006C0000C0390900D03A0900E03B0900F032B012C
:1006D0003C01481859086A087B088090F8029090FD
:1006E000F902A090FA02B090FB02481459046A047F
:1006F0007B0400F360930C0370930D0380930E034F
:1007000090930F0380910003909101032091F602D2
:100710003091F7022130310559F50196909301038C
:10072000809300032091FC023091FD028217930711
:1007300021F410920103109200032197809100038D
:10074000909101032091FE023091FF02B701253004
:10075000310509F0B8010E94D00F0E94C501AACF4F
:10076000892B09F4A2CF1092F7021092F6029DCFC6
:10077000892B41F48091FC029091FD02909301033A
:10078000809300038091000390910103019790935F
:10079000010380930003D1CFDF91CF911F910F917F
:1007A000FF90EF90BF90AF909F908F907F906F9051
:1007B0005F904F9008950F931F93CF93DF93CDB722
:1007C000DEB729970FB6F894DEBF0FBECDBF80917C
:1007D000E9029091EA02892B09F47CC00E9411037E
:1007E0000091EF021091F0022091F1023091F2029B
:1007F000601771078207930740F46093EF027093CC
:10080000F0028093F1029093F2020091EF021091B6
:10081000F0022091F1023091F202601B710B820B09
:10082000930B6C32714081059105C0F2F894809170
:10083000E4029091E5029A838983E091E902F091C4
:10084000EA02DF011196808189879091E002E091B0
:10085000F302F091F4028091F502992309F445C066
:100860009081982B98879081809589238F838F81A1
:100870008C8388E08B8358856F8149853B812C81EF
:1008800089819A81508347FD252F3A952083262F11
:1008900039F0441F00C000006083000000C0F2CFA8
:1008A00038E04D9160830000019761F7F093F40206
:1008B000E093F30249873B832C839A83898378945E
:1008C0000E9411036093EF027093F0028093F10293
:1008D0009093F20229960FB6F894DEBF0FBECDBFFB
:1008E000DF91CF911F910F9108959081982B988758
:1008F0009081809589238F838F818E8388E08D837B
:1009000058856F8149853D812E8189819A815083E7
:1009100047FD252F00C000C0208300C000C000C0DC
:1009200000C000C060830000262F3A9541F0441FAC
:10093000000000C000C000C000C000C0E8CF38E028
:100940004D9100C0608300C0019709F7F093F40255
:10095000E093F30249873D832E83AFCF8F929F921E
:10096000AF92BF92CF92DF92EF92FF924B015C0168
:100970000E9411036B017C010E9411036C197D0917
:100980008E099F09683E734081059105A8F321E017
:10099000821A9108A108B10888EEC80E83E0D81E1B
:1009A000E11CF11C81149104A104B10429F7FF900A
:1009B000EF90DF90CF90BF90AF909F908F90089571
:1009C00008950895AF92BF92CF92DF92EF92FF9277
:1009D0000F931F93CF93DF936C017B018B01040F67
:1009E000151FEB015E01AE18BF08C017D10759F003
:1009F0006991D601ED91FC910190F081E02DC60145
:100A00000995892B79F7C501DF91CF911F910F913E
:100A1000FF90EF90DF90CF90BF90AF900895FC01D2
:100A2000538D448D252F30E0842F90E0821B930B53
:100A3000541710F0CF96089501970895FC01918DF9
:100A4000828D981761F0A28DAE0FBF2FB11D5D96FC
:100A50008C91928D9F5F9F73928F90E008958FEF9E
:100A60009FEF0895FC01918D828D981731F0828D52
:100A7000E80FF11D858D90E008958FEF9FEF0895A9
:100A8000FC01918D228D892F90E0805C9F4F821B0D
:100A900091098F739927089587E392E00E9440059A
:100AA00021E0892B09F420E0822F089580E090E076
:100AB000892B29F00E944C0581110C9400000895A7
:100AC000FC01A48DA80FB92FB11DA35ABF4F2C91C3
:100AD000848D90E001968F739927848FA689B789BA
:100AE0002C93A089B1898C91837080648C93938DB1
:100AF000848D981306C00288F389E02D80818F7D54
:100B000080830895EF92FF920F931F93CF93DF930B
:100B1000EC0181E0888F9B8D8C8D98131AC0E88939
:100B2000F989808185FF15C09FB7F894EE89FF8908
:100B30006083E889F98980818370806480839FBFA6
:100B400081E090E0DF91CF911F910F91FF90EF90A6
:100B50000895F62E0B8D10E00F5F1F4F0F731127B6
:100B6000E02E8C8D8E110CC00FB607FCFACFE889F1
:100B7000F989808185FFF5CFCE010E946005F1CF14
:100B8000EB8DEC0FFD2FF11DE35AFF4FF0829FB765
:100B9000F8940B8FEA89FB8980818062CFCFCF9355
:100BA000DF93EC01888D8823B9F0AA89BB89E88995
:100BB000F9898C9185FD03C0808186FD0DC00FB63B
:100BC00007FCF7CF8C9185FFF2CF808185FFEDCFB9
:100BD000CE010E946005E9CFDF91CF910895DC013D
:100BE000ED91FC910190F081E02D099420918D010F
:100BF000260F3327331F21323105ECF420913102C7
:100C0000FC0190E080E0243069F082E00895A0913A
:100C10008D012191AC0143595E4FA40FB52FB11D39
:100C20002C930196861798F380918D01680F60933D
:100C30008D0180E0089581E008951092310281E0F5
:100C40008093100210920B0261E082E10E949701F2
:100C500061E083E10E949701E9EBF0E080818E7F03
:100C6000808380818D7F808388E48093B80085E4D1
:100C70008093BC000895CF93DF9391E090936C0133
:100C80008823B9F0C091B800D091BA008091BC001F
:100C90008A7B8093BC0060E082E10E94970160E063
:100CA00083E10E9497010E941D06D093BA00C09371
:100CB000B800DF91CF910895CF92DF92EF92FF922B
:100CC0000F931F93CF93DF93D82FC62F613208F075
:100CD00098C00E9411036B017C0180913102811147
:100CE0006BC081E080933102809310029FEF90935C
:100CF0000F0210920E029C0F90930D0280930C0233
:100D000080910C02DD0FD82BD0930C0280910B0246
:100D1000813009F078C010920B020E9411036B0120
:100D20007C0180910C028093BB00809133029091F2
:100D30003402A0913502B0913602892B8A2B8B2B7D
:100D4000A1F00E941103009133021091340220910E
:100D50003502309136026C197D098E099F090617FC
:100D600017072807390708F448C08091BC0083FDA5
:100D7000D8CF85EC8093BC000E9411036B017C01ED
:100D800080913102813009F440C080910E028C17AD
:100D900010F4C0910E02EBEEF1E0A1E1B2E080E0D0
:100DA0008C1355C08C2FDF91CF911F910F91FF9025
:100DB000EF90DF90CF9008958091330290913402AC
:100DC000A0913502B0913602892B8A2B8B2B09F426
:100DD00084CF0E94110300913302109134022091BC
:100DE0003502309136026C197D098E099F0906176C
:100DF00017072807390708F070CF809132020E9448
:100E00003B06C0E0CFCF85EEB5CF80913302909105
:100E10003402A0913502B0913602892B8A2B8B2B9C
:100E200009F4AECF0E9411030091330210913402F5
:100E300020913502309136026C197D098E099F0987
:100E4000061717072807390708F09ACFD6CF9191D0
:100E50009D938F5FA5CF8F929F92AF92BF92CF92BB
:100E6000DF92EF92FF920F931F93CF93DF93D09176
:100E7000EA01D13208F0D7C0182FC091E9010E94D1
:100E800011036B017C018091310281116BC082E002
:100E900080933102109310028FEF80930F02109213
:100EA0000E02D0930D02A9ECB1E0EBEEF1E080E090
:100EB000D81391C010920C0280910C02CC0FC82B59
:100EC000C0930C0280910B02813009F088C010920F
:100ED0000B020E9411036B017C0180910C02809334
:100EE000BB008091330290913402A0913502B09101
:100EF0003602892B8A2B8B2BA1F00E9411030091C3
:100F000033021091340220913502309136026C196F
:100F10007D098E099F09061717072807390708F466
:100F200042C08091BC0083FDD8CF85EC8093BC008B
:100F30000E9411036B017C0180913102823009F41F
:100F400050C080910F028F3F09F46FC080910F0253
:100F5000803209F46CC080910F02803309F469C0BB
:100F600084E026C08091330290913402A091350232
:100F7000B0913602892B8A2B8B2B09F484CF0E94E7
:100F800011038090330290903402A0903502B0900B
:100F900036026C197D098E099F0986169706A806E8
:100FA000B90608F070CF809132020E943B0685E0BE
:100FB0001092C8011092EA011092C701DF91CF91FF
:100FC0001F910F91FF90EF90DF90CF90BF90AF9067
:100FD0009F908F9008959D9191938F5F69CF85EE3B
:100FE000A5CF8091330290913402A0913502B09147
:100FF0003602892B8A2B8B2B09F49ECF0E9411037A
:101000000091330210913402209135023091360262
:101010006C197D098E099F090617170728073907DC
:1010200008F08ACFC0CF81E0C3CF80E0C1CF82E09B
:10103000BFCF83E0BDCF0895E091C6018091C50187
:10104000E81730F4F0E0EF5EFD4F808190E0089506
:101050008FEF9FEF08959091C6018091C5012FEF0A
:101060003FEF981748F4E92FF0E0EF5EFD4F208145
:1010700030E09F5F9093C601C90108958091C5013A
:101080009091C601891B990B0895CF92DF92EF9240
:10109000FF920F931F93CF93DF937C01CB018A01C3
:1010A0002091C701222389F0EB016B01C40ED51EEC
:1010B000CC15DD0569F06991D701ED91FC910190A6
:1010C000F081E02DC7010995F3CF642F0E94F6054A
:1010D000C801DF91CF911F910F91FF90EF90DF90AA
:1010E000CF900895CF93DF931F92CDB7DEB769837A
:1010F0002091C7012223F9F02091EA01203258F013
:1011000021E030E0FC013383228390E080E00F9007
:10111000DF91CF9108958091C801E82FF0E0E75367
:10112000FE4F998190838F5F8093C8018093EA017D
:1011300081E090E0ECCF61E0CE0101960E94F605DF
:10114000F7CF90E080E008950F931F93CF93DF9344
:101150008C01EB01809110039091110321E0209309
:10116000C70128E62093E9011092C8011092EA0114
:1011700062E070E00E94EF0581E00E942B0761E0D1
:1011800088E60E945C061092C6018093C50180919A
:10119000100390911103DC01ED91FC910284F38521
:1011A000E02D099521E0AC014074552786FF20E031
:1011B000F8012083282F22952F70382F3F70452B60
:1011C00079F085FB992790F998832170832FFAE0B5
:1011D0002F9F800D1124DF91CF911F910F910895C2
:1011E0002370832F9AE0299F800D1124F4CF61E0B2
:1011F00088E60E945C061092C6018093C50180912A
:10120000100390911103DC01ED91FC910284F385B0
:10121000E02D0995982F92959F708F70BAE09B9F53
:10122000800D11240895809110039091110321E005
:101230002093C70128E62093E9011092C80110927B
:10124000EA0161E070E00E94EF0581E00E942B0757
:101250000C94F708CF93DF93FC0101900020E9F78D
:101260003197AF01481B590BBC0187E392E00E9404
:10127000E204EC0142E050E06EE271E087E392E0CC
:101280000E94E2048C0F9D1FDF91CF91089585EDA0
:101290008093BC008091330290913402A09135027A
:1012A000B09136020796A11DB11D23E0B695A79512
:1012B000979587952A95D1F72091BC0024FD03C00E
:1012C000109231020895409133025091340260919E
:1012D000350270913602452B462B472B69F3009758
:1012E000A105B10541F02AE22A95F1F700C0019766
:1012F000A109B109E1CF809132020C943B061F9203
:101300000F920FB60F9211242F933F938F939F93B9
:10131000AF93BF938091BD019091BE01A091BF0199
:10132000B091C0013091BC0123E0230F2D3758F557
:101330000196A11DB11D2093BC018093BD01909326
:10134000BE01A093BF01B093C0018091C1019091F3
:10135000C201A091C301B091C4010196A11DB11DAC
:101360008093C1019093C201A093C301B093C401C3
:10137000BF91AF919F918F913F912F910F900FBE91
:101380000F901F90189526E8230F0296A11DB11DFE
:10139000D2CF1F920F920FB60F9211242F933F932B
:1013A0004F935F936F937F938F939F93AF93BF936D
:1013B000EF93FF9387E392E00E946005FF91EF9126
:1013C000BF91AF919F918F917F916F915F914F915D
:1013D0003F912F910F900FBE0F901F9018951F9265
:1013E0000F920FB60F9211242F938F939F93EF9329
:1013F000FF93E0914702F09148028081E0914D0215
:10140000F0914E0282FD1BC09081809150028F5F4F
:101410008F7320915102821741F0E0915002F0E069
:10142000E95CFD4F958F80935002FF91EF919F9162
:101430008F912F910F900FBE0F901F901895808164
:10144000F4CF1F920F920FB60F9211242F933F9358
:101450004F935F936F937F938F939F93AF93BF93BC
:10146000EF93FF938091B900887F803609F44AC0DA
:10147000F0F5883209F4A7C018F5803109F49BC053
:10148000B8F4882309F4F9C0883009F494C0FF91B6
:10149000EF91BF91AF919F918F917F916F915F91EC
:1014A0004F913F912F910F900FBE0F901F90189565
:1014B000883109F488C0803251F780930F0214C03C
:1014C000803409F49DC040F48033B9F38833F9F6D1
:1014D00080930F0285ECB0C0803509F485C0883553
:1014E00009F496C0883499F60E944709D0CF88390C
:1014F00009F48CC038F5883729F050F4883611F09B
:10150000803729F683E0809331021092AF0157C0F3
:10151000883809F47BC0803919F0803809F0B7CFDA
:101520008091AF01803208F071C0E091AF0181E09D
:101530008E0F8093AF018091BB00F0E0E157FE4F2A
:1015400080833DC0803B39F0E0F4803A09F479C0F3
:10155000883A09F09CCF84E08093310210928E018A
:1015600010928D01E091B201F091B3010995809143
:101570008D0181110FC081E080938D0110926D016A
:1015800009C0803C09F4A6CF883C09F4A3CF883B6E
:1015900009F07DCFE0918E0181E08E0F80938E0166
:1015A000F0E0E359FE4F80818093BB0090918E0163
:1015B00080918D0129C080910C028093BB0085EC45
:1015C0008093BC0064CF90910E0280910D02981719
:1015D00058F5E0910E0281E08E0F80930E02F0E04C
:1015E000E551FE4F8081E9CFE0910E0281E08E0F40
:1015F00080930E028091BB00F0E0E551FE4F8083A6
:1016000090910E0280910D029817C8F285E8D8CF0C
:10161000E0910E0281E08E0F80930E028091BB005C
:10162000F0E0E551FE4F80838091100281115CCF84
:1016300081E080930B0284EA8093BC001092310217
:1016400026CF85EC8093BC00109231028091AF01CF
:10165000803230F4E091AF01F0E0E157FE4F1082AC
:101660006091AF0170E0E091B001F091B1018FE8BD
:1016700091E009951092AF010ACF10920F0234CF7A
:1016800010923A021092390288EE93E0A0E0B0E0A6
:1016900080933B0290933C02A0933D02B0933E02A4
:1016A0002EE031E0309338022093370225EC30E011
:1016B000309344022093430224EC30E030934602FE
:1016C0002093450220EC30E03093480220934702FB
:1016D00021EC30E030934A022093490222EC30E0C2
:1016E00030934C0220934B0226EC30E030934E02B4
:1016F00020934D0210925002109251021092520209
:10170000109253021092D7021092D6028093D80200
:101710009093D902A093DA02B093DB0280E291E0C9
:101720009093D5028093D40284ED92E090931103BC
:101730008093100310920103109200031092F7029D
:101740001092F60210920C0310920D0310920E03E9
:1017500010920F0380E098E09093FD028093FC02CA
:101760008EE090E090930303809302038FE090E07B
:10177000909305038093040380E190E09093070326
:101780008093060381E190E090930903809308031E
:1017900061E08EE00E94D50261E0809104030E9426
:1017A000D50261E0809106030E94D50261E080913C
:1017B00008030E94D50210920B0310920A0384E0E2
:1017C00090E09093FF028093FE021092E10210924B
:1017D000E8021092EF021092F0021092F1021092C1
:1017E000F20281E08093EE028093EB021092EC0211
:1017F00092E09093ED028093E0028CE690E090936B
:10180000E5028093E4020E940D129093EA02809315
:10181000E902009789F12CE6FC0111922A95E9F77B
:1018200084E290E09093E3028093E20286E090E00D
:101830009093E7028093E6028091E102882341F0D1
:1018400061E086E00E94D50260E086E00E94970198
:10185000E4EBF0E0E491F0E0EE0FFF1FEC55FF4FFA
:10186000859194919093F4028093F302E6E9F0E07D
:10187000E491E093F50208951092E5021092E402DB
:101880001092E3021092E202D1CFCF93DF9300D007
:10189000CDB7DEB7789484B5826084BD84B58160AD
:1018A00084BD85B5826085BD85B5816085BD80912B
:1018B0006E00816080936E001092810080918100A3
:1018C000826080938100809181008160809381009B
:1018D000809180008160809380008091B10084605D
:1018E0008093B1008091B00081608093B0008091BE
:1018F0007A00846080937A0080917A00826080937D
:101900007A0080917A00816080937A0080917A00D9
:10191000806880937A001092C100E0914702F091B4
:10192000480282E08083E0914302F09144021082F9
:10193000E0914502F091460280E1808310924F02CF
:10194000E0914B02F0914C0286E08083E0914902E5
:10195000F0914A02808180618083E0914902F09198
:101960004A02808188608083E0914902F0914A02B6
:10197000808180688083E0914902F0914A028081F1
:101980008F7D808381E391E00E942A091092C60135
:101990001092C5011092C8011092EA010E941D0622
:1019A00080EE94E09093B3018093B20181EE94E0D5
:1019B0009093B1018093B0018091E6029091E7028B
:1019C00097FD2EC061E00E94D50260E08091E602A2
:1019D0000E94970181E08093E1026091E8022091EA
:1019E000E9023091EA02603421F16150E1F070E0E7
:1019F0008FEF9FE30E94BC0FF9014091E4025091E8
:101A0000E502CF01821B930B8417950778F4408180
:101A1000469FC001479F900D112490833196EDCFD2
:101A20001092E102DACF70E060E0E6CF80E48093CC
:101A3000E8024091E4025091E50270E060E080919C
:101A4000E9029091EA020E9432130E94DB03209186
:101A5000FC023091FD02032E000C440B550B60E09C
:101A600077E883E993E00E940610CA01B9012BE0F0
:101A700030E040E050E00E9406102093F8023093DE
:101A8000F9024093FA025093FB0262E082E00E9466
:101A9000D5028FE491E00E942A09E090E202F090E2
:101AA000E302E114F10471F010E000E04AE05AE0D2
:101AB0006AE070E0C8010E948D000F5F1F4FE016C2
:101AC000F106A1F70E94DB0300E018E0BEE7EB2E71
:101AD000B0E0FB2E82E9C82E80E0D82E90EBA92E34
:101AE00090E0B92EF7018491F6019490F50184906D
:101AF0008820A9F081110E946E01E82DF0E0EE0F20
:101B0000FF1FE859FF4FA591B4918C91982239F0AD
:101B100081E090E00E9436030150110919F71092FC
:101B2000B8011092B9011092BA011092BB0140E0C5
:101B30005FEF60E070E090E080E00E948D000E9426
:101B4000DB0360ED77E080E090E00E94AE041A8253
:101B500019820E941309082F10E0B801012E000C11
:101B6000880B990B0E94EB1029E838E848E052E412
:101B70000E94A0114B015C012091B8013091B90184
:101B80004091BA015091BB010E9441106B017C0150
:101B900020E030E0A9010E949B1118160CF059C1F9
:101BA00020E030E040E05FE3C701B6010E949B11F6
:101BB00018160CF458C11093030100930201BE01E2
:101BC0006F5F7F4FCE0102960E94A40890E0909331
:101BD0000101809300018EE591E00E942A0970E0E6
:101BE000272E70E0372E1A821982BE016F5F7F4F59
:101BF000CE0102960E94A408082F10E00E9413094B
:101C0000A82EB12C8091100390911103F1E0F09374
:101C1000C70128E62093E9011092C8011092EA0159
:101C200070E060E00E94EF0581E00E942B070E94B7
:101C3000F7088091020190910301A816B90609F4F2
:101C400047C0B5010B2C000C880B990B0E94EB10C0
:101C500029E838E848E052E40E94A0112B013C0139
:101C60002091B8013091B9014091BA015091BB0166
:101C70000E9441106B017C0120E030E040E854E418
:101C80000E949B1118160CF0FEC020E030E040E0EE
:101C900055E4C701B6010E9441106B017C0120E0B0
:101CA00030E0A901C701B6010E949B1118160CF083
:101CB000FDC020E030E040E05FE3C701B6010E94D4
:101CC0009B1118160CF4FCC0B0920301A092020103
:101CD0002091000130910101C8016CE070E00E9488
:101CE000D00F5C010217130771F12F3F3F4F59F1DD
:101CF0006501CC0CDD1C63E0E62EF12C4FEF5FEFAD
:101D00006FEF70E0C6010E948D000E94DB0368EC5B
:101D100070E080E090E00E94AE0440E050E0BA0144
:101D2000C6010E948D000E94DB0368EC70E080E039
:101D300090E00E94AE04E1E0EE1AF108F9F610938B
:101D40000101009300014091E4025091E50270E02E
:101D500060E08091E9029091EA020E943213C09003
:101D6000B401D090B501E090B601F090B70168E001
:101D7000C6010E94FE002B013C018090E20290907F
:101D8000E3028114910499F0F8E18F16910418F0A0
:101D900048E1842E912C10E000E0B301A201C801BB
:101DA0000E948D000F5F1F4F80169106B1F76FE7FD
:101DB000C60190580E94FE002B013C018090E20277
:101DC0009090E30229E18216910498F084E288164B
:101DD000910418F034E2832E912C08E110E0B30155
:101DE000A201C8010E948D000F5F1F4F801691064F
:101DF000B1F7EFEFDE1AEE0AFE0AEE24FF24C092DE
:101E0000B401D092B501E092B601F092B7014FEF64
:101E10005FEF6FEF70E090E080E0A114B10419F083
:101E2000C501880F991F0E948D000E94DB0368EE98
:101E300073E080E090E00E94AE042114310409F4C4
:101E4000D2CE0E944C05882309F4CDCE0E9400001A
:101E5000CACE20E030E040E05FEBC701B6010E944F
:101E6000AE1087FFA8CEC701B6010E94B310CB0108
:101E70000E9436038092B8019092B901A092BA01F3
:101E8000B092BB0198CE20E030E040E854ECC701AE
:101E9000B6010E94AE1087FF02CF20E030E040E0A4
:101EA00055E4C701B6010E944210F7CE20E030E0B1
:101EB00040E05FEBC701B6010E94AE1087FF04CF80
:101EC000C701B6010E94B310CB010E94360320E087
:101ED00030E040E055E4C301B2010E949B1187FF4E
:101EE0002AC04092B8015092B9016092BA01709232
:101EF000BB01C090B801D090B901E090BA01F09058
:101F0000BB0120E030E0A901C701B6010E94AE107C
:101F100087FFDACE20E030E040E055E4C701B601AB
:101F20000E9442106093B8017093B9018093BA0186
:101F30009093BB01C9CE20E030E040E055E4C301FE
:101F4000B2010E9441106093B8017093B90180936F
:101F5000BA019093BB01CDCF8091E9029091EA0242
:101F60000E94A9128091E6029091E70297FD03C0BA
:101F700060E00C94D5020895AA1BBB1B51E107C079
:101F8000AA1FBB1FA617B70710F0A61BB70B881F09
:101F9000991F5A95A9F780959095BC01CD01089598
:101FA00097FB072E16F4009407D077FD09D00E9406
:101FB000BC0F07FC05D03EF4909581959F4F089586
:101FC000709561957F4F0895A1E21A2EAA1BBB1B45
:101FD000FD010DC0AA1FBB1FEE1FFF1FA217B307F5
:101FE000E407F50720F0A21BB30BE40BF50B661F0B
:101FF000771F881F991F1A9469F7609570958095CF
:1020000090959B01AC01BD01CF010895052E97FB72
:102010001EF400940E941D1057FD07D00E94E40F8B
:1020200007FC03D04EF40C941D105095409530954C
:1020300021953F4F4F4F5F4F089590958095709534
:1020400061957F4F8F4F9F4F08950E942C10B7FFCF
:102050000895821B930B0895A29FB001B39FC00106
:10206000A39F700D811D1124911DB29F700D811DC4
:102070001124911D0895EE0FFF1F0590F491E02D9E
:1020800009945058BB27AA270E9459100C9461113B
:102090000E94531138F00E945A1120F039F49F3FEA
:1020A00019F426F40C9450110EF4E095E7FB0C940F
:1020B0004A11E92F0E94721158F3BA176207730789
:1020C0008407950720F079F4A6F50C9494110EF48A
:1020D000E0950B2EBA2FA02D0B01B90190010C0138
:1020E000CA01A0011124FF27591B99F0593F50F450
:1020F000503E68F11A16F040A22F232F342F4427A8
:10210000585FF3CF469537952795A795F04053959F
:10211000C9F77EF41F16BA0B620B730B840BBAF06F
:102120009150A1F0FF0FBB1F661F771F881FC2F7DA
:102130000EC0BA0F621F731F841F48F487957795EE
:102140006795B795F7959E3F08F0B0CF9395880FA8
:1021500008F09927EE0F9795879508950E9426110C
:1021600008F481E008950E94BA106894B1110C94AB
:10217000951108950E947A1188F09F5798F0B92F11
:102180009927B751B0F0E1F0660F771F881F991FAC
:102190001AF0BA95C9F714C0B13091F00E949411A9
:1021A000B1E008950C949411672F782F8827B85FB9
:1021B00039F0B93FCCF3869577956795B395D9F704
:1021C0003EF490958095709561957F4F8F4F9F4F0E
:1021D0000895E89409C097FB3EF49095809570951A
:1021E00061957F4F8F4F9F4F9923A9F0F92F96E963
:1021F000BB279395F695879577956795B795F111D8
:10220000F8CFFAF4BB0F11F460FF1BC06F5F7F4F74
:102210008F4F9F4F16C0882311F096E911C0772386
:1022200021F09EE8872F762F05C0662371F096E88F
:10223000862F70E060E02AF09A95660F771F881F5E
:10224000DAF7880F9695879597F90895990F000802
:10225000550FAA0BE0E8FEEF16161706E807F90778
:10226000C0F012161306E407F50798F0621B730B13
:10227000840B950B39F40A2661F0232B242B252B94
:1022800021F408950A2609F4A140A6958FEF811D37
:10229000811D089597F99F6780E870E060E00895D8
:1022A0009FEF80EC089500240A941616170618066E
:1022B0000906089500240A9412161306140605064A
:1022C0000895092E0394000C11F4882352F0BB0FDB
:1022D00040F4BF2B11F460FF04C06F5F7F4F8F4F3E
:1022E0009F4F089557FD9058440F551F59F05F3F79
:1022F00071F04795880F97FB991F61F09F3F79F028
:1023000087950895121613061406551FF2CF4695A9
:10231000F1DF08C0161617061806991FF1CF86952B
:102320007105610508940895E894BB27662777270F
:10233000CB0197F908950E94261108F48FEF0895B4
:102340000E94B3110C9461110E94531138F00E9445
:102350005A1120F0952311F00C944A110C9450114D
:1023600011240C9495110E94721170F3959FC1F382
:10237000950F50E0551F629FF001729FBB27F00D33
:10238000B11D639FAA27F00DB11DAA1F649F662788
:10239000B00DA11D661F829F2227B00DA11D621FD7
:1023A000739FB00DA11D621F839FA00D611D221F91
:1023B000749F3327A00D611D231F849F600D211D75
:1023C000822F762F6A2F11249F5750409AF0F1F0F8
:1023D00088234AF0EE0FFF1FBB1F661F771F881F61
:1023E00091505040A9F79E3F510580F00C944A113E
:1023F0000C9495115F3FE4F3983ED4F3869577955E
:102400006795B795F795E7959F5FC1F7FE2B880F06
:10241000911D9695879597F908950F931F93CF93E4
:10242000DF938230910510F482E090E0E091140394
:10243000F091150330E020E0B0E0A0E0309799F48F
:102440002115310509F44AC0281B390B2430310508
:10245000D8F58A819B816115710589F1FB01938310
:102460008283FE0111C0408151810281138148178E
:102470005907E0F04817590799F4109761F0129640
:102480000C93129713961C933296CF01DF91CF9144
:102490001F910F9108950093140310931503F4CF27
:1024A0002115310551F04217530738F0A901DB011E
:1024B0009A01BD01DF01F801C1CFEF01F9CF90937F
:1024C000150380931403CDCFFE01E20FF31F819318
:1024D00091932250310939832883D7CF2091120359
:1024E00030911303232B41F4209106013091070111
:1024F00030931303209312032091040130910501BE
:102500002115310541F42DB73EB740910801509196
:102510000901241B350BE0911203F0911303E2171C
:10252000F307A0F42E1B3F0B2817390778F0AC01F6
:102530004E5F5F4F2417350748F04E0F5F1F5093D3
:10254000130340931203819391939FCFF0E0E0E057
:102550009CCFCF93DF930097E9F0FC013297138271
:102560001282A0911403B0911503ED0130E020E038
:102570001097A1F420813181820F931F20911203C3
:10258000309113032817390709F061C0F093130342
:10259000E0931203DF91CF910895EA01CE17DF0790
:1025A000E8F54A815B819E0141155105B1F7E901CA
:1025B000FB83EA8349915991C40FD51FEC17FD079E
:1025C00061F4808191810296840F951FE9019983BE
:1025D0008883828193819B838A83F0E0E0E0129676
:1025E0008D919C9113970097B9F52D913C9111977E
:1025F000CD010296820F931F209112033091130395
:102600002817390739F6309751F5109215031092B3
:102610001403B0931303A0931203BCCFD383C283DC
:1026200040815181840F951FC817D90761F44E5F0F
:102630005F4F88819981480F591F518340838A8158
:102640009B81938382832115310509F0B0CFF093EC
:102650001503E09314039ECFFD01DC01C0CF13826C
:102660001282D7CFDC0101C06D9341505040E0F79A
:10267000089510E0C2E6D0E004C0FE010E943B10C5
:0C2680002196C336D107C9F7F894FFCFAC
:10268C00FFFFFFFF00001603800000000000820522
:10269C00E2040F05CF0540051E05320500000000C1
:1026AC0072084508A1081B083E082B081C080D0AD7
:1026BC00003D3D3D2048796272696420436C6F6334
:1026CC006B205374617274696E67203D3D3D00430D
:1026DC00616C6962726174696E672E2E2E003D3DCD
:0C26EC003D205265616479203D3D3D00B9
:00000001FF
