:100000000C9463000C948B000C948B000C948B006C
:100010000C948B000C948B000C948B000C948B0034
:100020000C948B000C948B000C948B000C948B0024
:100030000C948B000C948B000C948B000C948B0014
:100040000C942C090C948B000C949C090C9476094C
:100050000C948B000C948B000C948B000C948B00F4
:100060000C94CE090C948B000000000023002600A5
:10007000290000000000240027002A0000000008DA
:10008000000201000003040700000000000000005F
:10009000010204081020408001020408102001021F
:1000A0000408102000000000250028002B00040494
:1000B0000404040404040202020202020303030310
:1000C0000303ED0A3E0F11241FBECFEFD8E0DEBFC1
:1000D000CDBF11E0A0E0B1E0E0EBF5E202C0059099
:1000E0000D92AA36B107D9F723E0AAE6B1E001C024
:1000F0001D92A431B207E1F710E0C2E6D0E004C0DF
:100100002197FE010E94CD0FC136D107C9F70E9489
:10011000F20B0C94CB120C9400008F929F92AF9232
:10012000BF92CF92DF92EF92FF92CF932091E002A5
:100130003091E10282179307E8F54B01AA24BB2412
:10014000C82DC52ED62EE72EFF24BC2DA42F20911E
:10015000E602222361F0829E40011124C92D2C9DCC
:1001600060011124BD2D249FF0011124AF2FE091D7
:10017000EC02E090E702F090E8023091E902E3132C
:1001800023C09C01220F331F820F931F8E0D9F1DD2
:10019000E091E902E80FF92FF11DC083E091EA0236
:1001A000E80FF92FF11DB0832091EB02820F911D12
:1001B000FC01A083CF91FF90EF90DF90CF90BF9094
:1001C000AF909F908F900895880F991F880F991F67
:1001D0008E0D9F1D472F552766277727222349F02D
:1001E00030E0249F7001259FF00C349FF00C112407
:1001F0004F2DE80FF92FF11D4083CACFCF92DF9228
:10020000EF92FF92E62F9C01AAEFB5E00E94BE0F8D
:10021000DC01CB019058AF4FBF4FCD01BB2797FDFD
:10022000B095AB2F8E3F41E0940798F5782F8F3F24
:10023000910508F44DC04EEF481B50E07FEFF0E011
:10024000319630E0272FDF010E94B70F6B017C0150
:10025000CC24EE24FF24252F0E94B70F672F782F80
:10026000892F9927C62AD72AE82AF92A242F0E94FB
:10027000B70F982F872F762F66276627772799271E
:100280006C297D298E299F29FF90EF90DF90CF90D8
:1002900008958C3F43E0940760F452E0580F7FEFDD
:1002A0008D3F42E0940718F07CEF781B5FEF40E051
:1002B000C6CF8A3F45E0940771F05AEF581B8B3F39
:1002C00044E0940748F444E0480F5FEF70E0B7CF94
:1002D00050E04FEFB4CF50E070E0FBCF833081F0BF
:1002E00028F4813099F08230A9F008958730A9F080
:1002F0008830C9F08430B1F4809180008F7D03C0D4
:10030000809180008F7780938000089584B58F77E7
:1003100084BD089584B58F7DFBCF8091B0008F7729
:100320008093B00008958091B0008F7DF9CF1F9326
:10033000CF93DF93282F30E0F901E458FF4F8491E9
:10034000F901E057FF4FD491F901E255FF4FC491F5
:10035000CC23A9F0162F81110E946E01EC2FF0E042
:10036000EE0FFF1FEC55FF4FA591B4918FB7F89496
:10037000EC91111108C0D095DE23DC938FBFDF9183
:10038000CF911F910895DE2BF8CFCF93DF93EC012F
:100390008091FC029091FD02029749F4C130D10591
:1003A00009F43BC06CF560E0209709F437C08091F8
:1003B000FC029091FD02049749F4C130D10509F483
:1003C0005CC00CF037C0209709F442C08091FC0259
:1003D0009091FD02059709F0E5C0CA30D10508F0FB
:1003E000E1C0FE01EA50FE4F0C94CD0F55026102B0
:1003F00072028802A302A502AC02B802C902D002AE
:10040000C230D105A9F060E0C330D10581F68091FA
:1004100000030E94970160E006C061E08091000344
:100420000E94970161E0809102030E949701BFCF73
:1004300061E0EDCFC230D10539F1C330D10509F00B
:10044000C5CF61E0809100030E94970160E022C067
:1004500061E0809100030E94970160E080910203B7
:100460000E94970161E0809104030E94970160E07F
:10047000809106030E949701A9CF60E0809100035C
:100480000E94970161E0EACF60E0809100030E9442
:10049000970161E0809102030E94970160E08091E2
:1004A00004030E94970161E0E3CF60E080910003C4
:1004B0000E94970161E0809102030E94970161E030
:1004C0000BC060E0809100030E94970161E0809181
:1004D00002030E94970160E0809104030E9497014B
:1004E00060E010C060E0809100030E94970161E02D
:1004F000809102030E94970160E0809104030E94B2
:10050000970161E0809106030E94970161E015C0A8
:1005100060E0809100030E94970161E080910203F6
:100520000E94970160E0809104030E94970161E0BE
:10053000809106030E94970160E080910803DF919B
:10054000CF910C94970161E0E4CF61E080910003CA
:100550000E94970160E0E2CF61E0809100030E9479
:10056000970160E0809102030E94970161E0DBCF78
:1005700061E0809100030E94970160E08091020396
:100580000E94970161E0809104030E94970160E05E
:10059000CFCF61E0809100030E94970160E08BCF94
:1005A00060E0F8CFDF91CF910895CF93DF9390E093
:1005B000FC01E057FF4F249182559F4FFC0184912D
:1005C0008823C9F090E0880F991FFC01EE58FF4F77
:1005D000A591B491FC01EC55FF4FC591D4916111E7
:1005E0000DC09FB7F8948C91209582238C938881BD
:1005F000282328839FBFDF91CF910895623051F463
:100600009FB7F8943C91822F809583238C93E88147
:100610002E2BEFCF8FB7F894EC912E2B2C938FBF0E
:10062000EACF3FB7F8948091BF019091C001A091AB
:10063000C101B091C20126B5A89B05C02F3F19F09A
:100640000196A11DB11D3FBFBA2FA92F982F882752
:10065000BC01CD01620F711D811D911D42E0660F2D
:10066000771F881F991F4A95D1F708954F925F927F
:100670006F927F928F929F92AF92BF92EF92FF9272
:100680000F931F93CF93DF93EC0197FF04C0CC2708
:10069000DD27C81BD90B181619060CF061C081E0C4
:1006A00090E09093F5028093F40204E010E08AE079
:1006B000E82EF12C209709F46FC00E94110380905E
:1006C0000A0390900B03A0900C03B0900D032B0134
:1006D0003C01481859086A087B088090F6029090FF
:1006E000F702A090F802B090F902481459046A0485
:1006F0007B0400F360930A0370930B0380930C0355
:1007000090930D038091FE029091FF022091F402DC
:100710003091F5022130310559F501969093FF0291
:100720008093FE022091FA023091FB028217930718
:1007300021F41092FF021092FE0221978091FE0296
:100740009091FF022091FC023091FD02B70125300B
:10075000310509F0B8010E94620F0E94C501AACFBD
:10076000892B09F4A2CF1092F5021092F4029DCFCA
:10077000892B41F48091FA029091FB029093FF0241
:100780008093FE028091FE029091FF020197909368
:10079000FF028093FE02D1CFDF91CF911F910F9185
:1007A000FF90EF90BF90AF909F908F907F906F9051
:1007B0005F904F9008950F931F93CF93DF93CDB722
:1007C000DEB729970FB6F894DEBF0FBECDBF80917C
:1007D000E7029091E802892B09F47CC00E94110382
:1007E0000091ED021091EE022091EF023091F002A3
:1007F000601771078207930740F46093ED027093CE
:10080000EE028093EF029093F0020091ED021091BE
:10081000EE022091EF023091F002601B710B820B0F
:10082000930B6C32714081059105C0F2F894809170
:10083000E2029091E3029A838983E091E702F091CA
:10084000E802DF011196808189879091DE02E091B4
:10085000F102F091F2028091F302992309F445C06C
:100860009081982B98879081809589238F838F81A1
:100870008C8388E08B8358856F8149853B812C81EF
:1008800089819A81508347FD252F3A952083262F11
:1008900039F0441F00C000006083000000C0F2CFA8
:1008A00038E04D9160830000019761F7F093F20208
:1008B000E093F10249873B832C839A838983789460
:1008C0000E9411036093ED027093EE028093EF0299
:1008D0009093F00229960FB6F894DEBF0FBECDBFFD
:1008E000DF91CF911F910F9108959081982B988758
:1008F0009081809589238F838F818E8388E08D837B
:1009000058856F8149853D812E8189819A815083E7
:1009100047FD252F00C000C0208300C000C000C0DC
:1009200000C000C060830000262F3A9541F0441FAC
:10093000000000C000C000C000C000C0E8CF38E028
:100940004D9100C0608300C0019709F7F093F20257
:10095000E093F10249873D832E83AFCF8F929F9220
:10096000AF92BF92CF92DF92EF92FF924B015C0168
:100970000E9411036B017C010E9411036C197D0917
:100980008E099F09683E734081059105A8F321E017
:10099000821A9108A108B10888EEC80E83E0D81E1B
:1009A000E11CF11C81149104A104B10429F7FF900A
:1009B000EF90DF90CF90BF90AF909F908F90089571
:1009C00008950895AF92BF92CF92DF92EF92FF9277
:1009D0000F931F93CF93DF936C017B018B01040F67
:1009E000151FEB015E01AE18BF08C017D10759F003
:1009F0006991D601ED91FC910190F081E02DC60145
:100A00000995892B79F7C501DF91CF911F910F913E
:100A1000FF90EF90DF90CF90BF90AF900895FC01D2
:100A2000538D448D252F30E0842F90E0821B930B53
:100A3000541710F0CF96089501970895FC01918DF9
:100A4000828D981761F0A28DAE0FBF2FB11D5D96FC
:100A50008C91928D9F5F9F73928F90E008958FEF9E
:100A60009FEF0895FC01918D828D981731F0828D52
:100A7000E80FF11D858D90E008958FEF9FEF0895A9
:100A8000FC01918D228D892F90E0805C9F4F821B0D
:100A900091098F739927089585E392E00E9440059C
:100AA00021E0892B09F420E0822F089580E090E076
:100AB000892B29F00E944C0581110C9400000895A7
:100AC000FC01A48DA80FB92FB11DA35ABF4F2C91C3
:100AD000848D90E001968F739927848FA689B789BA
:100AE0002C93A089B1898C91837080648C93938DB1
:100AF000848D981306C00288F389E02D80818F7D54
:100B000080830895EF92FF920F931F93CF93DF930B
:100B1000EC0181E0888F9B8D8C8D98131AC0E88939
:100B2000F989808185FF15C09FB7F894EE89FF8908
:100B30006083E889F98980818370806480839FBFA6
:100B400081E090E0DF91CF911F910F91FF90EF90A6
:100B50000895F62E0B8D10E00F5F1F4F0F731127B6
:100B6000E02E8C8D8E110CC00FB607FCFACFE889F1
:100B7000F989808185FFF5CFCE010E946005F1CF14
:100B8000EB8DEC0FFD2FF11DE35AFF4FF0829FB765
:100B9000F8940B8FEA89FB8980818062CFCFCF9355
:100BA000DF93EC01888D8823B9F0AA89BB89E88995
:100BB000F9898C9185FD03C0808186FD0DC00FB63B
:100BC00007FCF7CF8C9185FFF2CF808185FFEDCFB9
:100BD000CE010E946005E9CFDF91CF910895DC013D
:100BE000ED91FC910190F081E02D099420918B0111
:100BF000260F3327331F21323105ECF420912F02C9
:100C0000FC0190E080E0243069F082E00895A0913A
:100C10008B012191AC0145595E4FA40FB52FB11D39
:100C20002C930196861798F380918B01680F60933F
:100C30008B0180E0089581E0089510922F0281E0F9
:100C400080930E021092090261E082E10E949701F6
:100C500061E083E10E949701E9EBF0E080818E7F03
:100C6000808380818D7F808388E48093B80085E4D1
:100C70008093BC000895CF93DF9391E090936A0135
:100C80008823B9F0C091B800D091BA008091BC001F
:100C90008A7B8093BC0060E082E10E94970160E063
:100CA00083E10E9497010E941D06D093BA00C09371
:100CB000B800DF91CF910895CF92DF92EF92FF922B
:100CC0000F931F93CF93DF93D82FC62F613208F075
:100CD00098C00E9411036B017C0180912F02811149
:100CE0006BC081E080932F0280930E029FEF909360
:100CF0000D0210920C029C0F90930B0280930A023B
:100D000080910A02DD0FD82BD0930A02809109024C
:100D1000813009F078C0109209020E9411036B0122
:100D20007C0180910A028093BB00809131029091F6
:100D30003202A0913302B0913402892B8A2B8B2B83
:100D4000A1F00E9411030091310210913202209112
:100D50003302309134026C197D098E099F09061700
:100D600017072807390708F448C08091BC0083FDA5
:100D7000D8CF85EC8093BC000E9411036B017C01ED
:100D800080912F02813009F440C080910C028C17B1
:100D900010F4C0910C02E9EEF1E0AFE0B2E080E0C7
:100DA0008C1355C08C2FDF91CF911F910F91FF9025
:100DB000EF90DF90CF9008958091310290913202B0
:100DC000A0913302B0913402892B8A2B8B2B09F42A
:100DD00084CF0E94110300913102109132022091C0
:100DE0003302309134026C197D098E099F09061770
:100DF00017072807390708F070CF809130020E944A
:100E00003B06C0E0CFCF85EEB5CF80913102909107
:100E10003202A0913302B0913402892B8A2B8B2BA2
:100E200009F4AECF0E9411030091310210913202F9
:100E300020913302309134026C197D098E099F098B
:100E4000061717072807390708F09ACFD6CF9191D0
:100E50009D938F5FA5CF8F929F92AF92BF92CF92BB
:100E6000DF92EF92FF920F931F93CF93DF93D09176
:100E7000E801D13208F0D7C0182FC091E7010E94D5
:100E800011036B017C0180912F0281116BC082E004
:100E900080932F0210930E028FEF80930D02109219
:100EA0000C02D0930B02A7ECB1E0E9EEF1E080E098
:100EB000D81391C010920A0280910A02CC0FC82B5D
:100EC000C0930A0280910902813009F088C0109213
:100ED00009020E9411036B017C0180910A02809338
:100EE000BB008091310290913202A0913302B09107
:100EF0003402892B8A2B8B2BA1F00E9411030091C5
:100F000031021091320220913302309134026C1977
:100F10007D098E099F09061717072807390708F466
:100F200042C08091BC0083FDD8CF85EC8093BC008B
:100F30000E9411036B017C0180912F02823009F421
:100F400050C080910D028F3F09F46FC080910D0257
:100F5000803209F46CC080910D02803309F469C0BD
:100F600084E026C08091310290913202A091330238
:100F7000B0913402892B8A2B8B2B09F484CF0E94E9
:100F800011038090310290903202A0903302B09011
:100F900034026C197D098E099F0986169706A806EA
:100FA000B90608F070CF809130020E943B0685E0C0
:100FB0001092C6011092E8011092C501DF91CF9105
:100FC0001F910F91FF90EF90DF90CF90BF90AF9067
:100FD0009F908F9008959D9191938F5F69CF85EE3B
:100FE000A5CF8091310290913202A0913302B0914D
:100FF0003402892B8A2B8B2B09F49ECF0E9411037C
:10100000009131021091320220913302309134026A
:101010006C197D098E099F090617170728073907DC
:1010200008F08ACFC0CF81E0C3CF80E0C1CF82E09B
:10103000BFCF83E0BDCF0895E091C4018091C3018B
:10104000E81730F4F0E0E15FFD4F808190E0089513
:101050008FEF9FEF08959091C4018091C3012FEF0E
:101060003FEF981748F4E92FF0E0E15FFD4F208152
:1010700030E09F5F9093C401C90108958091C3013E
:101080009091C401891B990B0895CF92DF92EF9242
:10109000FF920F931F93CF93DF937C01CB018A01C3
:1010A0002091C501222389F0EB016B01C40ED51EEE
:1010B000CC15DD0569F06991D701ED91FC910190A6
:1010C000F081E02DC7010995F3CF642F0E94F6054A
:1010D000C801DF91CF911F910F91FF90EF90DF90AA
:1010E000CF900895CF93DF931F92CDB7DEB769837A
:1010F0002091C5012223F9F02091E801203258F017
:1011000021E030E0FC013383228390E080E00F9007
:10111000DF91CF9108958091C601E82FF0E0E95367
:10112000FE4F998190838F5F8093C6018093E80181
:1011300081E090E0ECCF61E0CE0101960E94F605DF
:10114000F7CF90E080E0089561E088E60E945C06B9
:101150001092C4018093C30180910E0390910F03FC
:10116000DC01ED91FC910284F385E02D0995982F27
:1011700092959F708F70BAE09B9F800D1124089507
:1011800080910E0390910F0321E02093C50128E682
:101190002093E7011092C6011092E80161E070E02F
:1011A0000E94EF0581E00E942B070C94A408CF93C6
:1011B000DF93FC0101900020E9F73197AF01481B54
:1011C000590BBC0185E392E00E94E204EC0142E08D
:1011D00050E06CE271E085E392E00E94E2048C0F43
:1011E0009D1FDF91CF91089585ED8093BC00809184
:1011F000310290913202A0913302B09134020796ED
:10120000A11DB11D23E0B695A795979587952A95C1
:10121000D1F72091BC0024FD03C010922F02089545
:101220004091310250913202609133027091340248
:10123000452B462B472B69F30097A105B10541F0DB
:101240002AE22A95F1F700C00197A109B109E1CF7F
:10125000809130020C943B061F920F920FB60F92B2
:1012600011242F933F938F939F93AF93BF938091BC
:10127000BB019091BC01A091BD01B091BE01309124
:10128000BA0123E0230F2D3758F50196A11DB11D9A
:101290002093BA018093BB019093BC01A093BD0140
:1012A000B093BE018091BF019091C001A091C10196
:1012B000B091C2010196A11DB11D8093BF01909311
:1012C000C001A093C101B093C201BF91AF919F91A2
:1012D0008F913F912F910F900FBE0F901F901895F7
:1012E00026E8230F0296A11DB11DD2CF1F920F92A7
:1012F0000FB60F9211242F933F934F935F936F93E9
:101300007F938F939F93AF93BF93EF93FF9385E367
:1013100092E00E946005FF91EF91BF91AF919F9184
:101320008F917F916F915F914F913F912F910F908E
:101330000FBE0F901F9018951F920F920FB60F922D
:1013400011242F938F939F93EF93FF93E091450286
:10135000F09146028081E0914B02F0914C0282FDB7
:101360001BC0908180914E028F5F8F7320914F023E
:10137000821741F0E0914E02F0E0EB5CFD4F958F5B
:1013800080934E02FF91EF919F918F912F910F903B
:101390000FBE0F901F9018958081F4CF1F920F926F
:1013A0000FB60F9211242F933F934F935F936F9338
:1013B0007F938F939F93AF93BF93EF93FF9380910E
:1013C000B900887F803609F44AC0F0F5883209F404
:1013D000A7C018F5803109F49BC0B8F4882309F43C
:1013E000F9C0883009F494C0FF91EF91BF91AF919B
:1013F0009F918F917F916F915F914F913F912F912D
:101400000F900FBE0F901F901895883109F488C077
:10141000803251F780930D0214C0803409F49DC0CE
:1014200040F48033B9F38833F9F680930D0285ECEC
:10143000B0C0803509F485C0883509F496C0883479
:1014400099F60E94F408D0CF883909F48CC038F599
:10145000883729F050F4883611F0803729F683E078
:1014600080932F021092AD0157C0883809F47BC0D9
:10147000803919F0803809F0B7CF8091AD01803202
:1014800008F071C0E091AD0181E08E0F8093AD0155
:101490008091BB00F0E0E357FE4F80833DC0803B6E
:1014A00039F0E0F4803A09F479C0883A09F09CCF29
:1014B00084E080932F0210928C0110928B01E091B6
:1014C000B001F091B101099580918B0181110FC09C
:1014D00081E080938B0110926B0109C0803C09F47C
:1014E000A6CF883C09F4A3CF883B09F07DCFE091DB
:1014F0008C0181E08E0F80938C01F0E0E559FE4F66
:1015000080818093BB0090918C0180918B0129C0D8
:1015100080910A028093BB0085EC8093BC0064CF6D
:1015200090910C0280910B02981758F5E0910C02F3
:1015300081E08E0F80930C02F0E0E751FE4F808136
:10154000E9CFE0910C0281E08E0F80930C02809134
:10155000BB00F0E0E751FE4F808390910C02809138
:101560000B029817C8F285E8D8CFE0910C0281E011
:101570008E0F80930C028091BB00F0E0E751FE4F8C
:10158000808380910E0281115CCF81E080930902FB
:1015900084EA8093BC0010922F0226CF85EC8093C2
:1015A000BC0010922F028091AD01803230F4E091A6
:1015B000AD01F0E0E357FE4F10826091AD0170E0A5
:1015C000E091AE01F091AF018DE891E009951092A4
:1015D000AD010ACF10920D0234CF10923802109252
:1015E000370288EE93E0A0E0B0E080933902909358
:1015F0003A02A0933B02B0933C022CE031E03093DE
:1016000036022093350225EC30E0309342022093DD
:10161000410224EC30E0309344022093430220EC5A
:1016200030E0309346022093450221EC30E03093C5
:1016300048022093470222EC30E030934A02209384
:10164000490226EC30E030934C0220934B0210927A
:101650004E0210924F0210925002109251021092BC
:10166000D5021092D4028093D6029093D702A09311
:10167000D802B093D9028EE191E09093D302809387
:10168000D20282ED92E090930F0380930E031092AA
:10169000FF021092FE021092F5021092F4021092D4
:1016A0000A0310920B0310920C0310920D0380E0BA
:1016B00098E09093FB028093FA028EE090E0909382
:1016C0000103809300038FE090E0909303038093E5
:1016D000020380E190E0909305038093040381E18D
:1016E00090E0909307038093060361E08EE00E94F0
:1016F000D50261E0809102030E94D50261E08091F1
:1017000004030E94D50261E0809106030E94D50285
:10171000109209031092080384E090E09093FD0278
:101720008093FC021092DF021092E6021092ED020A
:101730001092EE021092EF021092F00281E080937C
:10174000EC028093E9021092EA0292E09093EB029D
:101750008093DE028CE690E09093E3028093E202B5
:101760000E949F119093E8028093E702009789F10D
:101770002CE6FC0111922A95E9F784E290E090931F
:10178000E1028093E00286E090E09093E50280938E
:10179000E4028091DF02882341F061E086E00E944C
:1017A000D50260E086E00E949701E4EBF0E0E4916E
:1017B000F0E0EE0FFF1FEC55FF4F85919491909351
:1017C000F2028093F102E6E9F0E0E491E093F302A3
:1017D00008951092E3021092E2021092E102109238
:1017E000E002D1CF789484B5826084BD84B58160F5
:1017F00084BD85B5826085BD85B5816085BD8091DC
:101800006E00816080936E00109281008091810053
:10181000826080938100809181008160809381004B
:10182000809180008160809380008091B10084600D
:101830008093B1008091B00081608093B00080916E
:101840007A00846080937A0080917A00826080932D
:101850007A0080917A00816080937A0080917A008A
:10186000806880937A001092C100E0914502F09167
:10187000460282E08083E0914102F09142021082B0
:10188000E0914302F091440280E1808310924D0286
:10189000E0914902F0914A0286E08083E09147029C
:1018A000F0914802808180618083E0914702F0914D
:1018B0004802808188608083E0914702F09148026D
:1018C000808180688083E0914702F09148028081A6
:1018D0008F7D80838FE291E00E94D7081092C4012F
:1018E0001092C3011092C6011092E8010E941D06D9
:1018F00080EE94E09093B1018093B00181EE94E08A
:101900009093AF018093AE018091E4029091E50243
:1019100097FD2EC061E00E94D50260E08091E40254
:101920000E94970181E08093DF026091E60220919E
:10193000E7023091E802603421F16150E1F070E09B
:101940008FEF9FE30E944E0FF9014091E202509108
:10195000E302CF01821B930B8417950778F4408133
:10196000469FC001479F900D112490833196EDCF83
:101970001092DF02DACF70E060E0E6CF80E480937F
:10198000E6024091E2025091E30270E060E0809153
:10199000E7029091E8020E94C4120E94DB032091AA
:1019A000FA023091FB02032E000C440B550B60E051
:1019B00077E883E993E00E94980FCA01B9012BE010
:1019C00030E040E050E00E94980F2093F602309300
:1019D000F7024093F8025093F90262E082E00E941D
:1019E000D5028DE491E00E94D7080091E0021091A9
:1019F000E1020115110569F0D0E0C0E04AE05AE0CB
:101A00006AE070E0CE010E948D0021960C171D0740
:101A1000A9F70E94DB03C0E0D8E00EE710E0E2E99E
:101A2000EE2EE0E0FE2EF0EBCF2EF0E0DF2EF80100
:101A30008491F701A490F601B490BB20A1F081112C
:101A40000E946E01EB2DF0E0EE0FFF1FE859FF4FF3
:101A5000A591B4918C91A82231F081E090E00E9490
:101A60003603219721F71092B6011092B701109218
:101A7000B8011092B90140E05FEF60E070E090E0E3
:101A800080E00E948D000E94DB0360ED77E080E043
:101A900090E00E94AE040E94C008C82FD0E0BE01B2
:101AA0000D2E000C880B990B0E947D1029E838E858
:101AB00048E052E40E9432114B015C012091B601D2
:101AC0003091B7014091B8015091B9010E94D30FF4
:101AD0006B017C0120E030E0A9010E942D11181655
:101AE0000CF040C120E030E040E05FE3C701B60108
:101AF0000E942D1118160CF43FC1D0930101C09320
:101B000000018CE591E00E94D7085CE0252E312C85
:101B100060E0862E60E0962E80910E0390910F0378
:101B2000F1E0F093C50128E62093E7011092C60189
:101B30001092E80162E070E00E94EF0581E00E94EF
:101B40002B0761E088E60E945C061092C401809336
:101B5000C30180910E0390910F03DC01ED91FC9184
:101B60000284F385E02D0995982F92959F70C82FD8
:101B7000CF7086FF11C19170BAE09B9FC00D1124F8
:101B8000D0E00E94C008082F10E080910E039091D1
:101B90000F03F1E0F093C50128E62093E7011092CE
:101BA000C6011092E80170E060E00E94EF0581E05C
:101BB0000E942B070E94A4088091000190910101CE
:101BC0000817190709F447C0B801012E000C880B4B
:101BD000990B0E947D1029E838E848E052E40E9401
:101BE00032112B013C012091B6013091B701409197
:101BF000B8015091B9010E94D30F6B017C0120E024
:101C000030E040E854E40E942D1118160CF0CAC0D0
:101C100020E030E040E055E4C701B6010E94D30F58
:101C20006B017C0120E030E0A901C701B6010E94F0
:101C30002D1118160CF0C9C020E030E040E05FE341
:101C4000C701B6010E942D1118160CF4C8C01093DC
:101C50000101009300014091E2025091E30270E023
:101C600060E08091E7029091E8020E94C412C09067
:101C7000B201D090B301E090B401F090B50168E0FA
:101C8000C6010E94FE002B013C01A090E002B09032
:101C9000E102A114B10499F088E1A816B10418F08A
:101CA00048E1A42EB12C10E000E0B301A201C8016C
:101CB0000E948D000F5F1F4FA016B106B1F76FE7AE
:101CC000C60190580E94FE002B013C01A090E0024A
:101CD000B090E102A9E1AA16B10498F0B4E2AB1603
:101CE000B10418F034E2A32EB12C08E110E0B301E6
:101CF000A201C8010E948D000F5F1F4FA016B10600
:101D0000B1F7EFEFDE1AEE0AFE0AEE24FF24C092CE
:101D1000B201D092B301E092B401F092B501CE01CC
:101D2000B1010E94620F4FEF5FEF6FEF70E000971D
:101D300009F0A1C090E080E00E948D000E94DB03CA
:101D400068EE73E080E090E00E94AE04811491049C
:101D500009F4E2CE0E944C05882309F4DDCE0E94EE
:101D60000000DACE20E030E040E05FEBC701B601D2
:101D70000E94401087FFC1CEC701B6010E944510E6
:101D8000CB010E9436038092B6019092B701A092D7
:101D9000B801B092B901B1CE9370EAE09E9FC00D38
:101DA0001124EECE20E030E040E854ECC701B6014B
:101DB0000E94401087FF36CF20E030E040E055E43D
:101DC000C701B6010E94D40F2BCF20E030E040E0E5
:101DD0005FEBC701B6010E94401087FF38CFC701F3
:101DE000B6010E944510CB010E94360320E030E08E
:101DF00040E055E4C301B2010E942D1187FF2AC0C3
:101E00004092B6015092B7016092B8017092B90148
:101E1000C090B601D090B701E090B801F090B90140
:101E200020E030E0A901C701B6010E94401087FF01
:101E30000ECF20E030E040E055E4C701B6010E943B
:101E4000D40F6093B6017093B7018093B80190935B
:101E5000B901FDCE20E030E040E055E4C301B2011D
:101E60000E94D30F6093B6017093B7018093B801BD
:101E70009093B901CDCF880F991F5ECF8091E70273
:101E80009091E8020E943B128091E4029091E50259
:101E900097FD03C060E00C94D5020895AA1BBB1BFC
:101EA00051E107C0AA1FBB1FA617B70710F0A61B5A
:101EB000B70B881F991F5A95A9F780959095BC017B
:101EC000CD01089597FB072E16F4009407D077FDF7
:101ED00009D00E944E0F07FC05D03EF490958195E5
:101EE0009F4F0895709561957F4F0895A1E21A2E36
:101EF000AA1BBB1BFD010DC0AA1FBB1FEE1FFF1FAE
:101F0000A217B307E407F50720F0A21BB30BE40BFD
:101F1000F50B661F771F881F991F1A9469F7609544
:101F20007095809590959B01AC01BD01CF010895FE
:101F3000052E97FB1EF400940E94AF0F57FD07D0AB
:101F40000E94760F07FC03D04EF40C94AF0F50950F
:101F50004095309521953F4F4F4F5F4F0895909595
:101F60008095709561957F4F8F4F9F4F08950E9488
:101F7000BE0FB7FF0895821B930B0895A29FB00177
:101F8000B39FC001A39F700D811D1124911DB29FAD
:101F9000700D811D1124911D0895EE0FFF1F0590F6
:101FA000F491E02D09945058BB27AA270E94EB0F0B
:101FB0000C94F3100E94E51038F00E94EC1020F011
:101FC00039F49F3F19F426F40C94E2100EF4E095D6
:101FD000E7FB0C94DC10E92F0E94041158F3BA17A8
:101FE000620773078407950720F079F4A6F50C942F
:101FF00026110EF4E0950B2EBA2FA02D0B01B9017E
:1020000090010C01CA01A0011124FF27591B99F06E
:10201000593F50F4503E68F11A16F040A22F232F7A
:10202000342F4427585FF3CF469537952795A795CA
:10203000F0405395C9F77EF41F16BA0B620B730B71
:10204000840BBAF09150A1F0FF0FBB1F661F771FE2
:10205000881FC2F70EC0BA0F621F731F841F48F497
:10206000879577956795B795F7959E3F08F0B0CF20
:102070009395880F08F09927EE0F97958795089507
:102080000E94B81008F481E008950E944C106894F2
:10209000B1110C94271108950E940C1188F09F57DC
:1020A00098F0B92F9927B751B0F0E1F0660F771F7C
:1020B000881F991F1AF0BA95C9F714C0B13091F072
:1020C0000E942611B1E008950C942611672F782FF5
:1020D0008827B85F39F0B93FCCF386957795679537
:1020E000B395D9F73EF490958095709561957F4FA3
:1020F0008F4F9F4F0895E89409C097FB3EF4909549
:102100008095709561957F4F8F4F9F4F9923A9F0D0
:10211000F92F96E9BB279395F6958795779567955F
:10212000B795F111F8CFFAF4BB0F11F460FF1BC0A3
:102130006F5F7F4F8F4F9F4F16C0882311F096E936
:1021400011C0772321F09EE8872F762F05C06623E4
:1021500071F096E8862F70E060E02AF09A95660F9D
:10216000771F881FDAF7880F9695879597F9089556
:10217000990F0008550FAA0BE0E8FEEF1616170698
:10218000E807F907C0F012161306E407F50798F000
:10219000621B730B840B950B39F40A2661F0232B19
:1021A000242B252B21F408950A2609F4A140A69595
:1021B0008FEF811D811D089597F99F6780E870E07A
:1021C00060E008959FEF80EC089500240A941616AD
:1021D000170618060906089500240A941216130615
:1021E000140605060895092E0394000C11F48823A3
:1021F00052F0BB0F40F4BF2B11F460FF04C06F5FBF
:102200007F4F8F4F9F4F089557FD9058440F551F94
:1022100059F05F3F71F04795880F97FB991F61F068
:102220009F3F79F087950895121613061406551FDF
:10223000F2CF4695F1DF08C0161617061806991F4B
:10224000F1CF86957105610508940895E894BB2740
:1022500066277727CB0197F908950E94B81008F4F4
:102260008FEF08950E9445110C94F3100E94E51021
:1022700038F00E94EC1020F0952311F00C94DC1043
:102280000C94E21011240C9427110E94041170F395
:10229000959FC1F3950F50E0551F629FF001729F0B
:1022A000BB27F00DB11D639FAA27F00DB11DAA1F1A
:1022B000649F6627B00DA11D661F829F2227B00D67
:1022C000A11D621F739FB00DA11D621F839FA00DF2
:1022D000611D221F749F3327A00D611D231F849F42
:1022E000600D211D822F762F6A2F11249F57504099
:1022F0009AF0F1F088234AF0EE0FFF1FBB1F661F14
:10230000771F881F91505040A9F79E3F510580F0DC
:102310000C94DC100C9427115F3FE4F3983ED4F347
:10232000869577956795B795F795E7959F5FC1F780
:10233000FE2B880F911D9695879597F908950F9319
:102340001F93CF93DF938230910510F482E090E0E9
:10235000E0911203F091130330E020E0B0E0A0E040
:10236000309799F42115310509F44AC0281B390B1F
:1023700024303105D8F58A819B816115710589F179
:10238000FB0193838283FE0111C040815181028150
:10239000138148175907E0F04817590799F4109727
:1023A00061F012960C93129713961C933296CF01FC
:1023B000DF91CF911F910F91089500931203109315
:1023C0001303F4CF2115310551F04217530738F0AC
:1023D000A901DB019A01BD01DF01F801C1CFEF01C5
:1023E000F9CF9093130380931203CDCFFE01E20F38
:1023F000F31F819391932250310939832883D7CFDA
:102400002091100330911103232B41F420910401FA
:1024100030910501309311032093100320910201A4
:10242000309103012115310541F42DB73EB740919C
:10243000060150910701241B350BE0911003F09128
:102440001103E217F307A0F42E1B3F0B28173907DF
:1024500078F0AC014E5F5F4F2417350748F04E0F00
:102460005F1F5093110340931003819391939FCF6B
:10247000F0E0E0E09CCFCF93DF930097E9F0FC0120
:10248000329713821282A0911203B0911303ED01CF
:1024900030E020E01097A1F420813181820F931F5A
:1024A00020911003309111032817390709F061C0FA
:1024B000F0931103E0931003DF91CF910895EA01A7
:1024C000CE17DF07E8F54A815B819E014115510572
:1024D000B1F7E901FB83EA8349915991C40FD51FF4
:1024E000EC17FD0761F4808191810296840F951F9E
:1024F000E90199838883828193819B838A83F0E0B9
:10250000E0E012968D919C9113970097B9F52D916B
:102510003C911197CD010296820F931F20911003D9
:10252000309111032817390739F6309751F5109279
:10253000130310921203B0931103A0931003BCCFA6
:10254000D383C28340815181840F951FC817D90757
:1025500061F44E5F5F4F88819981480F591F518305
:1025600040838A819B81938382832115310509F001
:10257000B0CFF0931303E09312039ECFFD01DC0173
:10258000C0CF13821282D7CFDC0101C06D934150BE
:102590005040E0F7089510E0C2E6D0E004C0FE012C
:1025A0000E94CD0F2196C336D107C9F7F894FFCF0B
:1025B000FFFF000014038000000000008205E20419
:1025C0000F05CF0540051E0532050000000072080A
:1025D0004508A1081B083E082B081C080D0A003DF1
:1025E0003D3D2048796272696420436C6F636B20C3
:1025F0005374617274696E67203D3D3D0043616CA8
:102600006962726174696E672E2E2E003D3D3D2019
:0A2610005265616479203D3D3D00F4
:00000001FF
