:100000000C9472000C949A000C949A000C949A0030
:100010000C949A000C949A000C949A000C949A00F8
:100020000C949A000C949A000C949A000C949A00E8
:100030000C949A000C949A000C949A000C949A00D8
:100040000C94950A0C949A000C94050B0C94DF0AFE
:100050000C949A000C949A000C949A000C949A00B8
:100060000C94370B0C949A0005A84CCDB2D44EB921
:100070003836A9020C50B9918688083CA6AAAA2A4B
:10008000BE000000803F00000000240027002A007E
:1000900000000000230026002900000000080002E4
:1000A000010000030407000000000000000001023E
:1000B00004081020408001020408102001020408F6
:1000C000102000000000250028002B000404040478
:1000D00004040404020202020202030303030303F2
:1000E000560C011511241FBECFEFD8E0DEBFCDBFE7
:1000F00011E0A0E0B1E0ECEBF4E302C005900D925A
:10010000A83FB107D9F723E0A8EFB1E001C01D92E5
:10011000A23AB207E1F710E0C1E7D0E004C02197AE
:10012000FE010E944716C037D107C9F70E945B0D38
:100130000C94511A0C9400008F929F92AF92BF9230
:10014000CF92DF92EF92FF92CF9320916E03309186
:100150006F0382179307E8F54B01AA24BB24C82D2F
:10016000C52ED62EE72EFF24BC2DA42F209174037C
:10017000222361F0829E40011124C92D2C9D600133
:100180001124BD2D249FF0011124AF2FE0917A039B
:10019000E0907503F090760330917703E31323C06A
:1001A0009C01220F331F820F931F8E0D9F1DE09124
:1001B0007703E80FF92FF11DC083E0917803E80F72
:1001C000F92FF11DB08320917903820F911DFC015D
:1001D000A083CF91FF90EF90DF90CF90BF90AF9032
:1001E0009F908F900895880F991F880F991F8E0DEB
:1001F0009F1D472F552766277727222349F030E098
:10020000249F7001259FF00C349FF00C11244F2D7A
:10021000E80FF92FF11D4083CACFCF92DF92EF9202
:10022000FF920F931F93CF93DF936B017C01EA0141
:1002300000916E0310916F034017510798F4211538
:10024000310531F0240F351F2017310708F48901DB
:10025000C017D10738F4B701A601CE010E949C0057
:100260002196F6CFDF91CF911F910F91FF90EF90E4
:10027000DF90CF900895833081F028F4813099F099
:100280008230A9F008958730A9F08830C9F0843011
:10029000B1F4809180008F7D03C0809180008F77C2
:1002A00080938000089584B58F7784BD089584B5C8
:1002B0008F7DFBCF8091B0008F778093B000089541
:1002C0008091B0008F7DF9CFCF93DF93ECE9F0E020
:1002D0008491E0EBF0E0D491EEECF0E0C491CC231B
:1002E000A1F081110E943B01EC2FF0E0EE0FFF1F07
:1002F000E057FF4FA591B491EC91ED2381E090E0A0
:1003000009F480E0DF91CF91089580E090E0FACF8A
:100310001F93CF93DF93282F30E0F901E656FF4F6C
:100320008491F901E255FF4FD491F901E453FF4F55
:10033000C491CC23A9F0162F81110E943B01EC2F10
:10034000F0E0EE0FFF1FEE53FF4FA591B4918FB772
:10035000F894EC91111108C0D095DE23DC938FBF87
:10036000DF91CF911F910895DE2BF8CFCF93DF93CC
:10037000EC0180918A0390918B03029749F4C1307C
:10038000D10509F43BC06CF560E0209709F437C053
:1003900080918A0390918B03049749F4C130D10571
:1003A00009F45CC00CF037C0209709F442C080917A
:1003B0008A0390918B03059709F0E5C0CA30D105F7
:1003C00008F0E1C0FE01E951FE4F0C9447164602C9
:1003D000520263027902940296029D02A902BA02B5
:1003E000C102C230D105A9F060E0C330D10581F669
:1003F00080918E030E94880160E006C061E08091D8
:100400008E030E94880161E0809190030E94880120
:10041000BFCF61E0EDCFC230D10539F1C330D10596
:1004200009F0C5CF61E080918E030E94880160E0F1
:1004300022C061E080918E030E94880160E080917B
:1004400090030E94880161E0809192030E948801DC
:1004500060E0809194030E948801A9CF60E08091C0
:100460008E030E94880161E0EACF60E080918E03F4
:100470000E94880161E0809190030E94880160E001
:10048000809192030E94880161E0E3CF60E0809157
:100490008E030E94880161E0809190030E94880190
:1004A00061E00BC060E080918E030E94880161E0F2
:1004B000809190030E94880160E0809192030E94E5
:1004C000880160E010C060E080918E030E94880186
:1004D00061E0809190030E94880160E08091920326
:1004E0000E94880161E0809194030E94880161E08C
:1004F00015C060E080918E030E94880161E08091C8
:1005000090030E94880160E0809192030E9488011C
:1005100061E0809194030E94880160E080919603DD
:10052000DF91CF910C94880161E0E4CF61E080918C
:100530008E030E94880160E0E2CF61E080918E032B
:100540000E94880160E0809190030E94880161E030
:10055000DBCF61E080918E030E94880160E0809192
:1005600090030E94880161E0809192030E948801BB
:1005700060E0CFCF61E080918E030E94880160E04F
:100580008BCF60E0F8CFDF91CF910895CF93DF93C9
:1005900090E0FC01E255FF4F249184539F4FFC01F2
:1005A00084918823C9F090E0880F991FFC01EA57D5
:1005B000FF4FA591B491FC01EE53FF4FC591D4912B
:1005C00061110DC09FB7F8948C91209582238C9374
:1005D0008881282328839FBFDF91CF9108956230BF
:1005E00051F49FB7F8943C91822F809583238C938C
:1005F000E8812E2BEFCF8FB7F894EC912E2B2C9314
:100600008FBFEACF3FB7F89480914D0290914E0290
:10061000A0914F02B091500226B5A89B05C02F3F74
:1006200019F00196A11DB11D3FBFBA2FA92F982F18
:100630008827BC01CD01620F711D811D911D42E013
:10064000660F771F881F991F4A95D1F708954F921B
:100650005F926F927F928F929F92AF92BF92EF9232
:10066000FF920F931F93CF93DF93EC0197FF04C08A
:10067000CC27DD27C81BD90B181619060CF061C052
:1006800081E090E0909383038093820304E010E084
:100690008AE0E82EF12C209709F46FC00E94020333
:1006A0008090980390909903A0909A03B0909B0338
:1006B0002B013C01481859086A087B088090840384
:1006C00090908503A0908603B09087034814590446
:1006D0006A047B0400F360939803709399038093FA
:1006E0009A0390939B0380918C0390918D032091AA
:1006F0008203309183032130310559F5019690939F
:100700008D0380938C032091880330918903821795
:10071000930721F410928D0310928C0321978091FE
:100720008C0390918D0320918A0330918B03B70144
:100730002530310509F0B8010E94C9150E94B601A3
:10074000AACF892B09F4A2CF1092830310928203BF
:100750009DCF892B41F480918803909189039093D8
:100760008D0380938C0380918C0390918D0301976E
:1007700090938D0380938C03D1CFDF91CF911F9104
:100780000F91FF90EF90BF90AF909F908F907F90D0
:100790006F905F904F9008950F931F93CF93DF93C7
:1007A000CDB7DEB729970FB6F894DEBF0FBECDBF29
:1007B0008091750390917603892B09F47CC00E9487
:1007C000020300917B0310917C0320917D03309103
:1007D0007E03601771078207930740F460937B03E1
:1007E00070937C0380937D0390937E0300917B0341
:1007F00010917C0320917D0330917E03601B710B6F
:10080000820B930B6C32714081059105C0F2F89414
:1008100080917003909171039A838983E0917503AD
:10082000F0917603DF0111968081898790916C03A6
:10083000E0917F03F091800380918103992309F473
:1008400045C09081982B98879081809589238F83CC
:100850008F818C8388E08B8358856F8149853B81AC
:100860002C8189819A81508347FD252F3A952083D9
:10087000262F39F0441F00C000006083000000C034
:10088000F2CF38E04D9160830000019761F7F0935B
:100890008003E0937F0349873B832C839A8389837A
:1008A00078940E94020360937B0370937C0380938F
:1008B0007D0390937E0329960FB6F894DEBF0FBE9A
:1008C000CDBFDF91CF911F910F9108959081982B0B
:1008D00098879081809589238F838F818E8388E08C
:1008E0008D8358856F8149853D812E8189819A81CB
:1008F000508347FD252F00C000C0208300C000C0EA
:1009000000C000C000C060830000262F3A9541F06F
:10091000441F000000C000C000C000C000C0E8CFFD
:1009200038E04D9100C0608300C0019709F7F09353
:100930008003E0937F0349873D832E83AFCF8F925F
:100940009F92AF92BF92CF92DF92EF92FF926B0194
:100950007C010E9402034B015C01C114D104E1043B
:10096000F104B9F00E940203681979098A099B0908
:10097000683E73408105910580F321E0C21AD108D9
:10098000E108F10888EE880E83E0981EA11CB11CD6
:10099000E4CFFF90EF90DF90CF90BF90AF909F900B
:1009A0008F9008952FB7F8946091490270914A0290
:1009B00080914B0290914C022FBF089508950895A5
:1009C000AF92BF92CF92DF92EF92FF920F931F935D
:1009D000CF93DF936C017B018B01040F151FEB019B
:1009E0005E01AE18BF08C017D10759F06991D60152
:1009F000ED91FC910190F081E02DC6010995892BC4
:100A000079F7C501DF91CF911F910F91FF90EF9082
:100A1000DF90CF90BF90AF900895FC01538D448D2F
:100A2000252F30E0842F90E0821B930B541710F099
:100A3000CF96089501970895FC01918D828D9817A6
:100A400061F0A28DAE0FBF2FB11D5D968C91928D7E
:100A50009F5F9F73928F90E008958FEF9FEF0895AF
:100A6000FC01918D828D981731F0828DE80FF11D78
:100A7000858D90E008958FEF9FEF0895FC01918D93
:100A8000228D892F90E0805C9F4F821B91098F738C
:100A90009927089583EC92E00E943E0521E0892B7E
:100AA00009F420E0822F089580E090E0892B29F05E
:100AB0000E944A0581110C9400000895FC01A48D48
:100AC000A80FB92FB11DA35ABF4F2C91848D90E070
:100AD00001968F739927848FA689B7892C93A08953
:100AE000B1898C91837080648C93938D848D9813DD
:100AF00006C00288F389E02D80818F7D8083089570
:100B0000EF92FF920F931F93CF93DF93EC0181E05D
:100B1000888F9B8D8C8D98131AC0E889F989808104
:100B200085FF15C09FB7F894EE89FF896083E88937
:100B3000F98980818370806480839FBF81E090E029
:100B4000DF91CF911F910F91FF90EF900895F62EB6
:100B50000B8D10E00F5F1F4F0F731127E02E8C8D50
:100B60008E110CC00FB607FCFACFE889F989808195
:100B700085FFF5CFCE010E945E05F1CFEB8DEC0F26
:100B8000FD2FF11DE35AFF4FF0829FB7F8940B8FB2
:100B9000EA89FB8980818062CFCFCF93DF93EC011C
:100BA000888D8823B9F0AA89BB89E889F9898C9155
:100BB00085FD03C0808186FD0DC00FB607FCF7CF11
:100BC0008C9185FFF2CF808185FFEDCFCE010E9411
:100BD0005E05E9CFDF91CF9108958F929F92AF92FA
:100BE000BF92EF92FF920F931F93CF93DF93C62F85
:100BF0009C01AAEFB5E00E943816DC01CB019058A9
:100C0000AF4FBF4FCD01BB2797FDB095AB2F8E3FA8
:100C100021E0920708F059C0382F8F3F910508F462
:100C200073C05EEF581BE0E03FEF042F10E00F5F52
:100C30001F4FEC2EF12C8FEFE81AF80AC095D0E088
:100C40003E9DC0013F9D900D1124292F33272C0F6D
:100C50003D1FD8010E941E164B015C018824AA2466
:100C6000BB24EE9D9001EF9D300D1124232F3327DF
:100C70002C0F3D1F0E941E16672F782F892F992752
:100C8000862A972AA82AB92A5E9D90015F9D300D79
:100C90001124232F33272C0F3D1F0E941E16982F3F
:100CA000872F762F6627662777279927682979293E
:100CB0008A299B29DF91CF911F910F91FF90EF908F
:100CC000BF90AF909F908F9008958C3F23E0920744
:100CD00060F4E2E0E80F3FEF8D3F22E0920718F06A
:100CE0003CEF381BEFEF50E0A0CF8A3F25E09207A2
:100CF00071F0EAEFE81B8B3F24E0920748F454E0E0
:100D0000580FEFEF30E091CFE0E05FEF8ECFE0E003
:100D100030E0FBCFDC01ED91FC910190F081E02D02
:100D2000099420911902260F3327331F21323105F0
:100D3000ECF42091BD02FC0190E080E0243069F0E9
:100D400082E00895A09119022191AC0147505E4FB5
:100D5000A40FB52FB11D2C930196861798F380919F
:100D60001902680F6093190280E0089581E00895E8
:100D70001092BD0281E080939C021092970261E084
:100D800082E10E94880161E083E10E948801E9EB31
:100D9000F0E080818E7F808380818D7F808388E4F6
:100DA0008093B80085E48093BC000895CF93DF93CF
:100DB00091E09093F8018823B9F0C091B800D091E8
:100DC000BA008091BC008A7B8093BC0060E082E125
:100DD0000E94880160E083E10E9488010E94B806B9
:100DE000D093BA00C093B800DF91CF910895CF920D
:100DF000DF92EF92FF920F931F93CF93DF93D82F41
:100E0000C62F613208F098C00E9402036B017C017A
:100E10008091BD0281116BC081E08093BD028093FF
:100E20009C029FEF90939B0210929A029C0F9093CA
:100E300099028093980280919802DD0FD82BD0936D
:100E4000980280919702813009F078C01092970241
:100E50000E9402036B017C01809198028093BB0089
:100E60008091BF029091C002A091C102B091C202D4
:100E7000892B8A2B8B2BA1F00E9402030091BF02C9
:100E80001091C0022091C1023091C2026C197D09FB
:100E90008E099F09061717072807390708F448C065
:100EA0008091BC0083FDD8CF85EC8093BC000E946C
:100EB00002036B017C018091BD02813009F440C0C6
:100EC00080919A028C1710F4C0919A02E7E7F2E041
:100ED000ADE9B2E080E08C1355C08C2FDF91CF914B
:100EE0001F910F91FF90EF90DF90CF900895809128
:100EF000BF029091C002A091C102B091C202892BA1
:100F00008A2B8B2B09F484CF0E9402030091BF022D
:100F10001091C0022091C1023091C2026C197D096A
:100F20008E099F09061717072807390708F070CFA1
:100F30008091BE020E94D606C0E0CFCF85EEB5CF2D
:100F40008091BF029091C002A091C102B091C202F3
:100F5000892B8A2B8B2B09F4AECF0E9402030091C0
:100F6000BF021091C0022091C1023091C2026C19DF
:100F70007D098E099F09061717072807390708F00A
:100F80009ACFD6CF91919D938F5FA5CF8F929F924D
:100F9000AF92BF92CF92DF92EF92FF920F931F9387
:100FA000CF93DF93D0917602D13208F0D7C0182FBB
:100FB000C09175020E9402036B017C018091BD0209
:100FC00081116BC082E08093BD0210939C028FEF71
:100FD00080939B0210929A02D0939902A5E5B2E009
:100FE000E7E7F2E080E0D81391C010929802809178
:100FF0009802CC0FC82BC093980280919702813041
:1010000009F088C0109297020E9402036B017C01D4
:10101000809198028093BB008091BF029091C002A2
:10102000A091C102B091C202892B8A2B8B2BA1F017
:101030000E9402030091BF021091C0022091C102E0
:101040003091C2026C197D098E099F090617170796
:101050002807390708F442C08091BC0083FDD8CF2F
:1010600085EC8093BC000E9402036B017C0180919F
:10107000BD02823009F450C080919B028F3F09F479
:101080006FC080919B02803209F46CC080919B02FA
:10109000803309F469C084E026C08091BF0290913A
:1010A000C002A091C102B091C202892B8A2B8B2B66
:1010B00009F484CF0E9402038090BF029090C00286
:1010C000A090C102B090C2026C197D098E099F09DF
:1010D00086169706A806B90608F070CF8091BE0262
:1010E0000E94D60685E01092540210927602109269
:1010F0005302DF91CF911F910F91FF90EF90DF90FE
:10110000CF90BF90AF909F908F9008959D919193B5
:101110008F5F69CF85EEA5CF8091BF029091C0020D
:10112000A091C102B091C202892B8A2B8B2B09F4AA
:101130009ECF0E9402030091BF021091C002209135
:10114000C1023091C2026C197D098E099F090617F0
:1011500017072807390708F08ACFC0CF81E0C3CF2F
:1011600080E0C1CF82E0BFCF83E0BDCF0895E091A2
:10117000520280915102E81730F4F0E0E356FD4F3F
:10118000808190E008958FEF9FEF08959091520233
:10119000809151022FEF3FEF981748F4E92FF0E0CC
:1011A000E356FD4F208130E09F5F90935202C901CA
:1011B00008958091510290915202891B990B0895D4
:1011C000CF92DF92EF92FF920F931F93CF93DF9313
:1011D0007C01CB018A0120915302222389F0EB018B
:1011E0006B01C40ED51ECC15DD0569F06991D701E0
:1011F000ED91FC910190F081E02DC7010995F3CFAD
:10120000642F0E949106C801DF91CF911F910F9129
:10121000FF90EF90DF90CF900895CF93DF931F92D0
:10122000CDB7DEB76983209153022223F9F02091D4
:101230007602203258F021E030E0FC013383228333
:1012400090E080E00F90DF91CF910895809154025B
:10125000E82FF0E0EB5AFD4F998190838F5F8093E8
:1012600054028093760281E090E0ECCF61E0CE0101
:1012700001960E949106F7CF90E080E008950F93C9
:101280001F93CF93DF938C01EB0180919C0390918E
:101290009D0321E02093530228E6209375021092CB
:1012A00054021092760262E070E00E948A0681E0A9
:1012B0000E94C60761E088E60E94F706109252027B
:1012C0008093510280919C0390919D03DC01ED91EC
:1012D000FC910284F385E02D099521E0AC01407476
:1012E000552786FF20E0F8012083282F22952F70B4
:1012F000382F3F70452B79F085FB992790F998831B
:101300002170832FFAE02F9F800D1124DF91CF9160
:101310001F910F9108952370832F9AE0299F800DCC
:101320001124F4CF61E088E60E94F7061092520281
:101330008093510280919C0390919D03DC01ED917B
:10134000FC910284F385E02D0995982F92959F706A
:101350008F70BAE09B9F800D1124089580919C03AB
:1013600090919D0321E02093530228E6209375027B
:10137000109254021092760261E070E00E948A0698
:1013800081E00E94C6070C949209FC0101900020A4
:10139000E9F73197AF01481B590BBC0183EC92E090
:1013A0000C94E0048F929F92AF92BF920F931F9381
:1013B000CF93DF93CDB7DEB7A1970FB6F894DEBF1A
:1013C0000FBECDBF19A2423008F44AE08E010F5D76
:1013D0001F4F842E912CB12CA12CA50194010E94A9
:1013E000DD15E62FB901CA01EA30F4F4E05DD80159
:1013F000EE938D01232B242B252B79F790E080E0B1
:10140000109719F0CD010E94C509A1960FB6F89466
:10141000DEBF0FBECDBFDF91CF911F910F91BF9067
:10142000AF909F908F900895E95CE1CFCF92DF92CB
:10143000EF92FF92CF93DF936B017C016DE283EC1F
:1014400092E00E948005EC0166277727CB016C199A
:101450007D098E099F094AE00E94D2098C0F9D1FC9
:10146000DF91CF91FF90EF90DF90CF900895CF93D1
:10147000DF93BC01990F880B990B97FF0CC00E945A
:10148000160AEC0185E491E00E94C5098C0F9D1FAE
:10149000DF91CF9108954AE00E94D209F2CFCF9315
:1014A000DF930E94C509EC0185E491E00E94C50923
:1014B0008C0F9D1FDF91CF91089585ED8093BC0027
:1014C0008091BF029091C002A091C102B091C2026E
:1014D0000796A11DB11D23E0B695A7959795879511
:1014E0002A95D1F72091BC0024FD03C01092BD02C3
:1014F00008954091BF025091C0026091C102709165
:10150000C202452B462B472B69F30097A105B10575
:1015100041F02AE22A95F1F700C00197A109B1092B
:10152000E1CF8091BE020C94D6061F920F920FB6A7
:101530000F9211242F933F938F939F93AF93BF9359
:101540008091490290914A02A0914B02B0914C02C5
:101550003091480223E0230F2D3758F50196A11D45
:10156000B11D209348028093490290934A02A093B0
:101570004B02B0934C0280914D0290914E02A0918B
:101580004F02B09150020196A11DB11D80934D02F2
:1015900090934E02A0934F02B0935002BF91AF912F
:1015A0009F918F913F912F910F900FBE0F901F90A1
:1015B000189526E8230F0296A11DB11DD2CF1F92C8
:1015C0000F920FB60F9211242F933F934F935F9377
:1015D0006F937F938F939F93AF93BF93EF93FF93FB
:1015E00083EC92E00E945E05FF91EF91BF91AF9175
:1015F0009F918F917F916F915F914F913F912F912B
:101600000F900FBE0F901F9018951F920F920FB65C
:101610000F9211242F938F939F93EF93FF93E09159
:10162000D302F091D4028081E091D902F091DA02E4
:1016300082FD1BC090818091DC028F5F8F732091AF
:10164000DD02821741F0E091DC02F0E0ED53FD4F46
:10165000958F8093DC02FF91EF919F918F912F9155
:101660000F900FBE0F901F9018958081F4CF1F929E
:101670000F920FB60F9211242F933F934F935F93C6
:101680006F937F938F939F93AF93BF93EF93FF934A
:101690008091B900887F803609F44AC0F0F588321D
:1016A00009F4A7C018F5803109F49BC0B8F4882369
:1016B00009F4F9C0883009F494C0FF91EF91BF910B
:1016C000AF919F918F917F916F915F914F913F91DA
:1016D0002F910F900FBE0F901F901895883109F42D
:1016E00088C0803251F780939B0214C0803409F483
:1016F0009DC040F48033B9F38833F9F680939B02A0
:1017000085ECB0C0803509F485C0883509F496C0F1
:10171000883499F60E945D0AD0CF883909F48CC0CC
:1017200038F5883729F050F4883611F0803729F6DB
:1017300083E08093BD0210923B0257C0883809F4C1
:101740007BC0803919F0803809F0B7CF80913B0217
:10175000803208F071C0E0913B0281E08E0F8093EF
:101760003B028091BB00F0E0E55EFD4F80833DC011
:10177000803B39F0E0F4803A09F479C0883A09F006
:101780009CCF84E08093BD0210921A02109219023D
:10179000E0913E02F0913F0209958091190281117A
:1017A0000FC081E0809319021092F90109C0803CBA
:1017B00009F4A6CF883C09F4A3CF883B09F07DCF7C
:1017C000E0911A0281E08E0F80931A02F0E0E75058
:1017D000FE4F80818093BB0090911A028091190284
:1017E00029C0809198028093BB0085EC8093BC0057
:1017F00064CF90919A0280919902981758F5E091E0
:101800009A0281E08E0F80939A02F0E0E958FD4F32
:101810008081E9CFE0919A0281E08E0F80939A0255
:101820008091BB00F0E0E958FD4F808390919A02CF
:10183000809199029817C8F285E8D8CFE0919A0272
:1018400081E08E0F80939A028091BB00F0E0E9580E
:10185000FD4F808380919C0281115CCF81E0809359
:10186000970284EA8093BC001092BD0226CF85ECDB
:101870008093BC001092BD0280913B02803230F414
:10188000E0913B02F0E0E55EFD4F108260913B028B
:1018900070E0E0913C02F0913D028BE192E009950D
:1018A00010923B020ACF10929B0234CF1092C602D4
:1018B0001092C50288EE93E0A0E0B0E08093C702EA
:1018C0009093C802A093C902B093CA0225E231E006
:1018D0003093C4022093C30225EC30E03093D00251
:1018E0002093CF0224EC30E03093D2022093D10237
:1018F00020EC30E03093D4022093D30221EC30E08E
:101900003093D6022093D50222EC30E03093D802F7
:101910002093D70226EC30E03093DA022093D902EC
:101920001092DC021092DD021092DE021092DF02B1
:101930001092630310926203809364039093650393
:10194000A0936603B093670387E391E090936103EC
:101950008093600380E693E090939D0380939C03C3
:1019600010928D0310928C031092830310928203C5
:10197000109298031092990310929A0310929B036D
:1019800080E098E090938903809388038EE090E054
:1019900090938F0380938E038FE090E09093910358
:1019A0008093900380E190E090939303809392035F
:1019B00081E190E0909395038093940361E08EE041
:1019C0000E94C60261E0809190030E94C60261E01D
:1019D000809192030E94C60261E0809194030E946C
:1019E000C602109297031092960384E090E09093C1
:1019F0008B0380938A0310926D03109274031092EC
:101A00007B0310927C0310927D0310927E0381E091
:101A100080937A03809377031092780392E09093F7
:101A2000790380936C038CE690E09093710380932C
:101A300070030E9425199093760380937503009795
:101A400089F12CE6FC0111922A95E9F784E290E0F5
:101A500090936F0380936E0386E090E090937303FE
:101A60008093720380916D03882341F061E086E0EA
:101A70000E94C60260E086E00E948801E2EDF0E08C
:101A8000E491F0E0EE0FFF1FEE53FF4F859194912C
:101A90009093800380937F03E4EBF0E0E491E09384
:101AA00081030895109271031092700310926F03D6
:101AB00010926E03D1CFCF93DF93CDB7DEB72E97C1
:101AC0000FB6F894DEBF0FBECDBF789484B58260A8
:101AD00084BD84B5816084BD85B5826085BD85B5D2
:101AE000816085BD80916E00816080936E00109250
:101AF00081008091810082608093810080918100CB
:101B0000816080938100809180008160809380005B
:101B10008091B10084608093B1008091B0008160B9
:101B20008093B00080917A00846080937A008091E5
:101B30007A00826080937A0080917A00816080933D
:101B40007A0080917A00806880937A001092C100B8
:101B5000E091D302F091D40282E08083E091CF0241
:101B6000F091D0021082E091D102F091D20280E196
:101B700080831092DB02E091D702F091D80286E0D8
:101B80008083E091D502F091D602808180618083CC
:101B9000E091D502F091D602808188608083E09147
:101BA000D502F091D602808180688083E091D502D1
:101BB000F091D60280818F7D808388E491E00E943D
:101BC0004F0A109252021092510210925402109237
:101BD00076020E94B8068EED94E090933F028093C7
:101BE0003E028FED94E090933D0280933C02809101
:101BF00072039091730397FD2EC061E00E94C602AC
:101C000060E0809172030E94880181E080936D03FF
:101C1000609174032091750330917603603421F153
:101C20006150E1F070E08FEF9FE30E94B515F9017C
:101C30004091700350917103CF01821B930B841765
:101C4000950778F44081469FC001479F900D11246D
:101C500090833196EDCF10926D03DACF70E060E0A3
:101C6000E6CF80E480937403409170035091710338
:101C700070E060E080917503909176030E944A1AAB
:101C80000E94CC032091880330918903032E000C1D
:101C9000440B550B60E077E883E993E00E94FF1561
:101CA000CA01B9012BE030E040E050E00E94FF158E
:101CB00020938403309385034093860350938703D6
:101CC00062E082E00E94C60286E691E00E944F0A2E
:101CD00030E020E050E040E06AE07AE08AE090E026
:101CE0000E940D010E94CC03109244021092450202
:101CF00010924602109247020E946401892B69F4F7
:101D000000E018E00E946401019739F081E090E062
:101D10000E94270301501109A9F700E018E00E9472
:101D20006401892B39F081E090E00E942703015083
:101D30001109A9F710E000E00E946401019779F011
:101D400081E090E00E9427030F5F1F4F60E070E08A
:101D5000CB010E949F04011520E1120769F785E776
:101D600091E00E94C509C8010E94370AE12CB8E041
:101D7000FB2E0E946401892B69F08FEF9FEF0E9478
:101D8000270360E070E0CB010E949F0481E0E81A25
:101D9000F10879F7F12CE12C0E946401019781F0A0
:101DA0008FEF9FEF0E9427039FEFE91AF90A60E087
:101DB00070E0CB010E949F04E114A0E1FA0661F7F4
:101DC00081E891E00E94C509C7010E94370A0E0D03
:101DD0001F1D6801D594C7948DE891E00E94C50944
:101DE000C6010E94370AF12CE12CCE14DF0409F061
:101DF000F7C015950795159507950B5F1F4FF12CAB
:101E0000E12C8FEF9FEF0E94270360E070E0CB0191
:101E10000E949F042FEFE21AF20A0E151F058CF79D
:101E2000109244021092450210924602109247020C
:101E300040E05FEF60E070E090E080E00E949C0096
:101E40000E94CC0360ED77E080E090E00E949F0468
:101E50001A8219820E94AE09E82EF12CBE016F5F32
:101E60007F4FCE0102960E943F09082F10E0F092AA
:101E70001401E0921301109312010093110140919B
:101E800070035091710370E060E080917503909150
:101E900076030E944A1AC0904002D090410248E066
:101EA0006FEFC6010E94ED0528E130E050E040E010
:101EB0000E940D014FE76FEFC60190580E94ED059B
:101EC0002CE030E048E150E00E940D01C8016CE0D8
:101ED00070E00E94C9156C01AFEFCA1ADA0A01E07E
:101EE00010E00C151D054CF44FEF5FEF6FEF70E045
:101EF000C801880F991F0E949C000F5F1F4F0C3074
:101F0000110579F7CA94CD2841F44FEF5FEF6FEFD9
:101F100070E090E080E00E949C000E94CC03B7013A
:101F2000FF0C880B990B0E946E1729E838E848E0EF
:101F300052E40E9462184B015C01209144023091EE
:101F4000450240914602509147020E944D166B0196
:101F50007C0120E030E0A9010E945D1818160CF009
:101F60004CC020E030E040E05FE3C701B6010E94D2
:101F70005D1818160CF44BC08CE991E00E944F0AD2
:101F800080919C0390919D0321E02093530228E6C9
:101F900020937502109254021092760270E060E075
:101FA0000E948A0681E00E94C6070E94920990E082
:101FB000209115013091160182179307C1F562E354
:101FC00070E080E090E00E949F0480E090E0892B28
:101FD000B9F20E944A05882399F20E940000D0CFEE
:101FE00081E090E00E94270360E070E0CB010E9456
:101FF0009F04BFEFEB1AFB0AF8CE20E030E040E090
:102000005FEBC701B6010E94BA1687FFB5CFC701C3
:10201000B6010E943617CB010E942703809244022A
:1020200090924502A0924602B0924702A5CF9093AB
:102030001601809315011C821B82BE016D5F7F4FCC
:10204000CE0104960E943F09082F10E00E94AE09BD
:10205000A82EB12C8091130190911401A816B906F5
:1020600009F447C0B5010B2C000C880B990B0E949A
:102070006E1729E838E848E052E40E9462182B0104
:102080003C0120914402309145024091460250911A
:1020900047020E944D166B017C0120E030E040E8D1
:1020A00054E40E945D1818160CF013C120E030E0D3
:1020B00040E055E4C701B6010E944D166B017C015A
:1020C00020E030E0A901C701B6010E945D18181692
:1020D0000CF012C120E030E040E05FE3C701B60140
:1020E0000E945D1818160CF411C1B0921401A09250
:1020F00013012091110130911201C8016CE070E0D0
:102100000E94C9159E838D830217130779F12F3F13
:102110003F4F61F1ED80FE80EE0CFF1C53E0C52EB9
:10212000D12C4FEF5FEF6FEF70E0C7010E949C0072
:102130000E94CC0368EC70E080E090E00E949F0475
:1021400040E050E0BA01C7010E949C000E94CC030D
:1021500068EC70E080E090E00E949F0491E0C91A72
:10216000D108F9F610931201009311014091700308
:102170005091710370E060E0809175039091760357
:102180000E944A1A0E94D204BE016F5F7F4FCE01A7
:1021900002960E943F09F82E082F10E080910F014F
:1021A000909110010817190709F444C00196F1F144
:1021B00087E480937C0080917A00806480937A0029
:1021C00080917A0086FDFCCF609178007091790053
:1021D000600F711F072E000C880B990B611571059C
:1021E0008105910511F00E94AC150E945D1522E059
:1021F00030E040E050E00E94FF15709301016093D1
:1022000000018AEA91E00E94C5096F2D70E090E01C
:1022100080E04AE00E94D2098BEB91E00E94C50960
:1022200080910001909101010E94370A10931001E2
:1022300000930F0180910A01882309F483C10E9451
:10224000D20400910B0110910C0120910D013091ED
:102250000E01601B710B820B930B0E946C1720E028
:1022600030E44CE955E40E94C4166B017C0120E087
:1022700030E040E85FE30E945D1887FD93C0109254
:102280000A010D811E810F5F1F4FEE24E394F12C94
:10229000E016F1064CF44FEF5FEF6FEF70E0C7010F
:1022A000880F991F0E949C009FEFE91AF90AACE081
:1022B000EA16F10469F70130110541F44FEF5FEFC1
:1022C0006FEF70E090E080E00E949C000E94CC03E1
:1022D0007CCE20E030E040E854ECC701B6010E941B
:1022E000BA1687FFEDCE20E030E040E055E4C701AC
:1022F000B6010E944E16E2CE20E030E040E05FEBF7
:10230000C701B6010E94BA1687FFEFCEC701B6011A
:102310000E943617CB010E94270320E030E040E006
:1023200055E4C301B2010E945D1887FF2AC04092A4
:102330004402509245026092460270924702C09059
:102340004402D0904502E0904602F090470220E01F
:1023500030E0A901C701B6010E94BA1687FFC5CEB9
:1023600020E030E040E055E4C701B6010E944E167F
:102370006093440270934502809346029093470213
:10238000B4CE20E030E040E055E4C301B2010E9449
:102390004D166093440270934502809346029093D9
:1023A0004702CDCF2BED3FE049E450E4C701B60131
:1023B0000E9462180E94CF1820E030E048E453E405
:1023C0000E9462184B015C0110E000E020E030E068
:1023D00040EA51E4C501B4010E944E160E943D1727
:1023E000462F6D3D78F14CED64EB80914002909169
:1023F00041020E94ED05AB01BC01C8010E949C0096
:102400000F5F1F4F0432110509F784ED91E00E9420
:10241000C50920E030E048EC52E4C701B6010E9453
:1024200062186B017C01AC019B010E94D7188823C4
:1024300069F08AEE91E00E94C50986EF91E00E9462
:102440004F0A1FCF643180F644E1CECF2FEF3FEF2C
:102450004FE75FE7C701B6010E94D71881110DC091
:102460002FEF3FEF4FE75FE7C701B6010E94BA16B3
:1024700018161CF48EEE91E0DECF2FEF3FEF4FE702
:102480005FE4C701B6010E945D1818161CF482EFC4
:1024900091E0D1CF2FEF3FEF4FE75FECC701B601DF
:1024A0000E94BA1687FDF3CF2AE037ED43EA5BE3DB
:1024B000C701B6010E944E164B015C010E943D17F8
:1024C0006B017C010E946C179B01AC01C501B4013A
:1024D0000E944D164B015C014AE0C701B6010E9403
:1024E000D2096EE283EC92E00E94800520E030E0A9
:1024F00040E251E4C501B4010E9462184B015C0145
:102500000E943D176B01F12CE12C4AE0C701B60196
:102510000E94D209C701B6010E946C179B01AC0151
:10252000C501B4010E944D1620E030E040E251E4C4
:102530000E9462180E943D1790E080E04AE00E94ED
:10254000D2097BCF409040025090410260904202FD
:1025500070904302809100019091010182309105B9
:1025600009F493C08330910509F43BC182011058EE
:10257000019709F02FC20E94D2040E946C1720E03C
:1025800030E04AE754E40E94C4166B017C0120E06D
:1025900030E040E05FE30E9462180E94CF184B01D8
:1025A0005C012AE939E949E95EE3C701B6010E9405
:1025B000621820E030E040EC5FE30E944E160E947B
:1025C000CF186B017C0120E030E040E05FE3C50103
:1025D000B4010E94621820E030E040E05FE30E9416
:1025E0004E1620E030E044E352E40E94621820E0FE
:1025F00030E040EA50E40E944E160E943D17462FFC
:102600006FEFC2010E94ED0528E130E050E040E0AC
:102610000E940D0120E030E040E05FE3C701B60119
:102620000E94621820E030E040E05FE30E944E1616
:1026300020E030E044EB52E40E94621820E030E0F9
:1026400040EF51E40E944E160E943D17462F6FEF57
:10265000C8010E94ED052CE030E048E150E00E9406
:102660000D01C301B2017E5F8F4F9F4F20E030E02C
:1026700045E050E00E94DD156093400270934102F6
:102680008093420290934302FCCD0E94D2040E94A8
:102690006C1720E030E048E453E40E94C4164B017C
:1026A0005C0110E000E0720168E170E0601B710BFA
:1026B000061717070CF4B801072E000C880B990BAE
:1026C0000E946E172DEC3CEC4CE45FE30E94621814
:1026D0009B01AC01C501B4010E944D160E94CF18A8
:1026E00020E030E040E05FE30E94621820E030E04C
:1026F00040E05FE30E944E1620E030E040E252E40A
:102700000E94621820E030E040E251E40E944E1640
:102710000E943D17462F6FEFC7010E94ED05AB01E8
:10272000BC01C8010E949C000F5F1F4F08311105BA
:1027300009F0BACF10E000E0B0E8FB1A6CE070E0FE
:10274000601B710B061717070CF4B801072E000C5D
:10275000880B990B0E946E172AE939E949E95FE372
:102760000E9462189B01AC01C501B4010E944D1684
:1027700020E030E040E85FE30E944E160E94CF1850
:1027800020E030E040E05FE30E94621820E030E0AB
:1027900040E05FE30E944E1620E030E040EA52E461
:1027A0000E94621820E030E048E452E40E944E1695
:1027B0000E943D17462F6FEFC7010E94ED05AB0148
:1027C000BC01C80148960E949C000F5F1F4F0C304F
:1027D000110509F0B3CFC301B2017C5F8F4F9F4F4A
:1027E00045CF0E94D2040E946C176B017C0120E04F
:1027F00030E84BE355E40E94C4166F8378878987DD
:102800009A8720E030E04AEF54E4C701B6010E9405
:10281000C4166B877C878D879E87312C212CB10154
:10282000032C000C880B990B0E946E179B01AC01C6
:102830000E944E162BED3FE049E450E40E946218DE
:1028400020E030E040EC51E40E94C4162F8138852E
:1028500049855A850E944E166B017C010E94CF1853
:102860004B015C01C701B6010E94BF1620E030E0B9
:1028700040EF51E40E94621820E030E040EF51E464
:102880000E944E1620E030E040EA51E40E944E16CD
:102890000E943D17162FC301B2010E946C176B01F5
:1028A0007C0120E030E040E856E4C501B4010E941C
:1028B00062189B01AC01C701B6010E944E160E942E
:1028C0003D17CB01412F6FEF0E94ED05AB01BC011D
:1028D000C1010E949C002FEF221A320A88E12816BB
:1028E000310409F09CCF10E000E0D301C201905800
:1028F000AF4FBF4F8F839887A987BA87B801012E42
:10290000000C880B990B0E946E179B01AC010E9472
:102910004E162BED3FE049E450E40E94621820E09F
:1029200030E040E451E40E94C4162B853C854D857F
:102930005E850E944E166B017C010E94CF184B01F0
:102940005C01C701B6010E94BF1620E030E040E202
:1029500052E40E94621820E030E040E252E40E941B
:102960004E1620E030E040E752E40E944E160E94EE
:102970003D17362E6F81788589859A850E946C1760
:102980006B017C0120E030E040E856E4C501B40171
:102990000E9462189B01AC01C701B6010E944E164D
:1029A0000E943D17CB01432D6FEF0E94ED05AB0157
:1029B000BC01C80148960E949C000F5F1F4F0C305D
:1029C000110509F09BCFC301B2016B5A7E4F8F4FA7
:1029D0009F4F4CCE48E06FEFC2010E94ED0528E109
:1029E00030E050E040E00E940D014FE76FEFC8017A
:1029F0000E94ED052CE030E048E150E00E940D011E
:102A0000EACE80917503909176030E94C11980915E
:102A100072039091730397FD03C060E00C94C602AB
:102A200008958F929F92AF92BF92CF92DF92EF92D2
:102A3000FF92CF93DF93EC01688179818A819B813A
:102A4000611571058105910521F464E279ED8BE54D
:102A500097E02DE133EF41E050E00E94FF1549017E
:102A60005A019B01AC01A7EAB1E40E9425166B0153
:102A70007C01ACEEB4EFA50194010E943316C60EA2
:102A8000D71EE81EF91EF7FE06C081E0C81AD1085D
:102A9000E10880E8F80AC882D982EA82FB82C7018D
:102AA000B6019F77DF91CF91FF90EF90DF90CF90AD
:102AB000BF90AF909F908F9008958F929F92AF920A
:102AC000BF92CF92DF92EF92FF92609117017091C7
:102AD00018018091190190911A0161157105810504
:102AE000910521F464E279ED8BE597E02DE133EF78
:102AF00041E050E00E94FF1549015A019B01AC01E1
:102B0000A7EAB1E40E9425166B017C01ACEEB4EF9C
:102B1000A50194010E943316C60ED71EE81EF91EA9
:102B2000F7FE06C081E0C81AD108E10880E8F80A7B
:102B3000C0921701D0921801E0921901F0921A0187
:102B4000C701B6019F77FF90EF90DF90CF90BF90C5
:102B5000AF909F908F900895609317017093180124
:102B60008093190190931A010895AA1BBB1B51E190
:102B700007C0AA1FBB1FA617B70710F0A61BB70BED
:102B8000881F991F5A95A9F780959095BC01CD0192
:102B9000089597FB072E16F4009407D077FD09D00F
:102BA0000E94B51507FC05D03EF4909581959F4F86
:102BB0000895709561957F4F0895A1E21A2EAA1B82
:102BC000BB1BFD010DC0AA1FBB1FEE1FFF1FA217DD
:102BD000B307E407F50720F0A21BB30BE40BF50BDA
:102BE000661F771F881F991F1A9469F76095709563
:102BF000809590959B01AC01BD01CF010895052EF4
:102C000097FB1EF400940E94161657FD07D00E94F1
:102C1000DD1507FC03D04EF40C9416165095409524
:102C2000309521953F4F4F4F5F4F08959095809578
:102C3000709561957F4F8F4F9F4F08950E94381672
:102C4000B7FF0895821B930B08950E943816A59F25
:102C5000900DB49F900DA49F800D911D1124089597
:102C6000B7FF0C9425160E942516821B930B08951E
:102C7000A29FB001B39FC001A39F700D811D1124BD
:102C8000911DB29F700D811D1124911D0895EE0FAD
:102C9000FF1F0590F491E02D09945058BB27AA27F7
:102CA0000E9465160C940F180E94D61738F00E94E7
:102CB000DD1720F039F49F3F19F426F40C94D31754
:102CC0000EF4E095E7FB0C94CD17E92F0E94341821
:102CD00058F3BA17620773078407950720F079F451
:102CE000A6F50C9456180EF4E0950B2EBA2FA02DD5
:102CF0000B01B90190010C01CA01A0011124FF27A9
:102D0000591B99F0593F50F4503E68F11A16F040A3
:102D1000A22F232F342F4427585FF3CF46953795A2
:102D20002795A795F0405395C9F77EF41F16BA0B67
:102D3000620B730B840BBAF09150A1F0FF0FBB1F15
:102D4000661F771F881FC2F70EC0BA0F621F731F5E
:102D5000841F48F4879577956795B795F7959E3FBB
:102D600008F0B0CF9395880F08F09927EE0F97954C
:102D7000879508950E94A91708F481E008950E949C
:102D8000E617E3950C9420180E94D8160C940F189F
:102D90000E94DD1758F00E94D61740F029F45F3FDB
:102DA00029F00C94CD1751110C9457180C94D3178B
:102DB0000E94341868F39923B1F3552391F3951BBE
:102DC000550BBB27AA2762177307840738F09F5F4C
:102DD0005F4F220F331F441FAA1FA9F335D00E2EB9
:102DE0003AF0E0E832D091505040E695001CCAF726
:102DF0002BD0FE2F29D0660F771F881FBB1F2617E9
:102E000037074807AB07B0E809F0BB0B802DBF01BF
:102E1000FF2793585F4F3AF09E3F510578F00C948E
:102E2000CD170C9457185F3FE4F3983ED4F3869582
:102E300077956795B795F7959F5FC9F7880F911DAF
:102E40009695879597F90895E1E0660F771F881F9B
:102E5000BB1F621773078407BA0720F0621B730B4E
:102E6000840BBA0BEE1F88F7E09508950E943D177A
:102E70006894B1110C94571808950E943C1888F07A
:102E80009F5798F0B92F9927B751B0F0E1F0660F2E
:102E9000771F881F991F1AF0BA95C9F714C0B1306F
:102EA00091F00E945618B1E008950C945618672FBF
:102EB000782F8827B85F39F0B93FCCF3869577959E
:102EC0006795B395D9F73EF4909580957095619587
:102ED0007F4F8F4F9F4F0895E89409C097FB3EF4B2
:102EE00090958095709561957F4F8F4F9F4F992357
:102EF000A9F0F92F96E9BB279395F69587957795D5
:102F00006795B795F111F8CFFAF4BB0F11F460FF94
:102F10001BC06F5F7F4F8F4F9F4F16C0882311F0EC
:102F200096E911C0772321F09EE8872F762F05C000
:102F3000662371F096E8862F70E060E02AF09A959B
:102F4000660F771F881FDAF7880F9695879597F990
:102F50000895990F0008550FAA0BE0E8FEEF16162A
:102F60001706E807F907C0F012161306E407F5077D
:102F700098F0621B730B840B950B39F40A2661F0F1
:102F8000232B242B252B21F408950A2609F4A14094
:102F9000A6958FEF811D811D089597F99F6780E8A1
:102FA00070E060E008959FEF80EC089500240A949B
:102FB0001616170618060906089500240A94121614
:102FC00013061406050608950C94D3170E943C18A6
:102FD000D8F3E894E0E0BB279F57F0F02AED3FE0FC
:102FE00049EC06C0EE0FBB0F661F771F881F28F045
:102FF000B23A62077307840728F0B25A620B730B68
:10300000840BE3959A9572F7803830F49A95BB0F4C
:10301000661F771F881FD2F790480C94DE18092E80
:103020000394000C11F4882352F0BB0F40F4BF2B23
:1030300011F460FF04C06F5F7F4F8F4F9F4F089563
:10304000EF93E0FF07C0A2EA2AED3FE049EC5FEB17
:103050000E9465160E940F180F90039401FC90586F
:10306000E8E6F0E00C94EA1857FD9058440F551F1D
:1030700059F05F3F71F04795880F97FB991F61F0FA
:103080009F3F79F087950895121613061406551F71
:10309000F2CF4695F1DF08C0161617061806991FDD
:1030A000F1CF86957105610508940895E894BB27D2
:1030B00066277727CB0197F908950E94A91708F48E
:1030C0008FEF08950E9475180C940F180E94D61760
:1030D00038F00E94DD1720F0952311F00C94CD17E5
:1030E0000C94D31711240C9457180E94341870F3C1
:1030F000959FC1F3950F50E0551F629FF001729F9D
:10310000BB27F00DB11D639FAA27F00DB11DAA1FAB
:10311000649F6627B00DA11D661F829F2227B00DF8
:10312000A11D621F739FB00DA11D621F839FA00D83
:10313000611D221F749F3327A00D611D231F849FD3
:10314000600D211D822F762F6A2F11249F5750402A
:103150009AF0F1F088234AF0EE0FFF1FBB1F661FA5
:10316000771F881F91505040A9F79E3F510580F06E
:103170000C94CD170C9457185F3FE4F3983ED4F3AA
:10318000869577956795B795F795E7959F5FC1F712
:10319000FE2B880F911D9695879597F908959F931B
:1031A0000E94E6170F9007FCEE5F0C9420180E9417
:1031B000A917880B990B08959F3F31F0915020F487
:1031C000879577956795B795880F911D9695879503
:1031D00097F908959F938F937F936F93FF93EF9346
:1031E0009B01AC010E946218EF91FF910E94FE18B2
:1031F0002F913F914F915F910C946218DF93CF9381
:103200001F930F93FF92EF92DF927B018C016894E2
:1032100006C0DA2EEF010E947518FE01E894A59110
:103220002591359145915591A6F3EF010E946516C0
:10323000FE019701A801DA9469F7DF90EF90FF9003
:103240000F911F91CF91DF9108950F931F93CF930B
:10325000DF938230910510F482E090E0E091A003CA
:10326000F091A10330E020E0B0E0A0E0309799F4C5
:103270002115310509F44AC0281B390B24303105CA
:10328000D8F58A819B816115710589F1FB019383D2
:103290008283FE0111C04081518102811381481750
:1032A0005907E0F04817590799F4109761F0129602
:1032B0000C93129713961C933296CF01DF91CF9106
:1032C0001F910F9108950093A0031093A103F4CFD1
:1032D0002115310551F04217530738F0A901DB01E0
:1032E0009A01BD01DF01F801C1CFEF01F9CF909341
:1032F000A1038093A003CDCFFE01E20FF31F8193C2
:1033000091932250310939832883D7CF20919E038E
:1033100030919F03232B41F420911D0130911E0118
:1033200030939F0320939E0320911B0130911C0139
:103330002115310541F42DB73EB740911F01509141
:103340002001241B350BE0919E03F0919F03E217AF
:10335000F307A0F42E1B3F0B2817390778F0AC01B8
:103360004E5F5F4F2417350748F04E0F5F1F509395
:103370009F0340939E03819391939FCFF0E0E0E001
:103380009CCFCF93DF930097E9F0FC013297138233
:103390001282A091A003B091A103ED0130E020E0E2
:1033A0001097A1F420813181820F931F20919E03F9
:1033B00030919F032817390709F061C0F0939F03EC
:1033C000E0939E03DF91CF910895EA01CE17DF07C6
:1033D000E8F54A815B819E0141155105B1F7E9018C
:1033E000FB83EA8349915991C40FD51FEC17FD0760
:1033F00061F4808191810296840F951FE901998380
:103400008883828193819B838A83F0E0E0E0129637
:103410008D919C9113970097B9F52D913C9111973F
:10342000CD010296820F931F20919E0330919F033E
:103430002817390739F6309751F51092A1031092E9
:10344000A003B0939F03A0939E03BCCFD383C283FA
:1034500040815181840F951FC817D90761F44E5FD1
:103460005F4F88819981480F591F518340838A811A
:103470009B81938382832115310509F0B0CFF093AE
:10348000A103E093A0039ECFFD01DC01C0CF138216
:103490001282D7CFDC0101C06D9341505040E0F75C
:1034A000089510E0C1E7D0E004C0FE010E94471675
:0C34B0002196C237D107C9F7F894FFCF6E
:1034BC00000000000000000000000000000000FF01
:1034CC00FFFFFFFFFFFFFF010000000000A20380D1
:1034DC0000000000008005E0040D05CD053E051C34
:1034EC00053005000000000D09E0083C09B608D9BC
:1034FC0008C608B7080D0A003D3D3D2048796272A8
:10350C00696420436C6F636B205374617274696ED1
:10351C0067203D3D3D0043616C6962726174696E68
:10352C00672E2E2E004677642053746570733A20F4
:10353C000042616B2053746570733A200043656ED2
:10354C007465722053746570733A20003D3D3D20C4
:10355C005265616479203D3D3D00486F7572206372
:10356C0068616E67656420746F20002C2073776926
:10357C00746368696E6720746F207061747465720F
:10358C006E3A20005175617274657220686F7572A5
:10359C00206566666563743A20006E616E00696E24
:0835AC0066006F766600250041
:00000001FF
