:100000000C9472000C949A000C949A000C949A0030
:100010000C949A000C949A000C949A000C949A00F8
:100020000C949A000C949A000C949A000C949A00E8
:100030000C949A000C949A000C949A000C949A00D8
:100040000C94CD0A0C949A000C943D0B0C94170B55
:100050000C949A000C949A000C949A000C949A00B8
:100060000C946F0B0C949A0005A84CCDB2D44EB9E9
:100070003836A9020C50B9918688083CA6AAAA2A4B
:10008000BE000000803F00000000240027002A007E
:1000900000000000230026002900000000080002E4
:1000A000010000030407000000000000000001023E
:1000B00004081020408001020408102001020408F6
:1000C000102000000000250028002B000404040478
:1000D00004040404020202020202030303030303F2
:1000E0008E0C491511241FBECFEFD8E0DEBFCDBF67
:1000F00011E0A0E0B1E0ECE4F5E302C005900D9260
:10010000A83FB107D9F723E0A8EFB1E001C01D92E5
:10011000A63AB207E1F710E0C1E7D0E004C02197AA
:10012000FE010E948F16C037D107C9F70E94930DB8
:100130000C94991A0C9400008F929F92AF92BF92E8
:10014000CF92DF92EF92FF92CF9320917203309182
:10015000730382179307E8F54B01AA24BB24C82D2B
:10016000C52ED62EE72EFF24BC2DA42F2091780378
:10017000222361F0829E40011124C92D2C9D600133
:100180001124BD2D249FF0011124AF2FE0917E0397
:10019000E0907903F0907A0330917B03E31323C05E
:1001A0009C01220F331F820F931F8E0D9F1DE09124
:1001B0007B03E80FF92FF11DC083E0917C03E80F6A
:1001C000F92FF11DB08320917D03820F911DFC0159
:1001D000A083CF91FF90EF90DF90CF90BF90AF9032
:1001E0009F908F900895880F991F880F991F8E0DEB
:1001F0009F1D472F552766277727222349F030E098
:10020000249F7001259FF00C349FF00C11244F2D7A
:10021000E80FF92FF11D4083CACFCF92DF92EF9202
:10022000FF920F931F93CF93DF936B017C01EA0141
:1002300000917203109173034017510798F4211530
:10024000310531F0240F351F2017310708F48901DB
:10025000C017D10738F4B701A601CE010E949C0057
:100260002196F6CFDF91CF911F910F91FF90EF90E4
:10027000DF90CF900895833081F028F4813099F099
:100280008230A9F008958730A9F08830C9F0843011
:10029000B1F4809180008F7D03C0809180008F77C2
:1002A00080938000089584B58F7784BD089584B5C8
:1002B0008F7DFBCF8091B0008F778093B000089541
:1002C0008091B0008F7DF9CFCF93DF93282F30E05E
:1002D000F901E656FF4F8491F901E255FF4FD491A1
:1002E000F901E453FF4FC491CC23A1F081110E9486
:1002F0003B01EC2FF0E0EE0FFF1FE057FF4FA59101
:10030000B491EC91ED2381E090E009F480E0DF917D
:10031000CF91089580E090E0FACF1F93CF93DF93C1
:10032000282F30E0F901E656FF4F8491F901E2559C
:10033000FF4FD491F901E453FF4FC491CC23A9F0AE
:10034000162F81110E943B01EC2FF0E0EE0FFF1FF2
:10035000EE53FF4FA591B4918FB7F894EC91111122
:1003600008C0D095DE23DC938FBFDF91CF911F9122
:100370000895DE2BF8CFCF93DF93EC0180918E03AD
:1003800090918F03029749F4C130D10509F43BC025
:100390006CF560E0209709F437C080918E0390914E
:1003A0008F03049749F4C130D10509F45CC00CF007
:1003B00037C0209709F442C080918E0390918F033B
:1003C000059709F0E5C0CA30D10508F0E1C0FE018B
:1003D000E451FE4F0C948F164B02570268027E02C6
:1003E00099029B02A202AE02BF02C602C230D10530
:1003F000A9F060E0C330D10581F6809192030E949C
:100400008D0160E006C061E0809192030E948D0141
:1004100061E0809194030E948D01BFCF61E0EDCF38
:10042000C230D10539F1C330D10509F0C5CF61E043
:10043000809192030E948D0160E022C061E0809172
:1004400092030E948D0160E0809194030E948D01CF
:1004500061E0809196030E948D0160E08091980395
:100460000E948D01A9CF60E0809192030E948D01CE
:1004700061E0EACF60E0809192030E948D0161E02B
:10048000809194030E948D0160E0809196030E9408
:100490008D0161E0E3CF60E0809192030E948D01C5
:1004A00061E0809194030E948D0161E00BC060E0E7
:1004B000809192030E948D0161E0809194030E94DB
:1004C0008D0160E0809196030E948D0160E010C074
:1004D00060E0809192030E948D0161E0809194031D
:1004E0000E948D0160E0809196030E948D0161E081
:1004F000809198030E948D0161E015C060E08091B9
:1005000092030E948D0161E0809194030E948D010D
:1005100060E0809196030E948D0161E080919803D4
:100520000E948D0160E080919A03DF91CF910C943D
:100530008D0161E0E4CF61E0809192030E948D0122
:1005400060E0E2CF61E0809192030E948D0160E063
:10055000809194030E948D0161E0DBCF61E0809186
:1005600092030E948D0160E0809194030E948D01AE
:1005700061E0809196030E948D0160E0CFCF61E041
:10058000809192030E948D0160E08BCF60E0F8CFF4
:10059000DF91CF910895CF93DF9390E0FC01E25576
:1005A000FF4F249184539F4FFC0184918823C9F00D
:1005B00090E0880F991FFC01EA57FF4FA591B49175
:1005C000FC01EE53FF4FC591D49161110DC09FB74F
:1005D000F8948C91209582238C93888128232883FA
:1005E0009FBFDF91CF910895623051F49FB7F89487
:1005F0003C91822F809583238C93E8812E2BEFCF23
:100600008FB7F894EC912E2B2C938FBFEACF3FB786
:10061000F8948091510290915202A0915302B091AE
:10062000540226B5A89B05C02F3F19F00196A11DC5
:10063000B11D3FBFBA2FA92F982F8827BC01CD012C
:10064000620F711D811D911D42E0660F771F881F8B
:10065000991F4A95D1F708954F925F926F927F92BA
:100660008F929F92AF92BF92EF92FF920F931F9340
:10067000CF93DF93EC0197FF04C0CC27DD27C81B85
:10068000D90B181619060CF061C081E090E0909328
:1006900087038093860304E010E08AE0E82EF12CC3
:1006A000209709F46FC00E94070380909C039090EC
:1006B0009D03A0909E03B0909F032B013C0148181E
:1006C00059086A087B088090880390908903A0905D
:1006D0008A03B0908B03481459046A047B0400F326
:1006E00060939C0370939D0380939E0390939F035C
:1006F000809190039091910320918603309187031C
:100700002130310559F50196909391038093900320
:1007100020918C0330918D038217930721F410925E
:1007200091031092900321978091900390919103EF
:1007300020918E0330918F03B7012530310509F0E8
:10074000B8010E9411160E94BB01AACF892B09F49F
:10075000A2CF10928703109286039DCF892B41F47C
:1007600080918C0390918D039093910380939003DB
:1007700080919003909191030197909391038093BE
:100780009003D1CFDF91CF911F910F91FF90EF9008
:10079000BF90AF909F908F907F906F905F904F90A1
:1007A00008950F931F93CF93DF93CDB7DEB72997AB
:1007B0000FB6F894DEBF0FBECDBF80917903909144
:1007C0007A03892B09F47CC00E94070300917F0300
:1007D000109180032091810330918203601771078B
:1007E0008207930740F460937F03709380038093A4
:1007F00081039093820300917F03109180032091E5
:10080000810330918203601B710B820B930B6C325E
:10081000714081059105C0F2F89480917403909124
:1008200075039A838983E0917903F0917A03DF015C
:1008300011968081898790917003E0918303F091F4
:10084000840380918503992309F445C09081982BF6
:1008500098879081809589238F838F818C8388E00E
:100860008B8358856F8149853B812C8189819A8151
:10087000508347FD252F3A952083262F39F0441FBA
:1008800000C000006083000000C0F2CF38E04D914E
:1008900060830000019761F7F0938403E093830382
:1008A00049873B832C839A83898378940E9407032A
:1008B00060937F03709380038093810390938203FE
:1008C00029960FB6F894DEBF0FBECDBFDF91CF9152
:1008D0001F910F9108959081982B98879081809512
:1008E00089238F838F818E8388E08D8358856F81E4
:1008F00049853D812E8189819A81508347FD252F2D
:1009000000C000C0208300C000C000C000C000C004
:1009100060830000262F3A9541F0441F000000C07C
:1009200000C000C000C000C0E8CF38E04D9100C05A
:10093000608300C0019709F7F0938403E093830379
:1009400049873D832E83AFCF8F929F92AF92BF9204
:10095000CF92DF92EF92FF926B017C010E9407031E
:100960004B015C01C114D104E104F104B9F00E940F
:100970000703681979098A099B09683E7340810554
:10098000910580F321E0C21AD108E108F10888EE50
:10099000880E83E0981EA11CB11CE4CFFF90EF905D
:1009A000DF90CF90BF90AF909F908F9008952FB71A
:1009B000F89460914D0270914E0280914F02909197
:1009C00050022FBF089508950895AF92BF92CF921D
:1009D000DF92EF92FF920F931F93CF93DF936C01FF
:1009E0007B018B01040F151FEB015E01AE18BF08E0
:1009F000C017D10759F06991D601ED91FC91019092
:100A0000F081E02DC6010995892B79F7C501DF91A9
:100A1000CF911F910F91FF90EF90DF90CF90BF90FB
:100A2000AF900895FC01538D448D252F30E0842F25
:100A300090E0821B930B541710F0CF960895019706
:100A40000895FC01918D828D981761F0A28DAE0FF3
:100A5000BF2FB11D5D968C91928D9F5F9F73928F7A
:100A600090E008958FEF9FEF0895FC01918D828DA6
:100A7000981731F0828DE80FF11D858D90E0089573
:100A80008FEF9FEF0895FC01918D228D892F90E0CB
:100A9000805C9F4F821B91098F739927089587EC83
:100AA00092E00E94430521E0892B09F420E0822F87
:100AB000089580E090E0892B29F00E944F05811174
:100AC0000C9400000895FC01A48DA80FB92FB11D4E
:100AD000A35ABF4F2C91848D90E001968F73992774
:100AE000848FA689B7892C93A089B1898C91837052
:100AF00080648C93938D848D981306C00288F3894B
:100B0000E02D80818F7D80830895EF92FF920F9377
:100B10001F93CF93DF93EC0181E0888F9B8D8C8DA9
:100B200098131AC0E889F989808185FF15C09FB79D
:100B3000F894EE89FF896083E889F9898081837060
:100B4000806480839FBF81E090E0DF91CF911F910F
:100B50000F91FF90EF900895F62E0B8D10E00F5F30
:100B60001F4F0F731127E02E8C8D8E110CC00FB606
:100B700007FCFACFE889F989808185FFF5CFCE019E
:100B80000E946305F1CFEB8DEC0FFD2FF11DE35AB1
:100B9000FF4FF0829FB7F8940B8FEA89FB89808121
:100BA0008062CFCFCF93DF93EC01888D8823B9F09B
:100BB000AA89BB89E889F9898C9185FD03C0808168
:100BC00086FD0DC00FB607FCF7CF8C9185FFF2CFE5
:100BD000808185FFEDCFCE010E946305E9CFDF91D3
:100BE000CF9108958F929F92AF92BF92EF92FF9212
:100BF0000F931F93CF93DF93C62F9C01AAEFB5E00D
:100C00000E948016DC01CB019058AF4FBF4FCD0141
:100C1000BB2797FDB095AB2F8E3F21E0920708F0E0
:100C200059C0382F8F3F910508F473C05EEF581BF1
:100C3000E0E03FEF042F10E00F5F1F4FEC2EF12C90
:100C40008FEFE81AF80AC095D0E03E9DC0013F9DA5
:100C5000900D1124292F33272C0F3D1FD8010E94FE
:100C600066164B015C018824AA24BB24EE9D9001EA
:100C7000EF9D300D1124232F33272C0F3D1F0E9491
:100C80006616672F782F892F9927862A972AA82AF0
:100C9000B92A5E9D90015F9D300D1124232F3327CB
:100CA0002C0F3D1F0E946616982F872F762F6627E0
:100CB000662777279927682979298A299B29DF912F
:100CC000CF911F910F91FF90EF90BF90AF909F90A9
:100CD0008F9008958C3F23E0920760F4E2E0E80FE4
:100CE0003FEF8D3F22E0920718F03CEF381BEFEF0B
:100CF00050E0A0CF8A3F25E0920771F0EAEFE81BB1
:100D00008B3F24E0920748F454E0580FEFEF30E0B7
:100D100091CFE0E05FEF8ECFE0E030E0FBCFDC0191
:100D2000ED91FC910190F081E02D099420911D023C
:100D3000260F3327331F21323105ECF42091C102F5
:100D4000FC0190E080E0243069F082E00895A091F9
:100D50001D022191AC0143505E4FA40FB52FB11D70
:100D60002C930196861798F380911D02680F60936B
:100D70001D0280E0089581E008951092C10281E093
:100D80008093A00210929B0261E082E10E948D019B
:100D900061E083E10E948D01E9EBF0E080818E7FCC
:100DA000808380818D7F808388E48093B80085E490
:100DB0008093BC000895CF93DF9391E09093FC0162
:100DC0008823B9F0C091B800D091BA008091BC00DE
:100DD0008A7B8093BC0060E082E10E948D0160E02C
:100DE00083E10E948D010E94BD06D093BA00C0939A
:100DF000B800DF91CF910895CF92DF92EF92FF92EA
:100E00000F931F93CF93DF93D82FC62F613208F033
:100E100098C00E9407036B017C018091C10281117F
:100E20006BC081E08093C1028093A0029FEF9093FA
:100E30009F0210929E029C0F90939D0280939C02B1
:100E400080919C02DD0FD82BD0939C0280919B0255
:100E5000813009F078C010929B020E9407036B0159
:100E60007C0180919C028093BB008091C302909191
:100E7000C402A091C502B091C602892B8A2B8B2B8C
:100E8000A1F00E9407030091C3021091C4022091B7
:100E9000C5023091C6026C197D098E099F0906179B
:100EA00017072807390708F448C08091BC0083FD64
:100EB000D8CF85EC8093BC000E9407036B017C01B6
:100EC0008091C102813009F440C080919E028C174C
:100ED00010F4C0919E02EBE7F2E0A1EAB2E080E0FC
:100EE0008C1355C08C2FDF91CF911F910F91FF90E4
:100EF000EF90DF90CF9008958091C3029091C4024B
:100F0000A091C502B091C602892B8A2B8B2B09F4C4
:100F100084CF0E9407030091C3021091C402209164
:100F2000C5023091C6026C197D098E099F0906170A
:100F300017072807390708F070CF8091C2020E9476
:100F4000DB06C0E0CFCF85EEB5CF8091C302909194
:100F5000C402A091C502B091C602892B8A2B8B2BAB
:100F600009F4AECF0E9407030091C3021091C4029E
:100F70002091C5023091C6026C197D098E099F0926
:100F8000061717072807390708F09ACFD6CF91918F
:100F90009D938F5FA5CF8F929F92AF92BF92CF927A
:100FA000DF92EF92FF920F931F93CF93DF93D09135
:100FB0007A02D13208F0D7C0182FC09179020E946E
:100FC00007036B017C018091C10281116BC082E03B
:100FD0008093C1021093A0028FEF80939F02109222
:100FE0009E02D0939D02A9E5B2E0EBE7F2E080E03B
:100FF000D81391C010929C0280919C02CC0FC82BF8
:10100000C0939C0280919B02813009F088C01092AD
:101010009B020E9407036B017C0180919C028093DC
:10102000BB008091C3029091C402A091C502B0910F
:10103000C602892B8A2B8B2BA1F00E9407030091FB
:10104000C3021091C4022091C5023091C6026C19EE
:101050007D098E099F09061717072807390708F425
:1010600042C08091BC0083FDD8CF85EC8093BC004A
:101070000E9407036B017C018091C102823009F458
:1010800050C080919F028F3F09F46FC080919F02F2
:10109000803209F46CC080919F02803309F469C0EA
:1010A00084E026C08091C3029091C402A091C50241
:1010B000B091C602892B8A2B8B2B09F484CF0E9416
:1010C00007038090C3029090C402A090C502B09024
:1010D000C6026C197D098E099F0986169706A80617
:1010E000B90608F070CF8091C2020E94DB0685E04D
:1010F0001092580210927A0210925702DF91CF910B
:101100001F910F91FF90EF90DF90CF90BF90AF9025
:101110009F908F9008959D9191938F5F69CF85EEF9
:10112000A5CF8091C3029091C402A091C502B09155
:10113000C602892B8A2B8B2B09F49ECF0E940703B2
:101140000091C3021091C4022091C5023091C602E1
:101150006C197D098E099F0906171707280739079B
:1011600008F08ACFC0CF81E0C3CF80E0C1CF82E05A
:10117000BFCF83E0BDCF0895E09156028091550224
:10118000E81730F4F0E0EF55FD4F808190E00895CE
:101190008FEF9FEF089590915602809155022FEFA7
:1011A0003FEF981748F4E92FF0E0EF55FD4F20810D
:1011B00030E09F5F90935602C901089580915502D7
:1011C00090915602891B990B0895CF92DF92EF926E
:1011D000FF920F931F93CF93DF937C01CB018A0182
:1011E00020915702222389F0EB016B01C40ED51E1A
:1011F000CC15DD0569F06991D701ED91FC91019065
:10120000F081E02DC7010995F3CF642F0E94960667
:10121000C801DF91CF911F910F91FF90EF90DF9068
:10122000CF900895CF93DF931F92CDB7DEB7698338
:10123000209157022223F9F020917A02203258F0AF
:1012400021E030E0FC013383228390E080E00F90C6
:10125000DF91CF91089580915802E82FF0E0E75A8E
:10126000FD4F998190838F5F8093580280937A021B
:1012700081E090E0ECCF61E0CE0101960E949606FD
:10128000F7CF90E080E008950F931F93CF9308EF7E
:1012900011E0CEE0F80161918F018C2F0E948D0149
:1012A000CF5FC231B9F764E670E080E090E0CF91A3
:1012B0001F910F910C94A4040F931F93CF9308EFE9
:1012C00011E0CEE08C2F0E94640121E0892B09F40B
:1012D00020E0F80121938F0160E08C2F0E948D01A6
:1012E000CF5FC23179F7CF911F910F9108950F937E
:1012F0001F93CF93DF938C01EB018091A00390911A
:10130000A10321E02093570228E62093790210924E
:10131000580210927A0262E070E00E948F0681E02B
:101320000E94CB0761E088E60E94FC0610925602FC
:10133000809355028091A0039091A103DC01ED916F
:10134000FC910284F385E02D099521E0AC01407405
:10135000552786FF20E0F8012083282F22952F7043
:10136000382F3F70452B79F085FB992790F99883AA
:101370002170832FFAE02F9F800D1124DF91CF91F0
:101380001F910F9108952370832F9AE0299F800D5C
:101390001124F4CF61E088E60E94FC061092560208
:1013A000809355028091A0039091A103DC01ED91FF
:1013B000FC910284F385E02D0995982F92959F70FA
:1013C0008F70BAE09B9F800D112408958091A00337
:1013D0009091A10321E02093570228E620937902FF
:1013E0001092580210927A0261E070E00E948F061B
:1013F00081E00E94CB070C94CA09FC0101900020F7
:10140000E9F73197AF01481B590BBC0187EC92E01B
:101410000C94E5048F929F92AF92BF920F931F930B
:10142000CF93DF93CDB7DEB7A1970FB6F894DEBFA9
:101430000FBECDBF19A2423008F44AE08E010F5D05
:101440001F4F842E912CB12CA12CA50194010E9438
:101450002516E62FB901CA01EA30F4F4E05DD8019F
:10146000EE938D01232B242B252B79F790E080E040
:10147000109719F0CD010E94FD09A1960FB6F894BE
:10148000DEBF0FBECDBFDF91CF911F910F91BF90F7
:10149000AF909F908F900895E95CE1CFCF92DF925B
:1014A000EF92FF92CF93DF936B017C016DE287ECAB
:1014B00092E00E948505EC0166277727CB016C1925
:1014C0007D098E099F094AE00E940A0A8C0F9D1F20
:1014D000DF91CF91FF90EF90DF90CF900895CF9361
:1014E000DF93BC01990F880B990B97FF0CC00E94EA
:1014F0004E0AEC0185E491E00E94FD098C0F9D1FCE
:10150000DF91CF9108954AE00E940A0AF2CFCF936B
:10151000DF930E94FD09EC0185E491E00E94FD0942
:101520008C0F9D1FDF91CF91089585ED8093BC00B6
:101530008091C3029091C402A091C502B091C602ED
:101540000796A11DB11D23E0B695A79597958795A0
:101550002A95D1F72091BC0024FD03C01092C1024E
:1015600008954091C3025091C4026091C5027091E8
:10157000C602452B462B472B69F30097A105B10501
:1015800041F02AE22A95F1F700C00197A109B109BB
:10159000E1CF8091C2020C94DB061F920F920FB62E
:1015A0000F9211242F933F938F939F93AF93BF93E9
:1015B00080914D0290914E02A0914F02B091500245
:1015C00030914C0223E0230F2D3758F50196A11DD1
:1015D000B11D20934C0280934D0290934E02A09334
:1015E0004F02B09350028091510290915202A0910B
:1015F0005302B09154020196A11DB11D8093510276
:1016000090935202A0935302B0935402BF91AF91B2
:101610009F918F913F912F910F900FBE0F901F9030
:10162000189526E8230F0296A11DB11DD2CF1F9257
:101630000F920FB60F9211242F933F934F935F9306
:101640006F937F938F939F93AF93BF93EF93FF938A
:1016500087EC92E00E946305FF91EF91BF91AF91FB
:101660009F918F917F916F915F914F913F912F91BA
:101670000F900FBE0F901F9018951F920F920FB6EC
:101680000F9211242F938F939F93EF93FF93E091E9
:10169000D702F091D8028081E091DD02F091DE0264
:1016A00082FD1BC090818091E0028F5F8F7320913B
:1016B000E102821741F0E091E002F0E0E953FD4FD2
:1016C000958F8093E002FF91EF919F918F912F91E1
:1016D0000F900FBE0F901F9018958081F4CF1F922E
:1016E0000F920FB60F9211242F933F934F935F9356
:1016F0006F937F938F939F93AF93BF93EF93FF93DA
:101700008091B900887F803609F44AC0F0F58832AC
:1017100009F4A7C018F5803109F49BC0B8F48823F8
:1017200009F4F9C0883009F494C0FF91EF91BF919A
:10173000AF919F918F917F916F915F914F913F9169
:101740002F910F900FBE0F901F901895883109F4BC
:1017500088C0803251F780939F0214C0803409F40E
:101760009DC040F48033B9F38833F9F680939F022B
:1017700085ECB0C0803509F485C0883509F496C081
:10178000883499F60E94950AD0CF883909F48CC024
:1017900038F5883729F050F4883611F0803729F66B
:1017A00083E08093C10210923F0257C0883809F449
:1017B0007BC0803919F0803809F0B7CF80913F02A3
:1017C000803208F071C0E0913F0281E08E0F80937B
:1017D0003F028091BB00F0E0E15EFD4F80833DC0A1
:1017E000803B39F0E0F4803A09F479C0883A09F096
:1017F0009CCF84E08093C10210921E0210921D02C1
:10180000E0914202F0914302099580911D028111FD
:101810000FC081E080931D021092FD0109C0803C41
:1018200009F4A6CF883C09F4A3CF883B09F07DCF0B
:10183000E0911E0281E08E0F80931E02F0E0E350E3
:10184000FE4F80818093BB0090911E0280911D020B
:1018500029C080919C028093BB0085EC8093BC00E2
:1018600064CF90919E0280919D02981758F5E09167
:101870009E0281E08E0F80939E02F0E0E558FD4FBE
:101880008081E9CFE0919E0281E08E0F80939E02DD
:101890008091BB00F0E0E558FD4F808390919E025F
:1018A00080919D029817C8F285E8D8CFE0919E02FA
:1018B00081E08E0F80939E028091BB00F0E0E5589E
:1018C000FD4F80838091A00281115CCF81E08093E5
:1018D0009B0284EA8093BC001092C10226CF85EC63
:1018E0008093BC001092C10280913F02803230F49C
:1018F000E0913F02F0E0E15EFD4F108260913F0217
:1019000070E0E0914002F09141028FE192E0099590
:1019100010923F020ACF10929F0234CF1092CA0257
:101920001092C90288EE93E0A0E0B0E08093CB0271
:101930009093CC02A093CD02B093CE0225E231E089
:101940003093C8022093C70225EC30E03093D402D4
:101950002093D30224EC30E03093D6022093D502BA
:1019600020EC30E03093D8022093D70221EC30E015
:101970003093DA022093D90222EC30E03093DC027B
:101980002093DB0226EC30E03093DE022093DD0270
:101990001092E0021092E1021092E2021092E30231
:1019A0001092670310926603809368039093690313
:1019B000A0936A03B0936B0387E391E09093650370
:1019C0008093640384E693E09093A1038093A00343
:1019D0001092910310929003109287031092860345
:1019E00010929C0310929D0310929E0310929F03ED
:1019F00080E098E090938D0380938C038EE090E0DC
:101A000090939303809392038FE090E090939503DB
:101A10008093940380E190E09093970380939603E2
:101A200081E190E0909399038093980361E08EE0C8
:101A30000E94CB0261E0809194030E94CB0261E09E
:101A4000809196030E94CB0261E0809198030E94EE
:101A5000CB0210929B0310929A0384E090E0909343
:101A60008F0380938E03109271031092780310926B
:101A70007F0310928003109281031092820381E011
:101A800080937E0380937B0310927C0392E090937B
:101A90007D03809370038CE690E0909375038093B0
:101AA00074030E946D1990937A03809379030097D1
:101AB00089F12CE6FC0111922A95E9F784E290E085
:101AC000909373038093720386E090E09093770382
:101AD0008093760380917103882341F061E086E072
:101AE0000E94CB0260E086E00E948D01E2EDF0E012
:101AF000E491F0E0EE0FFF1FEE53FF4F85919491BC
:101B00009093840380938303E4EBF0E0E491E0930B
:101B10008503089510927503109274031092730355
:101B200010927203D1CFCF93DF93CDB7DEB72E974C
:101B30000FB6F894DEBF0FBECDBF789484B5826037
:101B400084BD84B5816084BD85B5826085BD85B561
:101B5000816085BD80916E00816080936E001092DF
:101B6000810080918100826080938100809181005A
:101B700081608093810080918000816080938000EB
:101B80008091B10084608093B1008091B000816049
:101B90008093B00080917A00846080937A00809175
:101BA0007A00826080937A0080917A0081608093CD
:101BB0007A0080917A00806880937A001092C10048
:101BC000E091D702F091D80282E08083E091D302C5
:101BD000F091D4021082E091D502F091D60280E11A
:101BE00080831092DF02E091DB02F091DC0286E05C
:101BF0008083E091D902F091DA0280818061808354
:101C0000E091D902F091DA02808188608083E091CE
:101C1000D902F091DA02808180688083E091D90254
:101C2000F091DA0280818F7D808388E491E00E94C8
:101C3000870A109256021092550210925802109282
:101C40007A020E94BD0683EE94E090934302809353
:101C5000420284EE94E0909341028093400280918E
:101C600076039091770397FD2EC061E00E94CB022E
:101C700060E0809176030E948D0181E08093710382
:101C8000609178032091790330917A03603421F1D7
:101C90006150E1F070E08FEF9FE30E94FD15F901C4
:101CA0004091740350917503CF01821B930B8417ED
:101CB000950778F44081469FC001479F900D1124FD
:101CC00090833196EDCF10927103DACF70E060E02F
:101CD000E6CF80E4809378034091740350917503BC
:101CE00070E060E08091790390917A030E94921AEB
:101CF0000E94D10320918C0330918D03032E000CA0
:101D0000440B550B60E077E883E993E00E944716A7
:101D1000CA01B9012BE030E040E050E00E944716D4
:101D2000209388033093890340938A0350938B0355
:101D300062E082E00E94CB0286E691E00E94870A80
:101D400030E020E050E040E06AE07AE08AE090E0B5
:101D50000E940D010E94D103109248021092490284
:101D600010924A0210924B0282E00E946401892B79
:101D700071F400E018E082E00E946401019739F0FC
:101D800081E090E00E942C0301501109A1F700E0CE
:101D900018E082E00E946401892B39F081E090E034
:101DA0000E942C0301501109A1F710E000E082E02D
:101DB0000E946401019779F081E090E00E942C0379
:101DC0000F5F1F4F60E070E0CB010E94A40401157B
:101DD00020E1120761F785E791E00E94FD09C80143
:101DE0000E946F0AE12CB8E0FB2E82E00E946401A1
:101DF000892B69F08FEF9FEF0E942C0360E070E069
:101E0000CB010E94A40481E0E81AF10871F7F12CDB
:101E1000E12C82E00E946401019781F08FEF9FEF37
:101E20000E942C039FEFE91AF90A60E070E0CB01F1
:101E30000E94A404E114A0E1FA0659F781E891E0B8
:101E40000E94FD09C7010E946F0A0E0D1F1D680147
:101E5000D594C7948DE891E00E94FD09C6010E94C7
:101E60006F0AF12CE12CCE14DF0409F0F9C01595AE
:101E70000795159507950B5F1F4FF12CE12C8FEF00
:101E80009FEF0E942C0360E070E0CB010E94A4044D
:101E90002FEFE21AF20A0E151F058CF71092480276
:101EA0001092490210924A0210924B0240E05FEFFA
:101EB00060E070E090E080E00E949C000E94D1030E
:101EC00060ED77E080E090E00E94A4041A8219821D
:101ED0000E94E609E82EF12CBE016F5F7F4FCE0114
:101EE00002960E947709082F10E0F0921401E09208
:101EF000130110931201009311014091740350914A
:101F0000750370E060E08091790390917A030E94FC
:101F1000921AC0904402D090450248E06FEFC6018B
:101F20000E94F20528E130E050E040E00E940D01FF
:101F30004FE76FEFC60190580E94F2052CE030E0A9
:101F400048E150E00E940D01C8016CE070E00E9481
:101F500011166C01AFEFCA1ADA0A01E010E00C1595
:101F60001D054CF44FEF5FEF6FEF70E0C801880F75
:101F7000991F0E949C000F5F1F4F0C30110579F7CD
:101F8000CA94CD2841F44FEF5FEF6FEF70E090E01F
:101F900080E00E949C000E94D103B701FF0C880BD7
:101FA000990B0E94B61729E838E848E052E40E94ED
:101FB000AA184B015C0120914802309149024091DE
:101FC0004A0250914B020E9495166B017C0120E061
:101FD00030E0A9010E94A51818160CF04EC020E0B0
:101FE00030E040E05FE3C701B6010E94A518181673
:101FF0000CF44DC00E945C098CE991E00E94870AB4
:102000008091A0039091A10321E02093570228E63C
:10201000209379021092580210927A0270E060E0E8
:102020000E948F0681E00E94CB070E94CA0990E0BF
:10203000209115013091160182179307E1F562E3B3
:1020400070E080E090E00E94A40480E090E0892BA2
:10205000B9F20E944F05882399F20E940000D0CF68
:1020600081E090E00E942C0360E070E0CB010E94D0
:10207000A404BFEFEB1AFB0AF6CE20E030E040E00C
:102080005FEBC701B6010E94021787FFB3CF0E9422
:102090004409C701B6010E947E17CB010E942C03A0
:1020A0008092480290924902A0924A02B0924B025A
:1020B0000E945C099FCF90931601809315011C82AA
:1020C0001B82BE016D5F7F4FCE0104960E9477098F
:1020D000082F10E00E94E609A82EB12C8091130170
:1020E00090911401A816B90609F447C0B5010B2C4C
:1020F000000C880B990B0E94B61729E838E848E0D5
:1021000052E40E94AA182B013C0120914802309110
:10211000490240914A0250914B020E9495166B0170
:102120007C0120E030E040E854E40E94A518181635
:102130000CF013C120E030E040E055E4C701B601E7
:102140000E9495166B017C0120E030E0A901C701D7
:10215000B6010E94A51818160CF012C120E030E05C
:1021600040E05FE3C701B6010E94A51818160CF401
:1021700011C1B0921401A09213012091110130916C
:102180001201C8016CE070E00E9411169E838D83DD
:102190000217130779F12F3F3F4F61F1ED80FE8069
:1021A000EE0CFF1C53E0C52ED12C4FEF5FEF6FEF0D
:1021B00070E0C7010E949C000E94D10368EC70E0AF
:1021C00080E090E00E94A40440E050E0BA01C70122
:1021D0000E949C000E94D10368EC70E080E090E0D7
:1021E0000E94A40491E0C91AD108F9F610931201D3
:1021F00000931101409174035091750370E060E009
:102200008091790390917A030E94921A0E94D704D8
:10221000BE016F5F7F4FCE0102960E947709F82EB4
:10222000082F10E080910F019091100108171907F5
:1022300009F444C00196F1F187E480937C00809119
:102240007A00806480937A0080917A0086FDFCCFCA
:102250006091780070917900600F711F072E000C5B
:10226000880B990B611571058105910511F00E948C
:10227000F4150E94A51522E030E040E050E00E94F5
:10228000471670930101609300018AEA91E00E9471
:10229000FD096F2D70E090E080E04AE00E940A0A9C
:1022A0008BEB91E00E94FD0980910001909101016A
:1022B0000E946F0A1093100100930F0180910A0190
:1022C000882309F487C10E94D70400910B01109163
:1022D0000C0120910D0130910E01601B710B820BDE
:1022E000930B0E94B41720E030E44CE955E40E94BF
:1022F0000C176B017C0120E030E040E85FE30E94B6
:10230000A51887FD97C010920A010D811E810F5FED
:102310001F4FEE24E394F12CE016F1064CF44FEF3E
:102320005FEF6FEF70E0C701880F991F0E949C005C
:102330009FEFE91AF90AACE0EA16F10469F70130F7
:10234000110541F44FEF5FEF6FEF70E090E080E038
:102350000E949C000E94D10378CE20E030E040E84B
:1023600054ECC701B6010E94021787FFEDCE20E0B2
:1023700030E040E055E4C701B6010E949616E2CE77
:1023800020E030E040E05FEBC701B6010E94021799
:1023900087FFEFCE0E944409C701B6010E947E1755
:1023A000CB010E942C0320E030E040E055E4C30163
:1023B000B2010E94A51887FF2CC04092480250929B
:1023C000490260924A0270924B02C0904802D0903B
:1023D0004902E0904A02F0904B0220E030E0A9016F
:1023E000C701B6010E94021787FF10C020E030E04D
:1023F00040E055E4C701B6010E949616609348027A
:102400007093490280934A0290934B020E945C09A8
:10241000B0CE20E030E040E055E4C301B2010E94BC
:102420009516609348027093490280934A029093F4
:102430004B02CBCF2BED3FE049E450E4C701B6019E
:102440000E94AA180E94171920E030E048E453E4E3
:102450000E94AA184B015C0110E000E020E030E08F
:1024600040EA51E4C501B4010E9496160E94851706
:10247000462F6D3D78F14CED64EB809144029091D4
:1024800045020E94F205AB01BC01C8010E949C00FC
:102490000F5F1F4F0432110509F784ED91E00E9490
:1024A000FD0920E030E048EC52E4C701B6010E948B
:1024B000AA186B017C01AC019B010E941F198823A3
:1024C00069F08AEE91E00E94FD0986EF91E00E949A
:1024D000870A1BCF643180F644E1CECF2FEF3FEF68
:1024E0004FE75FE7C701B6010E941F1981110DC0B8
:1024F0002FEF3FEF4FE75FE7C701B6010E940217DA
:1025000018161CF48EEE91E0DECF2FEF3FEF4FE771
:102510005FE4C701B6010E94A51818161CF482EFEB
:1025200091E0D1CF2FEF3FEF4FE75FECC701B6014E
:102530000E94021787FDF3CF2AE037ED43EA5BE301
:10254000C701B6010E9496164B015C010E948517D7
:102550006B017C010E94B4179B01AC01C501B40161
:102560000E9495164B015C014AE0C701B6010E942A
:102570000A0A6EE287EC92E00E94850520E030E0D6
:1025800040E251E4C501B4010E94AA184B015C016C
:102590000E9485176B01F12CE12C4AE0C701B601BE
:1025A0000E940A0AC701B6010E94B4179B01AC0140
:1025B000C501B4010E94951620E030E040E251E4EC
:1025C0000E94AA180E94851790E080E04AE00E94CD
:1025D0000A0A7BCF40904402509045026090460228
:1025E0007090470280910001909101018230910525
:1025F00009F493C08330910509F43BC1820110585E
:10260000019709F02FC20E94D7040E94B41720E05E
:1026100030E04AE754E40E940C176B017C0120E093
:1026200030E040E05FE30E94AA180E9417194B01B6
:102630005C012AE939E949E95EE3C701B6010E9474
:10264000AA1820E030E040EC5FE30E9496160E945A
:1026500017196B017C0120E030E040E05FE3C50129
:10266000B4010E94AA1820E030E040E05FE30E943D
:10267000961620E030E044E352E40E94AA1820E0DD
:1026800030E040EA50E40E9496160E948517462FDB
:102690006FEFC2010E94F20528E130E050E040E017
:1026A0000E940D0120E030E040E05FE3C701B60189
:1026B0000E94AA1820E030E040E05FE30E949616F6
:1026C00020E030E044EB52E40E94AA1820E030E021
:1026D00040EF51E40E9496160E948517462F6FEF37
:1026E000C8010E94F2052CE030E048E150E00E9471
:1026F0000D01C301B2017E5F8F4F9F4F20E030E09C
:1027000045E050E00E942516609344027093450214
:102710008093460290934702F8CD0E94D7040E940E
:10272000B41720E030E048E453E40E940C174B015A
:102730005C0110E000E0720168E170E0601B710B69
:10274000061717070CF4B801072E000C880B990B1D
:102750000E94B6172DEC3CEC4CE45FE30E94AA18F3
:102760009B01AC01C501B4010E9495160E94171986
:1027700020E030E040E05FE30E94AA1820E030E073
:1027800040E05FE30E94961620E030E040E252E431
:102790000E94AA1820E030E040E251E40E94961620
:1027A0000E948517462F6FEFC7010E94F205AB010B
:1027B000BC01C8010E949C000F5F1F4F083111052A
:1027C00009F0BACF10E000E0B0E8FB1A6CE070E06E
:1027D000601B710B061717070CF4B801072E000CCD
:1027E000880B990B0E94B6172AE939E949E95FE39A
:1027F0000E94AA189B01AC01C501B4010E94951664
:1028000020E030E040E85FE30E9496160E9417192E
:1028100020E030E040E05FE30E94AA1820E030E0D2
:1028200040E05FE30E94961620E030E040EA52E488
:102830000E94AA1820E030E048E452E40E94961674
:102840000E948517462F6FEFC7010E94F205AB016A
:10285000BC01C80148960E949C000F5F1F4F0C30BE
:10286000110509F0B3CFC301B2017C5F8F4F9F4FB9
:1028700045CF0E94D7040E94B4176B017C0120E071
:1028800030E84BE355E40E940C176F837887898703
:102890009A8720E030E04AEF54E4C701B6010E9475
:1028A0000C176B877C878D879E87312C212CB1017B
:1028B000032C000C880B990B0E94B6179B01AC01EE
:1028C0000E9496162BED3FE049E450E40E94AA18BE
:1028D00020E030E040EC51E40E940C172F81388555
:1028E00049855A850E9496166B017C010E94171932
:1028F0004B015C01C701B6010E94071720E030E0E0
:1029000040EF51E40E94AA1820E030E040EF51E48B
:102910000E94961620E030E040EA51E40E949616AC
:102920000E948517162FC301B2010E94B4176B01D4
:102930007C0120E030E040E856E4C501B4010E948B
:10294000AA189B01AC01C701B6010E9496160E940D
:102950008517CB01412F6FEF0E94F205AB01BC013F
:10296000C1010E949C002FEF221A320A88E128162A
:10297000310409F09CCF10E000E0D301C20190586F
:10298000AF4FBF4F8F839887A987BA87B801012EB1
:10299000000C880B990B0E94B6179B01AC010E949A
:1029A00096162BED3FE049E450E40E94AA1820E07F
:1029B00030E040E451E40E940C172B853C854D85A6
:1029C0005E850E9496166B017C010E9417194B01CF
:1029D0005C01C701B6010E94071720E030E040E229
:1029E00052E40E94AA1820E030E040E252E40E9443
:1029F000961620E030E040E752E40E9496160E94CE
:102A00008517362E6F81788589859A850E94B4173F
:102A10006B017C0120E030E040E856E4C501B401E0
:102A20000E94AA189B01AC01C701B6010E9496162C
:102A30000E948517CB01432D6FEF0E94F205AB0179
:102A4000BC01C80148960E949C000F5F1F4F0C30CC
:102A5000110509F09BCFC301B2016B5A7E4F8F4F16
:102A60009F4F4CCE48E06FEFC2010E94F20528E173
:102A700030E050E040E00E940D014FE76FEFC801E9
:102A80000E94F2052CE030E048E150E00E940D0188
:102A9000EACE8091790390917A030E94091A80917D
:102AA00076039091770397FD03C060E00C94CB020E
:102AB00008958F929F92AF92BF92CF92DF92EF9242
:102AC000FF92CF93DF93EC01688179818A819B81AA
:102AD000611571058105910521F464E279ED8BE5BD
:102AE00097E02DE133EF41E050E00E9447164901A5
:102AF0005A019B01AC01A7EAB1E40E946D166B017B
:102B00007C01ACEEB4EFA50194010E947B16C60EC9
:102B1000D71EE81EF91EF7FE06C081E0C81AD108CC
:102B2000E10880E8F80AC882D982EA82FB82C701FC
:102B3000B6019F77DF91CF91FF90EF90DF90CF901C
:102B4000BF90AF909F908F9008958F929F92AF9279
:102B5000BF92CF92DF92EF92FF9260911701709136
:102B600018018091190190911A0161157105810573
:102B7000910521F464E279ED8BE597E02DE133EFE7
:102B800041E050E00E94471649015A019B01AC0107
:102B9000A7EAB1E40E946D166B017C01ACEEB4EFC4
:102BA000A50194010E947B16C60ED71EE81EF91ED1
:102BB000F7FE06C081E0C81AD108E10880E8F80AEB
:102BC000C0921701D0921801E0921901F0921A01F7
:102BD000C701B6019F77FF90EF90DF90CF90BF9035
:102BE000AF909F908F900895609317017093180194
:102BF0008093190190931A010895AA1BBB1B51E100
:102C000007C0AA1FBB1FA617B70710F0A61BB70B5C
:102C1000881F991F5A95A9F780959095BC01CD0101
:102C2000089597FB072E16F4009407D077FD09D07E
:102C30000E94FD1507FC05D03EF4909581959F4FAD
:102C40000895709561957F4F0895A1E21A2EAA1BF1
:102C5000BB1BFD010DC0AA1FBB1FEE1FFF1FA2174C
:102C6000B307E407F50720F0A21BB30BE40BF50B49
:102C7000661F771F881F991F1A9469F760957095D2
:102C8000809590959B01AC01BD01CF010895052E63
:102C900097FB1EF400940E945E1657FD07D00E9419
:102CA000251607FC03D04EF40C945E165095409503
:102CB000309521953F4F4F4F5F4F089590958095E8
:102CC000709561957F4F8F4F9F4F08950E9480169A
:102CD000B7FF0895821B930B08950E948016A59F4D
:102CE000900DB49F900DA49F800D911D1124089507
:102CF000B7FF0C946D160E946D16821B930B0895FE
:102D0000A29FB001B39FC001A39F700D811D11242C
:102D1000911DB29F700D811D1124911D0895EE0F1C
:102D2000FF1F0590F491E02D09945058BB27AA2766
:102D30000E94AD160C9457180E941E1838F00E947D
:102D4000251820F039F49F3F19F426F40C941B1831
:102D50000EF4E095E7FB0C941518E92F0E947C18FF
:102D600058F3BA17620773078407950720F079F4C0
:102D7000A6F50C949E180EF4E0950B2EBA2FA02DFC
:102D80000B01B90190010C01CA01A0011124FF2718
:102D9000591B99F0593F50F4503E68F11A16F04013
:102DA000A22F232F342F4427585FF3CF4695379512
:102DB0002795A795F0405395C9F77EF41F16BA0BD7
:102DC000620B730B840BBAF09150A1F0FF0FBB1F85
:102DD000661F771F881FC2F70EC0BA0F621F731FCE
:102DE000841F48F4879577956795B795F7959E3F2B
:102DF00008F0B0CF9395880F08F09927EE0F9795BC
:102E0000879508950E94F11708F481E008950E94C3
:102E10002E18E3950C9468180E9420170C945718EC
:102E20000E94251858F00E941E1840F029F45F3FB8
:102E300029F00C94151851110C949F180C941B1820
:102E40000E947C1868F39923B1F3552391F3951BE5
:102E5000550BBB27AA2762177307840738F09F5FBB
:102E60005F4F220F331F441FAA1FA9F335D00E2E28
:102E70003AF0E0E832D091505040E695001CCAF795
:102E80002BD0FE2F29D0660F771F881FBB1F261758
:102E900037074807AB07B0E809F0BB0B802DBF012F
:102EA000FF2793585F4F3AF09E3F510578F00C94FE
:102EB00015180C949F185F3FE4F3983ED4F3869561
:102EC00077956795B795F7959F5FC9F7880F911D1F
:102ED0009695879597F90895E1E0660F771F881F0B
:102EE000BB1F621773078407BA0720F0621B730BBE
:102EF000840BBA0BEE1F88F7E09508950E948517A2
:102F00006894B1110C949F1808950E94841888F059
:102F10009F5798F0B92F9927B751B0F0E1F0660F9D
:102F2000771F881F991F1AF0BA95C9F714C0B130DE
:102F300091F00E949E18B1E008950C949E18672F9E
:102F4000782F8827B85F39F0B93FCCF3869577950D
:102F50006795B395D9F73EF49095809570956195F6
:102F60007F4F8F4F9F4F0895E89409C097FB3EF421
:102F700090958095709561957F4F8F4F9F4F9923C6
:102F8000A9F0F92F96E9BB279395F6958795779544
:102F90006795B795F111F8CFFAF4BB0F11F460FF04
:102FA0001BC06F5F7F4F8F4F9F4F16C0882311F05C
:102FB00096E911C0772321F09EE8872F762F05C070
:102FC000662371F096E8862F70E060E02AF09A950B
:102FD000660F771F881FDAF7880F9695879597F900
:102FE0000895990F0008550FAA0BE0E8FEEF16169A
:102FF0001706E807F907C0F012161306E407F507ED
:1030000098F0621B730B840B950B39F40A2661F060
:10301000232B242B252B21F408950A2609F4A14003
:10302000A6958FEF811D811D089597F99F6780E810
:1030300070E060E008959FEF80EC089500240A940A
:103040001616170618060906089500240A94121683
:1030500013061406050608950C941B180E94841884
:10306000D8F3E894E0E0BB279F57F0F02AED3FE06B
:1030700049EC06C0EE0FBB0F661F771F881F28F0B4
:10308000B23A62077307840728F0B25A620B730BD7
:10309000840BE3959A9572F7803830F49A95BB0FBC
:1030A000661F771F881FD2F790480C942619092EA7
:1030B0000394000C11F4882352F0BB0F40F4BF2B93
:1030C00011F460FF04C06F5F7F4F8F4F9F4F0895D3
:1030D000EF93E0FF07C0A2EA2AED3FE049EC5FEB87
:1030E0000E94AD160E9457180F90039401FC90584F
:1030F000E8E6F0E00C94321957FD9058440F551F44
:1031000059F05F3F71F04795880F97FB991F61F069
:103110009F3F79F087950895121613061406551FE0
:10312000F2CF4695F1DF08C0161617061806991F4C
:10313000F1CF86957105610508940895E894BB2741
:1031400066277727CB0197F908950E94F11708F4B5
:103150008FEF08950E94BD180C9457180E941E18F6
:1031600038F00E94251820F0952311F00C941518C2
:103170000C941B1811240C949F180E947C1870F357
:10318000959FC1F3950F50E0551F629FF001729F0C
:10319000BB27F00DB11D639FAA27F00DB11DAA1F1B
:1031A000649F6627B00DA11D661F829F2227B00D68
:1031B000A11D621F739FB00DA11D621F839FA00DF3
:1031C000611D221F749F3327A00D611D231F849F43
:1031D000600D211D822F762F6A2F11249F5750409A
:1031E0009AF0F1F088234AF0EE0FFF1FBB1F661F15
:1031F000771F881F91505040A9F79E3F510580F0DE
:103200000C9415180C949F185F3FE4F3983ED4F388
:10321000869577956795B795F795E7959F5FC1F781
:10322000FE2B880F911D9695879597F908959F938A
:103230000E942E180F9007FCEE5F0C9468180E94F5
:10324000F117880B990B08959F3F31F0915020F4AE
:10325000879577956795B795880F911D9695879572
:1032600097F908959F938F937F936F93FF93EF93B5
:103270009B01AC010E94AA18EF91FF910E94461990
:103280002F913F914F915F910C94AA18DF93CF93A8
:103290001F930F93FF92EF92DF927B018C01689452
:1032A00006C0DA2EEF010E94BD18FE01E894A59138
:1032B0002591359145915591A6F3EF010E94AD16E8
:1032C000FE019701A801DA9469F7DF90EF90FF9073
:1032D0000F911F91CF91DF9108950F931F93CF937B
:1032E000DF938230910510F482E090E0E091A40336
:1032F000F091A50330E020E0B0E0A0E0309799F431
:103300002115310509F44AC0281B390B2430310539
:10331000D8F58A819B816115710589F1FB01938341
:103320008283FE0111C040815181028113814817BF
:103330005907E0F04817590799F4109761F0129671
:103340000C93129713961C933296CF01DF91CF9175
:103350001F910F9108950093A4031093A503F4CF38
:103360002115310551F04217530738F0A901DB014F
:103370009A01BD01DF01F801C1CFEF01F9CF9093B0
:10338000A5038093A403CDCFFE01E20FF31F819329
:1033900091932250310939832883D7CF2091A203FA
:1033A0003091A303232B41F420911D0130911E0184
:1033B0003093A3032093A20320911B0130911C01A1
:1033C0002115310541F42DB73EB740911F015091B1
:1033D0002001241B350BE091A203F091A303E21717
:1033E000F307A0F42E1B3F0B2817390778F0AC0128
:1033F0004E5F5F4F2417350748F04E0F5F1F509305
:10340000A3034093A203819391939FCFF0E0E0E068
:103410009CCFCF93DF930097E9F0FC0132971382A2
:103420001282A091A403B091A503ED0130E020E049
:103430001097A1F420813181820F931F2091A20364
:103440003091A3032817390709F061C0F093A30353
:10345000E093A203DF91CF910895EA01CE17DF0731
:10346000E8F54A815B819E0141155105B1F7E901FB
:10347000FB83EA8349915991C40FD51FEC17FD07CF
:1034800061F4808191810296840F951FE9019983EF
:103490008883828193819B838A83F0E0E0E01296A7
:1034A0008D919C9113970097B9F52D913C911197AF
:1034B000CD010296820F931F2091A2033091A303A6
:1034C0002817390739F6309751F51092A503109255
:1034D000A403B093A303A093A203BCCFD383C2835E
:1034E00040815181840F951FC817D90761F44E5F41
:1034F0005F4F88819981480F591F518340838A818A
:103500009B81938382832115310509F0B0CFF0931D
:10351000A503E093A4039ECFFD01DC01C0CF13827D
:103520001282D7CFDC0101C06D9341505040E0F7CB
:10353000089510E0C1E7D0E004C0FE010E948F169C
:0C3540002196C237D107C9F7F894FFCFDD
:10354C00000000000000000000000000000000FF70
:10355C00FFFFFFFFFFFFFF010000000000A603803C
:10356C0000000000008505E5041205D20543052185
:10357C00053505000000001209E5084109BB08DE0D
:10358C0008CB08BC080D0A003D3D3D20487962720D
:10359C00696420436C6F636B205374617274696E41
:1035AC0067203D3D3D0043616C6962726174696ED8
:1035BC00672E2E2E004677642053746570733A2064
:1035CC000042616B2053746570733A200043656E42
:1035DC007465722053746570733A20003D3D3D2034
:1035EC005265616479203D3D3D00486F75722063E2
:1035FC0068616E67656420746F20002C2073776996
:10360C00746368696E6720746F207061747465727E
:10361C006E3A20005175617274657220686F757214
:10362C00206566666563743A20006E616E00696E93
:08363C0066006F7666002500B0
:00000001FF
