:100000000C9463000C948B000C948B000C948B006C
:100010000C948B000C948B000C948B000C948B0034
:100020000C948B000C948B000C948B000C948B0024
:100030000C948B000C948B000C948B000C948B0014
:100040000C94B4080C948B000C9424090C94FE08B6
:100050000C948B000C948B000C948B000C948B00F4
:100060000C9456090C948B0000000000230026001D
:10007000290000000000240027002A0000000008DA
:10008000000201000003040700000000000000005F
:10009000010204081020408001020408102001021F
:1000A0000408102000000000250028002B00040494
:1000B0000404040404040202020202020303030310
:1000C0000303750A850E11241FBECFEFD8E0DEBFF3
:1000D000CDBF11E0A0E0B1E0E2E1F4E202C00590A2
:1000E0000D92AA36B107D9F723E0AAE6B1E001C024
:1000F0001D92A031B207E1F710E0C2E6D0E004C0E3
:100100002197FE010E94FE0EC136D107C9F70E9459
:100110007A0B0C94FC110C9400004F925F926F923A
:100120007F928F929F92AF92BF92FF922091DC02BA
:100130003091DD028217930708F043C02B0166243B
:100140007724852E962EA72EBB24B82DA42F209180
:10015000E202F42C222391F0E22FF0E0E49DD001A2
:10016000E59DB00DF49DB00D1124FB2E289D40019E
:100170001124B92D249F90011124A32FE091E802AE
:100180002091E3023091E4025091E502E51323C08F
:10019000FC01EE0FFF1F8E0F9F1F820F931FE09138
:1001A000E502E80FF92FF11DF082E091E602E80F79
:1001B000F92FF11DB0832091E702820F911DFC0100
:1001C000A083FF90BF90AF909F908F907F906F9093
:1001D0005F904F900895880F991F880F991F820F85
:1001E000931FE80FF92FF11D1082D9CF833081F0D2
:1001F00028F4813099F08230A9F008958730A9F071
:100200008830C9F08430B1F4809180008F7D03C0C4
:10021000809180008F7780938000089584B58F77D8
:1002200084BD089584B58F7DFBCF8091B0008F771A
:100230008093B00008958091B0008F7DF9CF1F9317
:10024000CF93DF93282F30E0F901E458FF4F8491DA
:10025000F901E057FF4FD491F901E255FF4FC491E6
:10026000CC23A9F0162F81110E94F600EC2FF0E0AC
:10027000EE0FFF1FEC55FF4FA591B4918FB7F89487
:10028000EC91111108C0D095DE23DC938FBFDF9174
:10029000CF911F910895DE2BF8CFCF93DF93EC0120
:1002A0008091F8029091F902029749F4C130D1058A
:1002B00009F43BC06CF560E0209709F437C08091E9
:1002C000F8029091F902049749F4C130D10509F47C
:1002D0005CC00CF037C0209709F442C08091F8024E
:1002E0009091F902059709F0E5C0CA30D10508F0F0
:1002F000E1C0FE01E258FE4F0C94FE0EDD01E90163
:10030000FA0110022B022D0234024002510258025F
:10031000C230D105A9F060E0C330D10581F68091EB
:10032000FC020E941F0160E006C061E08091FC02B7
:100330000E941F0161E08091FE020E941F01BFCF59
:1003400061E0EDCFC230D10539F1C330D10509F0FC
:10035000C5CF61E08091FC020E941F0160E022C0D5
:1003600061E08091FC020E941F0160E08091FE022A
:100370000E941F0161E0809100030E941F0160E064
:10038000809102030E941F01A9CF60E08091FC02CE
:100390000E941F0161E0EACF60E08091FC020E94B0
:1003A0001F0161E08091FE020E941F0160E08091C8
:1003B00000030E941F0161E0E3CF60E08091FC0236
:1003C0000E941F0161E08091FE020E941F0161E016
:1003D0000BC060E08091FC020E941F0161E08091EF
:1003E000FE020E941F0160E0809100030E941F0135
:1003F00060E010C060E08091FC020E941F0161E09B
:100400008091FE020E941F0160E0809100030E9423
:100410001F0161E0809102030E941F0161E015C08D
:1004200060E08091FC020E941F0161E08091FE0269
:100430000E941F0160E0809100030E941F0161E0A3
:10044000809102030E941F0160E080910403DF910C
:10045000CF910C941F0161E0E4CF61E08091FC0238
:100460000E941F0160E0E2CF61E08091FC020E94E7
:100470001F0160E08091FE020E941F0161E0DBCF5E
:1004800061E08091FC020E941F0160E08091FE0209
:100490000E941F0161E0809100030E941F0160E043
:1004A000CFCF61E08091FC020E941F0160E08BCF02
:1004B00060E0F8CFDF91CF910895CF93DF9390E084
:1004C000FC01E057FF4F249182559F4FFC0184911E
:1004D0008823C9F090E0880F991FFC01EE58FF4F68
:1004E000A591B491FC01EC55FF4FC591D4916111D8
:1004F0000DC09FB7F8948C91209582238C938881AE
:10050000282328839FBFDF91CF910895623051F453
:100510009FB7F8943C91822F809583238C93E88138
:100520002E2BEFCF8FB7F894EC912E2B2C938FBFFF
:10053000EACF3FB7F8948091BB019091BC01A091A4
:10054000BD01B091BE0126B5A89B05C02F3F19F093
:100550000196A11DB11D3FBFBA2FA92F982F882743
:10056000BC01CD01620F711D811D911D42E0660F1E
:10057000771F881F991F4A95D1F708954F925F9270
:100580006F927F928F929F92AF92BF92EF92FF9263
:100590000F931F93CF93DF93EC0197FF04C0CC27F9
:1005A000DD27C81BD90B181619060CF061C081E0B5
:1005B00090E09093F1028093F00204E010E08AE072
:1005C000E82EF12C209709F46FC00E9499028090C8
:1005D000060390900703A0900803B09009032B0135
:1005E0003C01481859086A087B088090F2029090F4
:1005F000F302A090F402B090F502481459046A0482
:100600007B0400F360930603709307038093080351
:10061000909309038091FA029091FB022091F002DD
:100620003091F1022130310559F501969093FB028A
:100630008093FA022091F6023091F7028217930715
:1006400021F41092FB021092FA0221978091FA0293
:100650009091FB022091F8023091F902B701253008
:10066000310509F0B8010E94A90E0E944D01AACFE0
:10067000892B09F4A2CF1092F1021092F0029DCFC3
:10068000892B41F48091F6029091F7029093FB023E
:100690008093FA028091FA029091FB020197909365
:1006A000FB028093FA02D1CFDF91CF911F910F917E
:1006B000FF90EF90BF90AF909F908F907F906F9042
:1006C0005F904F9008950F931F93CF93DF93CDB713
:1006D000DEB729970FB6F894DEBF0FBECDBF80916D
:1006E000E3029091E402892B09F47CC00E949902F4
:1006F0000091E9021091EA022091EB023091EC02A4
:10070000601771078207930740F46093E9027093C2
:10071000EA028093EB029093EC020091E9021091BF
:10072000EA022091EB023091EC02601B710B820B0C
:10073000930B6C32714081059105C0F2F894809161
:10074000DE029091DF029A838983E091E302F091C7
:10075000E402DF011196808189879091DA02E091AD
:10076000ED02F091EE028091EF02992309F445C069
:100770009081982B98879081809589238F838F8192
:100780008C8388E08B8358856F8149853B812C81E0
:1007900089819A81508347FD252F3A952083262F02
:1007A00039F0441F00C000006083000000C0F2CF99
:1007B00038E04D9160830000019761F7F093EE02FD
:1007C000E093ED0249873B832C839A838983789455
:1007D0000E9499026093E9027093EA028093EB020F
:1007E0009093EC0229960FB6F894DEBF0FBECDBFF2
:1007F000DF91CF911F910F9108959081982B988749
:100800009081809589238F838F818E8388E08D836B
:1008100058856F8149853D812E8189819A815083D8
:1008200047FD252F00C000C0208300C000C000C0CD
:1008300000C000C060830000262F3A9541F0441F9D
:10084000000000C000C000C000C000C0E8CF38E019
:100850004D9100C0608300C0019709F7F093EE024C
:10086000E093ED0249873D832E83AFCF8F929F9215
:10087000AF92BF92CF92DF92EF92FF924B015C0159
:100880000E9499026B017C010E9499026C197D09FA
:100890008E099F09683E734081059105A8F321E008
:1008A000821A9108A108B10888EEC80E83E0D81E0C
:1008B000E11CF11C81149104A104B10429F7FF90FB
:1008C000EF90DF90CF90BF90AF909F908F90089562
:1008D00008950895AF92BF92CF92DF92EF92FF9268
:1008E0000F931F93CF93DF936C017B018B01040F58
:1008F000151FEB015E01AE18BF08C017D10759F0F4
:100900006991D601ED91FC910190F081E02DC60135
:100910000995892B79F7C501DF91CF911F910F912F
:10092000FF90EF90DF90CF90BF90AF900895FC01C3
:10093000538D448D252F30E0842F90E0821B930B44
:10094000541710F0CF96089501970895FC01918DEA
:10095000828D981761F0A28DAE0FBF2FB11D5D96ED
:100960008C91928D9F5F9F73928F90E008958FEF8F
:100970009FEF0895FC01918D828D981731F0828D43
:10098000E80FF11D858D90E008958FEF9FEF08959A
:10099000FC01918D228D892F90E0805C9F4F821BFE
:1009A00091098F739927089581E392E00E94C8040A
:1009B00021E0892B09F420E0822F089580E090E067
:1009C000892B29F00E94D40481110C940000089511
:1009D000FC01A48DA80FB92FB11DA35ABF4F2C91B4
:1009E000848D90E001968F739927848FA689B789AB
:1009F0002C93A089B1898C91837080648C93938DA2
:100A0000848D981306C00288F389E02D80818F7D44
:100A100080830895EF92FF920F931F93CF93DF93FC
:100A2000EC0181E0888F9B8D8C8D98131AC0E8892A
:100A3000F989808185FF15C09FB7F894EE89FF89F9
:100A40006083E889F98980818370806480839FBF97
:100A500081E090E0DF91CF911F910F91FF90EF9097
:100A60000895F62E0B8D10E00F5F1F4F0F731127A7
:100A7000E02E8C8D8E110CC00FB607FCFACFE889E2
:100A8000F989808185FFF5CFCE010E94E804F1CF7E
:100A9000EB8DEC0FFD2FF11DE35AFF4FF0829FB756
:100AA000F8940B8FEA89FB8980818062CFCFCF9346
:100AB000DF93EC01888D8823B9F0AA89BB89E88986
:100AC000F9898C9185FD03C0808186FD0DC00FB62C
:100AD00007FCF7CF8C9185FFF2CF808185FFEDCFAA
:100AE000CE010E94E804E9CFDF91CF910895DC01A7
:100AF000ED91FC910190F081E02D099420918B0102
:100B0000260F3327331F21323105ECF420912B02BD
:100B1000FC0190E080E0243069F082E00895A0912B
:100B20008B012191AC0145595E4FA40FB52FB11D2A
:100B30002C930196861798F380918B01680F609330
:100B40008B0180E0089581E0089510922B0281E0EE
:100B500080930A021092050261E082E10E941F0167
:100B600061E083E10E941F01E9EBF0E080818E7F6C
:100B7000808380818D7F808388E48093B80085E4C2
:100B80008093BC000895CF93DF9391E090936A0126
:100B90008823B9F0C091B800D091BA008091BC0010
:100BA0008A7B8093BC0060E082E10E941F0160E0CC
:100BB00083E10E941F010E94A505D093BA00C09353
:100BC000B800DF91CF910895CF92DF92EF92FF921C
:100BD0000F931F93CF93DF93D82FC62F613208F066
:100BE00098C00E9499026B017C0180912B028111B7
:100BF0006BC081E080932B0280930A029FEF909359
:100C00000902109208029C0F90930702809306023B
:100C100080910602DD0FD82BD09306028091050249
:100C2000813009F078C0109205020E9499026B0190
:100C30007C01809106028093BB0080912D029091EF
:100C40002E02A0912F02B0913002892B8A2B8B2B80
:100C5000A1F00E94990200912D0210912E02209184
:100C60002F02309130026C197D098E099F090617F9
:100C700017072807390708F448C08091BC0083FD96
:100C8000D8CF85EC8093BC000E9499026B017C0157
:100C900080912B02813009F440C0809108028C17AA
:100CA00010F4C0910802E5EEF1E0ABE0B2E080E0C4
:100CB0008C1355C08C2FDF91CF911F910F91FF9016
:100CC000EF90DF90CF90089580912D0290912E02A9
:100CD000A0912F02B0913002892B8A2B8B2B09F423
:100CE00084CF0E94990200912D0210912E02209132
:100CF0002F02309130026C197D098E099F09061769
:100D000017072807390708F070CF80912C020E943E
:100D1000C305C0E0CFCF85EEB5CF80912D02909175
:100D20002E02A0912F02B0913002892B8A2B8B2B9F
:100D300009F4AECF0E94990200912D0210912E026B
:100D400020912F02309130026C197D098E099F0984
:100D5000061717072807390708F09ACFD6CF9191C1
:100D60009D938F5FA5CF8F929F92AF92BF92CF92AC
:100D7000DF92EF92FF920F931F93CF93DF93D09167
:100D8000E401D13208F0D7C0182FC091E3010E94CE
:100D900099026B017C0180912B0281116BC082E072
:100DA00080932B0210930A028FEF80930902109216
:100DB0000802D0930702A3ECB1E0E5EEF1E080E099
:100DC000D81391C01092060280910602CC0FC82B56
:100DD000C093060280910502813009F088C010920C
:100DE00005020E9499026B017C01809106028093AA
:100DF000BB0080912D0290912E02A0912F02B09104
:100E00003002892B8A2B8B2BA1F00E949902009132
:100E10002D0210912E0220912F02309130026C1978
:100E20007D098E099F09061717072807390708F457
:100E300042C08091BC0083FDD8CF85EC8093BC007C
:100E40000E9499026B017C0180912B02823009F48F
:100E500050C0809109028F3F09F46FC08091090250
:100E6000803209F46CC080910902803309F469C0B2
:100E700084E026C080912D0290912E02A0912F0235
:100E8000B0913002892B8A2B8B2B09F484CF0E94DE
:100E9000990280902D0290902E02A0902F02B09087
:100EA00030026C197D098E099F0986169706A806DF
:100EB000B90608F070CF80912C020E94C30585E02E
:100EC0001092C2011092E4011092C101DF91CF9102
:100ED0001F910F91FF90EF90DF90CF90BF90AF9058
:100EE0009F908F9008959D9191938F5F69CF85EE2C
:100EF000A5CF80912D0290912E02A0912F02B0914A
:100F00003002892B8A2B8B2B09F49ECF0E949902E9
:100F100000912D0210912E0220912F02309130026B
:100F20006C197D098E099F090617170728073907CD
:100F300008F08ACFC0CF81E0C3CF80E0C1CF82E08C
:100F4000BFCF83E0BDCF0895E091C0018091BF0184
:100F5000E81730F4F0E0E55FFD4F808190E0089500
:100F60008FEF9FEF08959091C0018091BF012FEF07
:100F70003FEF981748F4E92FF0E0E55FFD4F20813F
:100F800030E09F5F9093C001C90108958091BF0137
:100F90009091C001891B990B0895CF92DF92EF9237
:100FA000FF920F931F93CF93DF937C01CB018A01B4
:100FB0002091C101222389F0EB016B01C40ED51EE3
:100FC000CC15DD0569F06991D701ED91FC91019097
:100FD000F081E02DC7010995F3CF642F0E947E05B3
:100FE000C801DF91CF911F910F91FF90EF90DF909B
:100FF000CF900895CF93DF931F92CDB7DEB769836B
:101000002091C1012223F9F02091E401203258F00F
:1010100021E030E0FC013383228390E080E00F90F8
:10102000DF91CF9108958091C201E82FF0E0ED5358
:10103000FE4F998190838F5F8093C2018093E4017A
:1010400081E090E0ECCF61E0CE0101960E947E0548
:10105000F7CF90E080E0089561E088E60E94E40523
:101060001092C0018093BF0180910A0390910B03FD
:10107000DC01ED91FC910284F385E02D0995982F18
:1010800092959F708F70BAE09B9F800D11240895F8
:1010900080910A0390910B0321E02093C10128E67F
:1010A0002093E3011092C2011092E40161E070E02C
:1010B0000E94770581E00E94B3060C942C08CF9320
:1010C000DF93FC0101900020E9F73197AF01481B45
:1010D000590BBC0181E392E00E946A04EC0142E0FA
:1010E00050E06CE271E081E392E00E946A048C0FB0
:1010F0009D1FDF91CF91089585ED8093BC00809175
:101100002D0290912E02A0912F02B09130020796ED
:10111000A11DB11D23E0B695A795979587952A95B2
:10112000D1F72091BC0024FD03C010922B0208953A
:1011300040912D0250912E0260912F027091300249
:10114000452B462B472B69F30097A105B10541F0CC
:101150002AE22A95F1F700C00197A109B109E1CF70
:1011600080912C020C94C3051F920F920FB60F9220
:1011700011242F933F938F939F93AF93BF938091AD
:10118000B7019091B801A091B901B091BA01309125
:10119000B60123E0230F2D3758F50196A11DB11D8F
:1011A0002093B6018093B7019093B801A093B90141
:1011B000B093BA018091BB019091BC01A091BD0197
:1011C000B091BE010196A11DB11D8093BB0190930A
:1011D000BC01A093BD01B093BE01BF91AF919F919F
:1011E0008F913F912F910F900FBE0F901F901895E8
:1011F00026E8230F0296A11DB11DD2CF1F920F9298
:101200000FB60F9211242F933F934F935F936F93D9
:101210007F938F939F93AF93BF93EF93FF9381E35C
:1012200092E00E94E804FF91EF91BF91AF919F91EE
:101230008F917F916F915F914F913F912F910F907F
:101240000FBE0F901F9018951F920F920FB60F921E
:1012500011242F938F939F93EF93FF93E09141027B
:10126000F09142028081E0914702F091480282FDB4
:101270001BC0908180914A028F5F8F7320914B0237
:10128000821741F0E0914A02F0E0EF5CFD4F958F4C
:1012900080934A02FF91EF919F918F912F910F9030
:1012A0000FBE0F901F9018958081F4CF1F920F9260
:1012B0000FB60F9211242F933F934F935F936F9329
:1012C0007F938F939F93AF93BF93EF93FF938091FF
:1012D000B900887F803609F44AC0F0F5883209F4F5
:1012E000A7C018F5803109F49BC0B8F4882309F42D
:1012F000F9C0883009F494C0FF91EF91BF91AF918C
:101300009F918F917F916F915F914F913F912F911D
:101310000F900FBE0F901F901895883109F488C068
:10132000803251F78093090214C0803409F49DC0C3
:1013300040F48033B9F38833F9F68093090285ECE1
:10134000B0C0803509F485C0883509F496C088346A
:1013500099F60E947C08D0CF883909F48CC038F502
:10136000883729F050F4883611F0803729F683E069
:1013700080932B021092AD0157C0883809F47BC0CE
:10138000803919F0803809F0B7CF8091AD018032F3
:1013900008F071C0E091AD0181E08E0F8093AD0146
:1013A0008091BB00F0E0E357FE4F80833DC0803B5F
:1013B00039F0E0F4803A09F479C0883A09F09CCF1A
:1013C00084E080932B0210928C0110928B01E091AB
:1013D000B001F091B101099580918B0181110FC08D
:1013E00081E080938B0110926B0109C0803C09F46D
:1013F000A6CF883C09F4A3CF883B09F07DCFE091CC
:101400008C0181E08E0F80938C01F0E0E559FE4F56
:1014100080818093BB0090918C0180918B0129C0C9
:10142000809106028093BB0085EC8093BC0064CF62
:101430009091080280910702981758F5E0910802F0
:1014400081E08E0F80930802F0E0EB51FE4F808127
:10145000E9CFE091080281E08E0F8093080280912D
:10146000BB00F0E0EB51FE4F808390910802809129
:1014700007029817C8F285E8D8CFE091080281E00A
:101480008E0F809308028091BB00F0E0EB51FE4F7D
:10149000808380910A0281115CCF81E080930502F4
:1014A00084EA8093BC0010922B0226CF85EC8093B7
:1014B000BC0010922B028091AD01803230F4E0919B
:1014C000AD01F0E0E357FE4F10826091AD0170E096
:1014D000E091AE01F091AF018DE891E00995109295
:1014E000AD010ACF1092090234CF1092340210924B
:1014F000330288EE93E0A0E0B0E080933502909351
:101500003602A0933702B09338022CE031E03093DA
:1015100032022093310225EC30E030933E022093DA
:101520003D0224EC30E03093400220933F0220EC57
:1015300030E0309342022093410221EC30E03093BE
:1015400044022093430222EC30E030934602209381
:10155000450226EC30E03093480220934702109277
:101560004A0210924B0210924C0210924D021092BD
:10157000D1021092D0028093D2029093D302A09312
:10158000D402B093D5028EE191E09093CF02809384
:10159000CE028EEC92E090930B0380930A0310929C
:1015A000FB021092FA021092F1021092F0021092D5
:1015B000060310920703109208031092090380E0BB
:1015C00098E09093F7028093F6028EE090E090937B
:1015D000FD028093FC028FE090E09093FF028093E5
:1015E000FE0280E190E0909301038093000381E18B
:1015F00090E0909303038093020361E08EE00E94E9
:101600005D0261E08091FE020E945D0261E08091D6
:1016100000030E945D0261E0809102030E945D026E
:10162000109205031092040384E090E09093F90275
:101630008093F8021092DB021092E2021092E9020B
:101640001092EA021092EB021092EC0281E0809379
:10165000E8028093E5021092E60292E09093E7029E
:101660008093DA028CE690E09093DF028093DE02B2
:101670000E94D0109093E4028093E302009789F1D6
:101680002CE6FC0111922A95E9F784E290E0909310
:10169000DD028093DC0286E090E09093E10280938B
:1016A000E0028091DB02882341F061E086E00E9445
:1016B0005D0260E086E00E941F01E4EBF0E0E4914F
:1016C000F0E0EE0FFF1FEC55FF4F85919491909342
:1016D000EE028093ED02E6E9F0E0E491E093EF02A0
:1016E00008951092DF021092DE021092DD02109235
:1016F000DC02D1CF789484B5826084BD84B58160EA
:1017000084BD85B5826085BD85B5816085BD8091CC
:101710006E00816080936E00109281008091810044
:10172000826080938100809181008160809381003C
:10173000809180008160809380008091B1008460FE
:101740008093B1008091B00081608093B00080915F
:101750007A00846080937A0080917A00826080931E
:101760007A0080917A00816080937A0080917A007B
:10177000806880937A001092C100E0914102F0915C
:10178000420282E08083E0913D02F0913E021082AD
:10179000E0913F02F091400280E180831092490283
:1017A000E0914502F091460286E08083E091430299
:1017B000F0914402808180618083E0914302F09146
:1017C0004402808188608083E0914302F09144026A
:1017D000808180688083E0914302F091440280819F
:1017E0008F7D80838FE291E00E945F081092C0019C
:1017F0001092BF011092C2011092E4010E94A5054F
:1018000088E694E09093B1018093B00189E694E07A
:101810009093AF018093AE018091E0029091E1023C
:1018200097FD2EC061E00E945D0260E08091E002C1
:101830000E941F0181E08093DB026091E20220910F
:10184000E3023091E402603421F16150E1F070E094
:101850008FEF9FE30E94950EF9014091DE025091B7
:10186000DF02CF01821B930B8417950778F4408128
:10187000469FC001479F900D112490833196EDCF74
:101880001092DB02DACF70E060E0E6CF80E4809374
:10189000E2024091DE025091DF0270E060E0809150
:1018A000E3029091E4020E94F5110E9463032091EB
:1018B000F6023091F702032E000C440B550B60E04A
:1018C00077E883E993E00E94DF0ECA01B9012BE0BB
:1018D00030E040E050E00E94DF0E2093F2023093AF
:1018E000F3024093F4025093F50262E082E00E941A
:1018F0005D028DE491E00E945F080091DC0210918E
:10190000DD020115110569F0D0E0C0E04AE05AE0BF
:101910006AE070E0CE010E948D0021960C171D0731
:10192000A9F70E946303C0E0D8E00EE710E0E2E907
:10193000EE2EE0E0FE2EF0EBCF2EF0E0DF2EF801F1
:101940008491F701A490F601B490BB20A1F081111D
:101950000E94F600EB2DF0E0EE0FFF1FE859FF4F5D
:10196000A591B4918C91A82231F081E090E00E9481
:10197000BE02219721F71092B2011092B30110928A
:10198000B4011092B50140E05FEF60E070E090E0DC
:1019900080E00E948D000E94630360ED77E080E0AC
:1019A00090E00E9436040E944808C82FD0E0BE0193
:1019B0000D2E000C880B990B0E94AE0F29E838E819
:1019C00048E052E40E9463104B015C012091B20197
:1019D0003091B3014091B4015091B5010E94040FC0
:1019E0006B017C0120E030E0A9010E945E10181616
:1019F0000CF003C120E030E040E05FE3C701B60136
:101A00000E945E1018160CF402C1D0930101C0931D
:101A100000018CE591E00E945F0838E6332E4AE031
:101A2000242E5CE0852E912C60E0A62E60E0B62E80
:101A300080910A0390910B03F1E0F093C101309281
:101A4000E3011092C2011092E40162E070E00E9492
:101A5000770581E00E94B30661E088E60E94E40514
:101A60001092C0018093BF0180910A0390910B03F3
:101A7000DC01ED91FC910284F385E02D0995982F0E
:101A800092959F70C82FCF7086FFD1C09170929DA4
:101A9000C00D1124D0E00E944808082F10E080916A
:101AA0000A0390910B03B1E0B093C1013092E301BE
:101AB0001092C2011092E40170E060E00E9477058C
:101AC00081E00E94B3060E942C0880910001909151
:101AD00001010817190709F447C0B801012E000CCD
:101AE000880B990B0E94AE0F29E838E848E052E4D1
:101AF0000E9463102B013C012091B2013091B3018F
:101B00004091B4015091B5010E94040F6B017C011A
:101B100020E030E040E854E40E945E1018160CF01B
:101B200088C020E030E040E055E4C701B6010E94E3
:101B3000040F6B017C0120E030E0A901C701B60170
:101B40000E945E1018160CF087C020E030E040E0E4
:101B50005FE3C701B6010E945E1018160CF486C040
:101B600010930101009300014091DE025091DF02C9
:101B700070E060E08091E3029091E4020E94F51130
:101B800010E000E044E050E060E070E0C8010E9436
:101B90008D000F5F1F4F08311105A1F7CE01B40171
:101BA0000E94A90E4FEF5FEF6FEF70E0009709F012
:101BB000A9C090E080E00E948D0040E050E064E029
:101BC00070E0C8010E948D000F5F1F4F04321105A5
:101BD000A1F70E94630368EE73E080E090E00E944A
:101BE0003604A114B10409F423CF0E94D40488233D
:101BF00009F41ECF0E9400001BCF20E030E040E03F
:101C00005FEBC701B6010E94710F87FFFECEC701CF
:101C1000B6010E94760FCB010E94BE028092B201F3
:101C20009092B301A092B401B092B501EECE937040
:101C30002ECF20E030E040E854ECC701B6010E940E
:101C4000710F87FF78CF20E030E040E055E4C70116
:101C5000B6010E94050F6DCF20E030E040E05FEB61
:101C6000C701B6010E94710F87FF7ACFC701B60185
:101C70000E94760FCB010E94BE0220E030E040E0DF
:101C800055E4C301B2010E945E1087FF2AC0409252
:101C9000B2015092B3016092B4017092B501C0904C
:101CA000B201D090B301E090B401F090B50120E012
:101CB00030E0A901C701B6010E94710F87FF50CF24
:101CC00020E030E040E055E4C701B6010E94050F76
:101CD0006093B2017093B3018093B4019093B50106
:101CE0003FCF20E030E040E055E4C301B2010E9464
:101CF000040F6093B2017093B3018093B401909389
:101D0000B501CDCF880F991F56CF8091E3029091F6
:101D1000E4020E946C118091E0029091E10297FD33
:101D200003C060E00C945D020895AA1BBB1B51E147
:101D300007C0AA1FBB1FA617B70710F0A61BB70B3B
:101D4000881F991F5A95A9F780959095BC01CD01E0
:101D5000089597FB072E16F4009407D077FD09D05D
:101D60000E94950E07FC05D03EF4909581959F4FFB
:101D70000895709561957F4F0895A1E21A2EAA1BD0
:101D8000BB1BFD010DC0AA1FBB1FEE1FFF1FA2172B
:101D9000B307E407F50720F0A21BB30BE40BF50B28
:101DA000661F771F881F991F1A9469F760957095B1
:101DB000809590959B01AC01BD01CF010895052E42
:101DC00097FB1EF400940E94F60E57FD07D00E9468
:101DD000BD0E07FC03D04EF40C94F60E50954095C2
:101DE000309521953F4F4F4F5F4F089590958095C7
:101DF000709561957F4F8F4F9F4F0895EE0FFF1F96
:101E00000590F491E02D09945058BB27AA270E9411
:101E10001C0F0C9424100E94161038F00E941D1004
:101E200020F039F49F3F19F426F40C9413100EF4AB
:101E3000E095E7FB0C940D10E92F0E94351058F344
:101E4000BA17620773078407950720F079F4A6F59F
:101E50000C9457100EF4E0950B2EBA2FA02D0B0109
:101E6000B90190010C01CA01A0011124FF27591BDF
:101E700099F0593F50F4503E68F11A16F040A22FE5
:101E8000232F342F4427585FF3CF46953795279556
:101E9000A795F0405395C9F77EF41F16BA0B620B55
:101EA000730B840BBAF09150A1F0FF0FBB1F661F9C
:101EB000771F881FC2F70EC0BA0F621F731F841FDF
:101EC00048F4879577956795B795F7959E3F08F005
:101ED000B0CF9395880F08F09927EE0F97958795C7
:101EE00008950E94E90F08F481E008950E947D0F93
:101EF0006894B1110C94581008950E943D1088F018
:101F00009F5798F0B92F9927B751B0F0E1F0660FBD
:101F1000771F881F991F1AF0BA95C9F714C0B130FE
:101F200091F00E945710B1E008950C945710672F5C
:101F3000782F8827B85F39F0B93FCCF3869577952D
:101F40006795B395D9F73EF4909580957095619516
:101F50007F4F8F4F9F4F0895E89409C097FB3EF441
:101F600090958095709561957F4F8F4F9F4F9923E6
:101F7000A9F0F92F96E9BB279395F6958795779564
:101F80006795B795F111F8CFFAF4BB0F11F460FF24
:101F90001BC06F5F7F4F8F4F9F4F16C0882311F07C
:101FA00096E911C0772321F09EE8872F762F05C090
:101FB000662371F096E8862F70E060E02AF09A952B
:101FC000660F771F881FDAF7880F9695879597F920
:101FD0000895990F0008550FAA0BE0E8FEEF1616BA
:101FE0001706E807F907C0F012161306E407F5070D
:101FF00098F0621B730B840B950B39F40A2661F081
:10200000232B242B252B21F408950A2609F4A14023
:10201000A6958FEF811D811D089597F99F6780E830
:1020200070E060E008959FEF80EC089500240A942A
:102030001616170618060906089500240A941216A3
:102040001306140605060895092E0394000C11F4D6
:10205000882352F0BB0F40F4BF2B11F460FF04C083
:102060006F5F7F4F8F4F9F4F089557FD9058440FDC
:10207000551F59F05F3F71F04795880F97FB991FE7
:1020800061F09F3F79F087950895121613061406A4
:10209000551FF2CF4695F1DF08C016161706180631
:1020A000991FF1CF86957105610508940895E8940C
:1020B000BB2766277727CB0197F908950E94E90F80
:1020C00008F48FEF08950E9476100C9424100E945B
:1020D000161038F00E941D1020F0952311F00C947A
:1020E0000D100C94131011240C9458100E943510EC
:1020F00070F3959FC1F3950F50E0551F629FF0015B
:10210000729FBB27F00DB11D639FAA27F00DB11D73
:10211000AA1F649F6627B00DA11D661F829F2227FC
:10212000B00DA11D621F739FB00DA11D621F839F83
:10213000A00D611D221F749F3327A00D611D231F59
:10214000849F600D211D822F762F6A2F11249F57A7
:1021500050409AF0F1F088234AF0EE0FFF1FBB1FAA
:10216000661F771F881F91505040A9F79E3F510569
:1021700080F00C940D100C9458105F3FE4F3983EDF
:10218000D4F3869577956795B795F795E7959F5F13
:10219000C1F7FE2B880F911D9695879597F90895A5
:1021A0000F931F93CF93DF938230910510F482E059
:1021B00090E0E0910E03F0910F0330E020E0B0E0FA
:1021C000A0E0309799F42115310509F44AC0281B85
:1021D000390B24303105D8F58A819B816115710551
:1021E00089F1FB0193838283FE0111C040815181FB
:1021F0000281138148175907E0F04817590799F4ED
:10220000109761F012960C93129713961C933296C6
:10221000CF01DF91CF911F910F91089500930E038D
:1022200010930F03F4CF2115310551F042175307D6
:1022300038F0A901DB019A01BD01DF01F801C1CF2E
:10224000EF01F9CF90930F0380930E03CDCFFE01E2
:10225000E20FF31F81939193225031093983288330
:10226000D7CF20910C0330910D03232B41F4209103
:1022700004013091050130930D0320930C0320914C
:102280000201309103012115310541F42DB73EB70C
:102290004091060150910701241B350BE0910C037E
:1022A000F0910D03E217F307A0F42E1B3F0B281744
:1022B000390778F0AC014E5F5F4F2417350748F0BF
:1022C0004E0F5F1F50930D0340930C038193919326
:1022D0009FCFF0E0E0E09CCFCF93DF930097E9F051
:1022E000FC01329713821282A0910E03B0910F036A
:1022F000ED0130E020E01097A1F420813181820FC0
:10230000931F20910C0330910D032817390709F012
:1023100061C0F0930D03E0930C03DF91CF9108951A
:10232000EA01CE17DF07E8F54A815B819E0141157E
:102330005105B1F7E901FB83EA8349915991C40F33
:10234000D51FEC17FD0761F4808191810296840FFF
:10235000951FE90199838883828193819B838A8376
:10236000F0E0E0E012968D919C9113970097B9F5FB
:102370002D913C911197CD010296820F931F2091D0
:102380000C0330910D032817390739F6309751F5B2
:1023900010920F0310920E03B0930D03A0930C0341
:1023A000BCCFD383C28340815181840F951FC8174E
:1023B000D90761F44E5F5F4F88819981480F591F9B
:1023C000518340838A819B819383828321153105C8
:1023D00009F0B0CFF0930F03E0930E039ECFFD0101
:1023E000DC01C0CF13821282D7CFDC0101C06D9314
:1023F00041505040E0F7089510E0C2E6D0E004C03C
:10240000FE010E94FE0E2196C336D107C9F7F8944B
:02241000FFCFFC
:10241200FFFF000010038000000000000A056A04AC
:1024220097045705C804A604BA0400000000FA077E
:10243200CD072908A307C607B307A4070D0A003D65
:102442003D3D2048796272696420436C6F636B2062
:102452005374617274696E67203D3D3D0043616C47
:102462006962726174696E672E2E2E003D3D3D20B9
:0A2472005265616479203D3D3D0094
:00000001FF
