:100000000C9463000C948B000C948B000C948B006C
:100010000C948B000C948B000C948B000C948B0034
:100020000C948B000C948B000C948B000C948B0024
:100030000C948B000C948B000C948B000C948B0014
:100040000C94A2090C948B000C94120A0C94EC09E9
:100050000C948B000C948B000C948B000C948B00F4
:100060000C94440A0C948B0000000000240027002C
:100070002A000000000023002600290000000008DC
:10008000000201000003040700000000000000005F
:10009000010204081020408001020408102001021F
:1000A0000408102000000000250028002B00040494
:1000B0000404040404040202020202020303030310
:1000C0000303630BD51111241FBECFEFD8E0DEBFB1
:1000D000CDBF11E0A0E0B1E0ECE4FCE202C005908D
:1000E0000D92A435B107D9F723E0A4E5B1E001C032
:1000F0001D92A930B207E1F710E0C2E6D0E004C0DB
:100100002197FE010E941B13C136D107C9F70E9437
:10011000680C0C9419160C9400008F929F92AF9269
:10012000BF92CF92DF92EF92FF92CF932091D502B0
:100130003091D60282179307E8F54B01AA24BB241D
:10014000C82DC52ED62EE72EFF24BC2DA42F20911E
:10015000DB02222361F0829E40011124C92D2C9DD7
:1001600060011124BD2D249FF0011124AF2FE091D7
:10017000E102E090DC02F090DD023091DE02E31358
:1001800023C09C01220F331F820F931F8E0D9F1DD2
:10019000E091DE02E80FF92FF11DC083E091DF024C
:1001A000E80FF92FF11DB0832091E002820F911D1D
:1001B000FC01A083CF91FF90EF90DF90CF90BF9094
:1001C000AF909F908F900895880F991F880F991F67
:1001D0008E0D9F1D472F552766277727222349F02D
:1001E00030E0249F7001259FF00C349FF00C112407
:1001F0004F2DE80FF92FF11D4083CACFCF92DF9228
:10020000EF92FF92E62F9C01AAEFB5E00E940C133B
:10021000DC01CB019058AF4FBF4FCD01BB2797FDFD
:10022000B095AB2F8E3F41E0940798F5782F8F3F24
:10023000910508F44DC04EEF481B50E07FEFF0E011
:10024000319630E0272FDF010E94F2126B017C0112
:10025000CC24EE24FF24252F0E94F212672F782F42
:10026000892F9927C62AD72AE82AF92A242F0E94FB
:10027000F212982F872F762F6627662777279927E0
:100280006C297D298E299F29FF90EF90DF90CF90D8
:1002900008958C3F43E0940760F452E0580F7FEFDD
:1002A0008D3F42E0940718F07CEF781B5FEF40E051
:1002B000C6CF8A3F45E0940771F05AEF581B8B3F39
:1002C00044E0940748F444E0480F5FEF70E0B7CF94
:1002D00050E04FEFB4CF50E070E0FBCF833081F0BF
:1002E00028F4813099F08230A9F008958730A9F080
:1002F0008830C9F08430B1F4809180008F7D03C0D4
:10030000809180008F7780938000089584B58F77E7
:1003100084BD089584B58F7DFBCF8091B0008F7729
:100320008093B00008958091B0008F7DF9CFCF9376
:10033000DF93282F30E0F901E458FF4F8491F90151
:10034000E057FF4FD491F901E255FF4FC491CC2300
:10035000A1F081110E946E01EC2FF0E0EE0FFF1F63
:10036000EE58FF4FA591B491EC91ED2381E090E020
:1003700009F480E0DF91CF91089580E090E0FACF1A
:100380001F93CF93DF93282F30E0F901E458FF4FFC
:100390008491F901E057FF4FD491F901E255FF4FE5
:1003A000C491CC23A9F0162F81110E946E01EC2F6D
:1003B000F0E0EE0FFF1FEC55FF4FA591B4918FB702
:1003C000F894EC91111108C0D095DE23DC938FBF17
:1003D000DF91CF911F910895DE2BF8CFCF93DF935C
:1003E000EC018091F1029091F202029749F4C13040
:1003F000D10509F43BC06CF560E0209709F437C0E3
:100400008091F1029091F202049749F4C130D10534
:1004100009F45CC00CF037C0209709F442C0809109
:10042000F1029091F202059709F0E5C0CA30D105BA
:1004300008F0E1C0FE01E15EFD4F0C941B137E024B
:100440008A029B02B102CC02CE02D502E102F20284
:10045000F902C230D105A9F060E0C330D10581F6C0
:100460008091F5020E94C00160E006C061E08091C9
:10047000F5020E94C00161E08091F7020E94C00174
:10048000BFCF61E0EDCFC230D10539F1C330D10526
:1004900009F0C5CF61E08091F5020E94C00160E0E3
:1004A00022C061E08091F5020E94C00160E080916D
:1004B000F7020E94C00161E08091F9020E94C00130
:1004C00060E08091FB020E94C001A9CF60E08091B2
:1004D000F5020E94C00161E0EACF60E08091F50280
:1004E0000E94C00161E08091F7020E94C00160E0BB
:1004F0008091F9020E94C00161E0E3CF60E0809149
:10050000F5020E94C00161E08091F7020E94C001E3
:1005100061E00BC060E08091F5020E94C00161E0E3
:100520008091F7020E94C00160E08091F9020E9470
:10053000C00160E010C060E08091F5020E94C0013F
:1005400061E08091F7020E94C00160E08091F902B1
:100550000E94C00161E08091FB020E94C00161E045
:1005600015C060E08091F5020E94C00161E08091B9
:10057000F7020E94C00160E08091F9020E94C00170
:1005800061E08091FB020E94C00160E08091FD0269
:10059000DF91CF910C94C00161E0E4CF61E08091E4
:1005A000F5020E94C00160E0E2CF61E08091F502B7
:1005B0000E94C00160E08091F7020E94C00161E0EA
:1005C000DBCF61E08091F5020E94C00160E0809184
:1005D000F7020E94C00161E08091F9020E94C0010F
:1005E00060E0CFCF61E08091F5020E94C00160E041
:1005F0008BCF60E0F8CFDF91CF910895CF93DF9359
:1006000090E0FC01E057FF4F249182559F4FFC0181
:1006100084918823C9F090E0880F991FFC01E85964
:10062000FF4FA591B491FC01EC55FF4FC591D491BA
:1006300061110DC09FB7F8948C91209582238C9303
:100640008881282328839FBFDF91CF91089562304E
:1006500051F49FB7F8943C91822F809583238C931B
:10066000E8812E2BEFCF8FB7F894EC912E2B2C93A3
:100670008FBFEACF3FB7F8948091D8019091D9010C
:10068000A091DA01B091DB0126B5A89B05C02F3FF0
:1006900019F00196A11DB11D3FBFBA2FA92F982FA8
:1006A0008827BC01CD01620F711D811D911D42E0A3
:1006B000660F771F881F991F4A95D1F708954F92AB
:1006C0005F926F927F928F929F92AF92BF92EF92C2
:1006D000FF920F931F93CF93DF93EC0197FF04C01A
:1006E000CC27DD27C81BD90B181619060CF061C0E2
:1006F00081E090E09093EA028093E90204E010E048
:100700008AE0E82EF12C209709F46FC00E943A038A
:100710008090FF0290900003A0900103B09002032C
:100720002B013C01481859086A087B088090EB02AD
:100730009090EC02A090ED02B090EE0248145904A3
:100740006A047B0400F36093FF02709300038093BC
:100750000103909302038091F3029091F40220919F
:10076000E9023091EA022130310559F50196909362
:10077000F4028093F3022091EF023091F00282178D
:10078000930721F41092F4021092F30221978091C2
:10079000F3029091F4022091F1023091F202B7013C
:1007A0002530310509F0B8010E949D120E94EE012A
:1007B000AACF892B09F4A2CF1092EA021092E90283
:1007C0009DCF892B41F48091EF029091F00290939C
:1007D000F4028093F3028091F3029091F402019766
:1007E0009093F4028093F302D1CFDF91CF911F91C8
:1007F0000F91FF90EF90BF90AF909F908F907F9060
:100800006F905F904F9008950F931F93CF93DF9356
:10081000CDB7DEB729970FB6F894DEBF0FBECDBFB8
:100820008091DC029091DD02892B09F47CC00E944A
:100830003A030091E2021091E3022091E402309128
:10084000E502601771078207930740F46093E202A4
:100850007093E3028093E4029093E5020091E20238
:100860001091E3022091E4023091E502601B710BCC
:10087000820B930B6C32714081059105C0F2F894A4
:100880008091D7029091D8029A838983E091DC020B
:10089000F091DD02DF011196808189879091D3026A
:1008A000E091E602F091E7028091E802992309F4D1
:1008B00045C09081982B98879081809589238F835C
:1008C0008F818C8388E08B8358856F8149853B813C
:1008D0002C8189819A81508347FD252F3A95208369
:1008E000262F39F0441F00C000006083000000C0C4
:1008F000F2CF38E04D9160830000019761F7F093EB
:10090000E702E093E60249873B832C839A8389833D
:1009100078940E943A036093E2027093E30280931A
:10092000E4029093E50229960FB6F894DEBF0FBE5D
:10093000CDBFDF91CF911F910F9108959081982B9A
:1009400098879081809589238F838F818E8388E01B
:100950008D8358856F8149853D812E8189819A815A
:10096000508347FD252F00C000C0208300C000C079
:1009700000C000C000C060830000262F3A9541F0FF
:10098000441F000000C000C000C000C000C0E8CF8D
:1009900038E04D9100C0608300C0019709F7F093E3
:1009A000E702E093E60249873D832E83AFCF8F9223
:1009B0009F92AF92BF92CF92DF92EF92FF926B0124
:1009C0007C010E943A034B015C01C114D104E10493
:1009D000F104B9F00E943A03681979098A099B0960
:1009E000683E73408105910580F321E0C21AD10869
:1009F000E108F10888EE880E83E0981EA11CB11C66
:100A0000E4CFFF90EF90DF90CF90BF90AF909F909A
:100A10008F90089508950895AF92BF92CF92DF927C
:100A2000EF92FF920F931F93CF93DF936C017B01A3
:100A30008B01040F151FEB015E01AE18BF08C01734
:100A4000D10759F06991D601ED91FC910190F081A7
:100A5000E02DC6010995892B79F7C501DF91CF916A
:100A60001F910F91FF90EF90DF90CF90BF90AF90CC
:100A70000895FC01538D448D252F30E0842F90E0A4
:100A8000821B930B541710F0CF9608950197089589
:100A9000FC01918D828D981761F0A28DAE0FBF2F52
:100AA000B11D5D968C91928D9F5F9F73928F90E0A8
:100AB00008958FEF9FEF0895FC01918D828D981717
:100AC00031F0828DE80FF11D858D90E008958FEF54
:100AD0009FEF0895FC01918D228D892F90E0805C1D
:100AE0009F4F821B91098F73992708958AE292E0A4
:100AF0000E946A0521E0892B09F420E0822F0895E5
:100B000080E090E0892B29F00E94760581110C94F9
:100B100000000895FC01A48DA80FB92FB11DA35AA0
:100B2000BF4F2C91848D90E001968F739927848F0D
:100B3000A689B7892C93A089B1898C918370806430
:100B40008C93938D848D981306C00288F389E02DD1
:100B500080818F7D80830895EF92FF920F931F9382
:100B6000CF93DF93EC0181E0888F9B8D8C8D981360
:100B70001AC0E889F989808185FF15C09FB7F8946C
:100B8000EE89FF896083E889F989808183708064B8
:100B900080839FBF81E090E0DF91CF911F910F9103
:100BA000FF90EF900895F62E0B8D10E00F5F1F4F12
:100BB0000F731127E02E8C8D8E110CC00FB607FC21
:100BC000FACFE889F989808185FFF5CFCE010E94AF
:100BD0008A05F1CFEB8DEC0FFD2FF11DE35AFF4F8E
:100BE000F0829FB7F8940B8FEA89FB89808180623D
:100BF000CFCFCF93DF93EC01888D8823B9F0AA89FA
:100C0000BB89E889F9898C9185FD03C0808186FDC7
:100C10000DC00FB607FCF7CF8C9185FFF2CF808116
:100C200085FFEDCFCE010E948A05E9CFDF91CF91FC
:100C30000895DC01ED91FC910190F081E02D099483
:100C400020919501260F3327331F21323105ECF413
:100C500020910202FC0190E080E0243069F082E003
:100C60000895A09195012191AC014B585E4FA40FBE
:100C7000B52FB11D2C930196861798F3809195019D
:100C8000680F6093950180E0089581E008951092C7
:100C9000020281E0809301021092FC0161E082E196
:100CA0000E94C00161E083E10E94C001E9EBF0E035
:100CB00080818E7F808380818D7F808388E4809394
:100CC000B80085E48093BC000895CF93DF9391E052
:100CD000909374018823B9F0C091B800D091BA0004
:100CE0008091BC008A7B8093BC0060E082E10E941E
:100CF000C00160E083E10E94C0010E944706D093DA
:100D0000BA00C093B800DF91CF9108950895E091A3
:100D1000090280910802E81730F4F0E0E65FFD4F29
:100D2000808190E008958FEF9FEF089590910902E0
:100D3000809108022FEF3FEF981748F4E92FF0E079
:100D4000E65FFD4F208130E09F5F90930902C9016B
:100D500008958091080290910902891B990B0895CA
:100D6000CF92DF92EF92FF920F931F93CF93DF9377
:100D70007C01CB018A012091C301222389F0EB0180
:100D80006B01C40ED51ECC15DD0569F06991D70144
:100D9000ED91FC910190F081E02DC7010995F3CF11
:100DA000642F0E942006C801DF91CF911F910F91FF
:100DB000FF90EF90DF90CF900895CF93DF931F9235
:100DC000CDB7DEB769832091C3012223F9F02091CA
:100DD000C001203258F021E030E0FC01338322834F
:100DE00090E080E00F90DF91CF9108958091C10154
:100DF000E82FF0E0EC5AFE4F998190838F5F80934B
:100E0000C1018093C00181E090E0ECCF61E0CE01B0
:100E100001960E942006F7CFCF92DF92EF92FF92C9
:100E20000F931F93CF93DF93D091C00181E0D13214
:100E300008F09CC0C091C2010E943A036B017C0182
:100E40008091020281116CC082E08093020281E0F5
:100E5000809301028FEF809300021092FF01D093E4
:100E6000FE01A4E5B1E0ECEDF1E080E0D8138DC027
:100E70001092FD018091FD01CC0FC82BC093FD01A4
:100E80008091FC01813009F084C01092FC010E9425
:100E90003A036B017C018091FD018093BB0080913E
:100EA000040290910502A0910602B0910702892BDD
:100EB0008A2B8B2BA1F00E943A030091040210911F
:100EC000050220910602309107026C197D098E09F6
:100ED0009F09061717072807390708F442C08091B1
:100EE000BC0083FDD8CF85EC8093BC000E943A0300
:100EF0006B017C0180910202823009F44CC0809128
:100F000000028F3F09F469C080910002803209F429
:100F100066C080910002803309F463C084E026C07B
:100F20008091040290910502A0910602B0910702FF
:100F3000892B8A2B8B2B09F483CF0E943A030091D3
:100F400004021091050220910602309107026C19EB
:100F50007D098E099F09061717072807390708F02A
:100F60006FCF809103020E94650685E01092C10157
:100F70001092C0011092C301DF91CF911F910F9188
:100F8000FF90EF90DF90CF9008959D9191938F5FA8
:100F90006DCF85EEA9CF8091040290910502A091BA
:100FA0000602B0910702892B8A2B8B2B09F4A2CF62
:100FB0000E943A030091040210910502209106025A
:100FC000309107026C197D098E099F0906171707D2
:100FD0002807390708F08ECFC4CF80E0C7CF82E062
:100FE000C5CF83E0C3CF90E080E00895CF92DF9239
:100FF000EF92FF920F931F930E943A036B017C01C3
:1010000080910202811163C081E08093020280938B
:1010100001029FEF909300021092FF011092FE01D7
:101020008093FD018091FD01806D8093FD01809191
:10103000FC01813009F07CC01092FC010E943A034F
:101040006B017C018091FD018093BB0080910402C3
:1010500090910502A0910602B0910702892B8A2B7C
:101060008B2BA1F00E943A0300910402109105021B
:1010700020910602309107026C197D098E099F09A3
:10108000061717072807390708F442C08091BC00EB
:1010900083FDD8CF85EC8093BC000E943A036B019E
:1010A0007C0180910202813009F444C08091FF01EB
:1010B000811162C08091FF01ACEDB1E0EAE0F2E0A5
:1010C00090E0981751F12D9121939F5FFACF809175
:1010D000040290910502A0910602B0910702892BAB
:1010E0008A2B8B2B09F48CCF0E943A0300910402C7
:1010F0001091050220910602309107026C197D09BA
:101100008E099F09061717072807390708F078CFB7
:10111000809103020E94650680E01092090280938C
:1011200008021F910F91FF90EF90DF90CF900895EC
:1011300085EEB1CF8091040290910502A091060244
:10114000B0910702892B8A2B8B2B09F4AACF0E941E
:101150003A03009104021091050220910602309199
:1011600007026C197D098E099F09061717072807C2
:10117000390708F096CFCCCF81E09ECF8091030352
:10118000909104030E94F607809103039091040359
:10119000DC01ED91FC910284F385E02D0995982FF7
:1011A00092959F708F70BAE09B9F800D11240895D7
:1011B000FC0101900020E9F73197AF01481B590B62
:1011C000BC018AE292E00C940C058F929F92AF9240
:1011D000BF92CF92DF92EF92FF920F931F93CF9324
:1011E000DF93CDB7DEB7A1970FB6F894DEBF0FBE81
:1011F000CDBF6C01990FEE08FF08F7FE47C06DE206
:101200008AE292E00E94AC058C0122273327A901D3
:101210002C193D094E095F0919A2CE0181967C0166
:101220009AE0892E912CA12CB12CCA01B901A501FB
:1012300094010E94B112605DF70162937F01211554
:1012400031054105510589F790E080E0309719F0AC
:10125000CF010E94D808080F191F82E391E00E9475
:10126000D808800F911FA1960FB6F894DEBF0FBE6D
:10127000CDBFDF91CF911F910F91FF90EF90DF9045
:10128000CF90BF90AF909F908F900895A701960147
:1012900019A28E010F5D1F4F8AE0C82ED12CE12CC0
:1012A000F12CCA01B901A70196010E94B112605D3B
:1012B000F80162938F01211531054105510589F728
:1012C000309729F0CF010E94D8088C01C6CF10E0DA
:1012D00000E0C3CF85ED8093BC0080910402909123
:1012E0000502A0910602B09107020796A11DB11D4B
:1012F00023E0B695A795979587952A95D1F72091E4
:10130000BC0024FD03C01092020208954091040223
:10131000509105026091060270910702452B462B01
:10132000472B69F30097A105B10541F02AE22A9500
:10133000F1F700C00197A109B109E1CF8091030243
:101340000C9465061F920F920FB60F9211242F93E3
:101350003F938F939F93AF93BF938091D4019091CC
:10136000D501A091D601B091D7013091D30123E0EE
:10137000230F2D3758F50196A11DB11D2093D301E0
:101380008093D4019093D501A093D601B093D70157
:101390008091D8019091D901A091DA01B091DB013F
:1013A0000196A11DB11D8093D8019093D901A093FE
:1013B000DA01B093DB01BF91AF919F918F913F9183
:1013C0002F910F900FBE0F901F90189526E8230FB6
:1013D0000296A11DB11DD2CF1F920F920FB60F9290
:1013E00011242F933F934F935F936F937F938F932A
:1013F0009F93AF93BF93EF93FF938AE292E00E9493
:101400008A05FF91EF91BF91AF919F918F917F914D
:101410006F915F914F913F912F910F900FBE0F9061
:101420001F9018951F920F920FB60F9211242F93B1
:101430008F939F93EF93FF93E0913A02F0913B02D9
:101440008081E0914002F091410282FD1BC09081B9
:10145000809143028F5F8F7320914402821741F085
:10146000E0914302F0E0E65DFD4F958F80934302EB
:10147000FF91EF919F918F912F910F900FBE0F9041
:101480001F9018958081F4CF1F920F920FB60F9284
:1014900011242F933F934F935F936F937F938F9379
:1014A0009F93AF93BF93EF93FF938091B900887F91
:1014B000803609F44AC0F0F5883209F4A7C018F55F
:1014C000803109F49BC0B8F4882309F4F9C088304E
:1014D00009F494C0FF91EF91BF91AF919F918F91CB
:1014E0007F916F915F914F913F912F910F900FBE20
:1014F0000F901F901895883109F488C0803251F7F9
:101500008093000214C0803409F49DC040F48033FD
:10151000B9F38833F9F68093000285ECB0C08035CA
:1015200009F485C0883509F496C0883499F60E947C
:101530006A09D0CF883909F48CC038F5883729F08A
:1015400050F4883611F0803729F683E08093020248
:101550001092B70157C0883809F47BC0803919F060
:10156000803809F0B7CF8091B701803208F071C0A0
:10157000E091B70181E08E0F8093B7018091BB00AD
:10158000F0E0E956FE4F80833DC0803B39F0E0F447
:10159000803A09F479C0883A09F09CCF84E08093BE
:1015A00002021092960110929501E091BA01F09119
:1015B000BB0109958091950181110FC081E0809355
:1015C00095011092750109C0803C09F4A6CF883CB2
:1015D00009F4A3CF883B09F07DCFE091960181E02B
:1015E0008E0F80939601F0E0EB58FE4F8081809340
:1015F000BB00909196018091950129C08091FD01D9
:101600008093BB0085EC8093BC0064CF9091FF0178
:101610008091FE01981758F5E091FF0181E08E0F4F
:101620008093FF01F0E0E452FE4F8081E9CFE0912A
:10163000FF0181E08E0F8093FF018091BB00F0E0FD
:10164000E452FE4F80839091FF018091FE01981734
:10165000C8F285E8D8CFE091FF0181E08E0F80933A
:10166000FF018091BB00F0E0E452FE4F8083809147
:10167000010281115CCF81E08093FC0184EA8093B8
:10168000BC001092020226CF85EC8093BC00109221
:1016900002028091B701803230F4E091B701F0E0AE
:1016A000E956FE4F10826091B70170E0E091B801F9
:1016B000F091B90187E991E009951092B7010ACF3D
:1016C0001092000234CF10922D0210922C0288EE5C
:1016D00093E0A0E0B0E080932E0290932F02A093BD
:1016E0003002B093310222E131E030932B0220939B
:1016F0002A0225EC30E0309337022093360224ECA6
:1017000030E0309339022093380220EC30E03093FF
:101710003B0220933A0221EC30E030933D022093CB
:101720003C0222EC30E030933F0220933E0226EC54
:1017300030E0309341022093400210924302109215
:10174000440210924502109246021092CA02109270
:10175000C9028093CB029093CC02A093CD02B093A8
:10176000CE0284E291E09093C8028093C70287EC96
:1017700092E090930403809303031092F40210927A
:10178000F3021092EA021092E9021092FF02109204
:101790000003109201031092020380E098E09093FE
:1017A000F0028093EF028EE090E09093F602809337
:1017B000F5028FE090E09093F8028093F70280E1C9
:1017C00090E09093FA028093F90281E190E0909387
:1017D000FC028093FB0261E08EE00E94FE0261E069
:1017E0008091F7020E94FE0261E08091F9020E945E
:1017F000FE0261E08091FB020E94FE021092FE0256
:101800001092FD0284E090E09093F2028093F10246
:101810001092D4021092DB021092E2021092E302C4
:101820001092E4021092E50281E08093E10280933D
:10183000DE021092DF0292E09093E0028093D302E6
:101840008CE690E09093D8028093D7020E94ED142A
:101850009093DD028093DC02009789F12CE6FC0175
:1018600011922A95E9F784E290E09093D602809352
:10187000D50286E090E09093DA028093D9028091BD
:10188000D402882341F061E086E00E94FE0260E01D
:1018900086E00E94C001E4EBF0E0E491F0E0EE0F9E
:1018A000FF1FEC55FF4F859194919093E702809331
:1018B000E602E6E9F0E0E491E093E8020895109290
:1018C000D8021092D7021092D6021092D502D1CF30
:1018D000CF93DF9300D000D000D0CDB7DEB778949F
:1018E00084B5826084BD84B5816084BD85B5826025
:1018F00085BD85B5816085BD80916E0081608093D6
:101900006E0010928100809181008260809381003E
:10191000809181008160809381008091800081604E
:10192000809380008091B10084608093B1008091A9
:10193000B00081608093B00080917A0084608093D1
:101940007A0080917A00826080937A0080917A0098
:10195000816080937A0080917A00806880937A0019
:101960001092C100E0913A02F0913B0282E0808344
:10197000E0913602F09137021082E0913802F09146
:10198000390280E1808310924202E0913E02F091A0
:101990003F0286E08083E0913C02F0913D0280812D
:1019A00080618083E0913C02F0913D0280818860FB
:1019B0008083E0913C02F0913D02808180688083C9
:1019C000E0913C02F0913D0280818F7D80831092F6
:1019D0000902109208021092C1011092C0010E94E7
:1019E00047068AE095E09093BB018093BA018BE0B3
:1019F00095E09093B9018093B801E7E480E170E04D
:101A000060E09B01220F331FE0937C0090917A00ED
:101A1000906490937A0090917A0096FDFCCF40916B
:101A2000780050917900B90164277527815049F7F2
:101A30002417350719F3072E000C880B990B0E9409
:101A400080122091EF023091F002032E000C440B23
:101A5000550B60E077E883E993E00E94D312CA0156
:101A6000B9012BE030E040E050E00E94D312209317
:101A7000EB023093EC024093ED025093EE0262E0F1
:101A800082E00E94FE0261E083E00E94FE028091FB
:101A9000D9029091DA0297FD2EC061E00E94FE0209
:101AA00060E08091D9020E94C00181E08093D4025D
:101AB0006091DB022091DC023091DD02603421F183
:101AC0006150E1F070E08FEF9FE30E948912F9010D
:101AD0004091D7025091D802CF01821B930B8417FB
:101AE000950778F44081469FC001479F900D1124CF
:101AF00090833196EDCF1092D402DACF70E060E09F
:101B0000E6CF80E48093DB024091D7025091D80267
:101B100070E060E08091DC029091DD020E9412167C
:101B20000E94040482E391E00E94D8080091D5024B
:101B30001091D6020115110599F01A82198244E01C
:101B400054E064E070E089819A810E948D002981CF
:101B50003A812F5F3F4F3A8329830217130779F7A2
:101B60000E9404041092C8011092C9011092CA0187
:101B70001092CB011092BF011092BE011092BD01D4
:101B80001092BC0182E00E949701892BA1F480E0B1
:101B900098E09A83898382E00E949701019759F027
:101BA00081E090E00E945F03A981BA811197BA8316
:101BB000A983AB2B81F7E0E0F8E0FA83E98382E0C8
:101BC0000E949701892B61F081E090E00E945F0301
:101BD00029813A81215031093A832983232B79F7CE
:101BE00080E090E19A83898382E00E9497010197C7
:101BF000C9F081E090E00E945F038091BE01909166
:101C0000BF0101969093BF018093BE0160E070E038
:101C1000CB010E94D704A981BA811197BA83A98305
:101C2000AB2B11F785E391E00E94D80882E391E0A5
:101C30000E94D8088CE391E00E94D8088091BE01F0
:101C40009091BF010E94E508E0E0F8E0FA83E983A3
:101C500082E00E949701892B89F08FEF9FEF0E940D
:101C60005F0360E070E0CB010E94D70429813A81D4
:101C7000215031093A832983232B51F780E090E1E9
:101C80009A83898382E00E9497010197C9F08FEFC0
:101C90009FEF0E945F038091BC019091BD0101966E
:101CA0009093BD018093BC0160E070E0CB010E9485
:101CB000D704A981BA811197BA83A983AB2B11F7F5
:101CC00088E491E00E94D8088091BC019091BD0108
:101CD0000E94E508E091BE01F091BF018091BC0136
:101CE0009091BD01E80FF91FFA83E9838F01F7FF97
:101CF00002C00F5F1F4F15950795F12CE12CE016E0
:101D0000F10624F129813A8137FF04C02D5F3F4F4E
:101D10003A83298389819A819595879595958795A9
:101D200006969A83898310E000E0A981BA810A1798
:101D30001B07CCF48FEF9FEF0E945F0360E070E021
:101D4000CB010E94D7040F5F1F4FEFCF81E090E0DF
:101D50000E945F0360E070E0CB010E94D7049FEF18
:101D6000E91AF90ACCCF40E850E860E870E090E06A
:101D700080E00E948D000E94040468EB7BE080E01C
:101D800090E00E94D7048FB7F8944091D40150910D
:101D9000D5016091D6017091D7018FBF2224239481
:101DA00038E6332E80910303909104032092C301FF
:101DB0003092C2011092C1011092C00170E060E047
:101DC0000E94190680910303909104030E940C075E
:101DD0000E94BE0890E02091020130910301821719
:101DE000930789F462E370E080E090E00E94D704FA
:101DF00020E030E0232BB1F20E947605882391F297
:101E00000E940000CFCF9093030180930201809144
:101E10000303909104032092C3013092C2011092F7
:101E2000C1011092C00166E070E00E941906809125
:101E30000303909104030E940C070E94BE08809146
:101E40000303909104032092C3013092C2011092C7
:101E5000C1011092C00165E070E00E9419068091F6
:101E60000303909104030E940C0780910303909157
:101E700004030E94F6078091030390910403DC01A0
:101E8000ED91FC910284F385E02D0995881F882748
:101E9000881F8093D20180910303909104032092C4
:101EA000C3013092C2011092C1011092C00164E0DE
:101EB00070E00E94190680910303909104030E9430
:101EC0000C070E94BE0880910303909104032092A6
:101ED000C3013092C2011092C1011092C00162E0B0
:101EE00070E00E94190680910303909104030E9400
:101EF0000C0780910303909104030E94F6078091E0
:101F0000030390910403DC01ED91FC910284F385BD
:101F1000E02D099521E0AC014074552786FF20E0B3
:101F20002093D101282F22952F70B82FBF70EB2E50
:101F3000452B09F448C185FB882780F98093D0019F
:101F40002170EAE02E9FE00C1124F12C8091030314
:101F5000909104032092C3013092C2011092C101FA
:101F60001092C00161E070E00E94190680910303A5
:101F7000909104030E940C070E94BE08282F30E0B5
:101F80003E832D838090CC019090CD01A090CE0116
:101F9000B090CF0164E0C4010E94FE002B013C011F
:101FA0000091D5021091D60201151105A9F0083152
:101FB000110510F008E110E01A821982B301A201A4
:101FC00089819A810E948D0089819A8101969A83E4
:101FD00089830817190791F76FE7C40190580E9489
:101FE000FE002B013C010091D5021091D60209316F
:101FF0001105B8F00432110510F004E210E0A8E178
:10200000B0E0BA83A983B301A20189819A810E94B9
:102010008D00E981FA813196FA83E9830E171F0753
:1020200091F7C501B4017C5F8F4F9F4F20E030E0F6
:1020300045E050E00E94D3126093CC017093CD0133
:102040008093CE019093CF01C7016CE070E00E94B5
:102050009D128C010F5F1F4F21E030E03A832983EE
:1020600089819A818017910744F440E850E860E83C
:1020700070E0880F991F0E948D00A981BA81119686
:10208000BA83A9831C9761F70130110541F440E838
:1020900050E860E870E090E080E00E948D000E94CF
:1020A00004048091000190910101ED81FE81E81707
:1020B000F90709F433C1BF01FF0F880B990B0E9488
:1020C000CB1329E838E848E052E40E9480142B0141
:1020D0003C0104EC11E01A8309838EE0F82EA981FB
:1020E000BA816D91BA83A9838F2D0E94C001F394A8
:1020F000B2E1FB12F4CF64E670E080E090E00E9471
:10210000D704C090C801D090C901E090CA01F090F6
:10211000CB01A7019601C301B2010E947B14A70164
:10212000960118160CF083C0C301B2010E9421135E
:102130004B015C0120E030E040E055E4C301B20116
:102140000E942113A70196010E9421132B013C013B
:1021500020E030E0A9010E947B1418166CF020E00A
:1021600030E0A901C301B2010E948E1387FF31C084
:1021700077FA709477F87094A3019201C501B401C5
:102180000E947B1418162CF5C301B2010E94931310
:10219000072E000C880B990B0E94CB139B01AC01FE
:1021A000C701B6010E9421136093C8017093C90151
:1021B0008093CA019093CB01C301B20190580E9451
:1021C0009313CB0171C02370FAE02F9FE00C112410
:1021D000BCCEC501B4010E94931369837A838B83BB
:1021E0009C83E981FA81BF01FF0F880B990B0E9444
:1021F000CB132B013C0120E030E040E854E4C50162
:10220000B4010E948E1318160CF4ACC0A7019601FD
:10221000C301B2010E9422136093C8017093C901E7
:102220008093CA019093CB0189819A813DC0C301FB
:10223000B2010E948E1387FF39C0A3019201C7012A
:10224000B6010E9421134B015C0120E030E040E028
:1022500055E4C301B2010E942213A70196010E9416
:1022600021132B013C01AC019B01C501B4010E946B
:102270007B1418160CF059C0C301B2010E949313CD
:102280004B01072E000C880B990B0E94CB13A70162
:1022900096010E9422136093C8017093C901809334
:1022A000CA019093CB01C4010E945F03C090C80192
:1022B000D090C901E090CA01F090CB0120E030E05D
:1022C00040E055E4C701B6010E947B1418160CF0DB
:1022D0005AC020E030E040E055E4C701B6010E945A
:1022E00021136093C8017093C9018093CA01909330
:1022F000CB013EE0398389810E94970121E0892B3F
:1023000009F420E0D8012D938D0160E089810E94BD
:10231000C001B981BF5FB983B23169F7ED81FE8138
:10232000F0930101E093000163CDC501B4010E9467
:10233000931369837A838B839C8329813A81B901C2
:10234000330F880B990B0E94CB132B013C0120E02B
:1023500030E040E854E4C501B4010E948E13181621
:102360000CF454CFA3019201C701B6010E942113BE
:102370006093C8017093C9018093CA019093CB0107
:10238000C501B4011BCF20E030E0A901C701B601AF
:102390000E948E1387FFADCF20E030E040E055E48F
:1023A000C701B6010E9422139CCF8091DC0290915C
:1023B000DD020E9489158091D9029091DA0297FD81
:1023C00003C060E00C94FE0208958F929F92AF923A
:1023D000BF92CF92DF92EF92FF92CF93DF93EC0107
:1023E000688179818A819B816115710581059105DB
:1023F00021F464E279ED8BE597E02DE133EF41E0E4
:1024000050E00E94D31249015A019B01AC01A7EA96
:10241000B1E40E94F9126B017C01ACEEB4EFA501AE
:1024200094010E940713C60ED71EE81EF91EF7FE80
:1024300006C081E0C81AD108E10880E8F80AC8821D
:10244000D982EA82FB82C701B6019F77DF91CF91E3
:10245000FF90EF90DF90CF90BF90AF909F908F90C4
:1024600008958F929F92AF92BF92CF92DF92EF9298
:10247000FF92609104017091050180910601909195
:102480000701611571058105910521F464E279ED7B
:102490008BE597E02DE133EF41E050E00E94D3124D
:1024A00049015A019B01AC01A7EAB1E40E94F9126B
:1024B0006B017C01ACEEB4EFA50194010E940713FF
:1024C000C60ED71EE81EF91EF7FE06C081E0C81A28
:1024D000D108E10880E8F80AC0920401D092050111
:1024E000E0920601F0920701C701B6019F77FF90C5
:1024F000EF90DF90CF90BF90AF909F908F90089516
:102500006093040170930501809306019093070185
:102510000895AA1BBB1B51E107C0AA1FBB1FA6172A
:10252000B70710F0A61BB70B881F991F5A95A9F77C
:1025300080959095BC01CD01089597FB072E16F468
:10254000009407D077FD09D00E94891207FC05D0BE
:102550003EF4909581959F4F0895709561957F4FBA
:102560000895A1E21A2EAA1BBB1BFD010DC0AA1FD4
:10257000BB1FEE1FFF1FA217B307E407F50720F0EC
:10258000A21BB30BE40BF50B661F771F881F991F67
:102590001A9469F760957095809590959B01AC01B0
:1025A000BD01CF010895052E97FB1EF400940E94F3
:1025B000EA1257FD07D00E94B11207FC03D04EF477
:1025C0000C94EA1250954095309521953F4F4F4F0E
:1025D0005F4F089590958095709561957F4F8F4FCF
:1025E0009F4F08950E940C13B7FF0895821B930B11
:1025F00008950E940C13A59F900DB49F900DA49F69
:10260000800D911D11240895B7FF0C94F9120E94BA
:10261000F912821B930B0895A29FB001B39FC001D2
:10262000A39F700D811D1124911DB29F700D811DFE
:102630001124911D0895EE0FFF1F0590F491E02DD8
:1026400009945058BB27AA270E9439130C944114AF
:102650000E94331438F00E943A1420F039F49F3F5E
:1026600019F426F40C9430140EF4E095E7FB0C9466
:102670002A14E92F0E94521458F3BA1762077307FD
:102680008407950720F079F4A6F50C9474140EF4E1
:10269000E0950B2EBA2FA02D0B01B90190010C0172
:1026A000CA01A0011124FF27591B99F0593F50F48A
:1026B000503E68F11A16F040A22F232F342F4427E2
:1026C000585FF3CF469537952795A795F0405395DA
:1026D000C9F77EF41F16BA0B620B730B840BBAF0AA
:1026E0009150A1F0FF0FBB1F661F771F881FC2F715
:1026F0000EC0BA0F621F731F841F48F48795779529
:102700006795B795F7959E3F08F0B0CF9395880FE2
:1027100008F09927EE0F9795879508950E94061463
:1027200008F481E008950E949A136894B1110C9402
:10273000751408950E945A1488F09F5798F0B92F85
:102740009927B751B0F0E1F0660F771F881F991FE6
:102750001AF0BA95C9F714C0B13091F00E94741400
:10276000B1E008950C947414672F782F8827B85F10
:1027700039F0B93FCCF3869577956795B395D9F73E
:102780003EF490958095709561957F4F8F4F9F4F48
:102790000895E89409C097FB3EF490958095709554
:1027A00061957F4F8F4F9F4F9923A9F0F92F96E99D
:1027B000BB279395F695879577956795B795F11112
:1027C000F8CFFAF4BB0F11F460FF1BC06F5F7F4FAF
:1027D0008F4F9F4F16C0882311F096E911C07723C1
:1027E00021F09EE8872F762F05C0662371F096E8CA
:1027F000862F70E060E02AF09A95660F771F881F99
:10280000DAF7880F9695879597F90895990F00083C
:10281000550FAA0BE0E8FEEF16161706E807F907B2
:10282000C0F012161306E407F50798F0621B730B4D
:10283000840B950B39F40A2661F0232B242B252BCE
:1028400021F408950A2609F4A140A6958FEF811D71
:10285000811D089597F99F6780E870E060E0089512
:102860009FEF80EC089500240A94161617061806A8
:102870000906089500240A94121613061406050684
:102880000895092E0394000C11F4882352F0BB0F15
:1028900040F4BF2B11F460FF04C06F5F7F4F8F4F78
:1028A0009F4F089557FD9058440F551F59F05F3FB3
:1028B00071F04795880F97FB991F61F09F3F79F062
:1028C00087950895121613061406551FF2CF4695E4
:1028D000F1DF08C0161617061806991FF1CF869566
:1028E0007105610508940895E894BB27662777274A
:1028F000CB0197F908950E94061408F48FEF08950C
:102900000E9493140C9441140E94331438F00E94D6
:102910003A1420F0952311F00C942A140C943014DE
:1029200011240C9475140E94521470F3959FC1F3F6
:10293000950F50E0551F629FF001729FBB27F00D6D
:10294000B11D639FAA27F00DB11DAA1F649F6627C2
:10295000B00DA11D661F829F2227B00DA11D621F11
:10296000739FB00DA11D621F839FA00D611D221FCB
:10297000749F3327A00D611D231F849F600D211DAF
:10298000822F762F6A2F11249F5750409AF0F1F032
:1029900088234AF0EE0FFF1FBB1F661F771F881F9B
:1029A00091505040A9F79E3F510580F00C942A1495
:1029B0000C9475145F3FE4F3983ED4F386957795B5
:1029C0006795B795F795E7959F5FC1F7FE2B880F41
:1029D000911D9695879597F908950F931F93CF931F
:1029E000DF938230910510F482E090E0E0910703DC
:1029F000F091080330E020E0B0E0A0E0309799F4D7
:102A00002115310509F44AC0281B390B2430310542
:102A1000D8F58A819B816115710589F1FB0193834A
:102A20008283FE0111C040815181028113814817C8
:102A30005907E0F04817590799F4109761F012967A
:102A40000C93129713961C933296CF01DF91CF917E
:102A50001F910F9108950093070310930803F4CF7B
:102A60002115310551F04217530738F0A901DB0158
:102A70009A01BD01DF01F801C1CFEF01F9CF9093B9
:102A8000080380930703CDCFFE01E20FF31F81936C
:102A900091932250310939832883D7CF20910503A0
:102AA00030910603232B41F420910A0130910B0150
:102AB000309306032093050320910801309109010A
:102AC0002115310541F42DB73EB740910C015091CD
:102AD0000D01241B350BE0910503F0910603E2176D
:102AE000F307A0F42E1B3F0B2817390778F0AC0131
:102AF0004E5F5F4F2417350748F04E0F5F1F50930E
:102B0000060340930503819391939FCFF0E0E0E0AB
:102B10009CCFCF93DF930097E9F0FC0132971382AB
:102B20001282A0910703B0910803ED0130E020E08C
:102B30001097A1F420813181820F931F209105030A
:102B4000309106032817390709F061C0F093060396
:102B5000E0930503DF91CF910895EA01CE17DF07D7
:102B6000E8F54A815B819E0141155105B1F7E90104
:102B7000FB83EA8349915991C40FD51FEC17FD07D8
:102B800061F4808191810296840F951FE9019983F8
:102B90008883828193819B838A83F0E0E0E01296B0
:102BA0008D919C9113970097B9F52D913C911197B8
:102BB000CD010296820F931F2091050330910603E9
:102BC0002817390739F6309751F5109208031092FB
:102BD0000703B0930603A0930503BCCFD383C2833E
:102BE00040815181840F951FC817D90761F44E5F4A
:102BF0005F4F88819981480F591F518340838A8193
:102C00009B81938382832115310509F0B0CFF09326
:102C10000803E09307039ECFFD01DC01C0CF1382C0
:102C20001282D7CFDC0101C06D9341505040E0F7D4
:102C3000089510E0C2E6D0E004C0FE010E941B131C
:0C2C40002196C336D107C9F7F894FFCFE6
:102C4C00FFFFFFFF010000000000090380000000EF
:102C5C000000AC050C053905F9056A0548055C054D
:102C6C0000000000DD06B006F3078606A9069606EE
:102C7C0087060D0A002D2D2D2D2D2D004677642055
:102C8C0053746570733A200042616B205374657005
:042C9C00733A200067
:00000001FF
